S014000054502D696E666F325F365F322E737265633B
S1130000302B002015010000990100009901000027
S113001000000000000000000000000000000000DC
S11300200000000000000000000000009901000032
S11300300000000000000000990100009901000088
S11300409901000099010000990100009901000044
S1130050AD1E000099010000990100009901000003
S11300609901000099010000990100009901000024
S11300709901000099010000990100009901000014
S11300809901000099010000990100009901000004
S113009099010000990100009901000099010000F4
S11300A099010000990100009901000099010000E4
S11300B00000000010B5064C2378002B07D1054B37
S11300C0002B02D0044800E000BF0123237010BDC0
S11300D0C408002000000000D0C60000084B10B582
S11300E0002B03D00749084800E000BF0748036815
S11300F0002B00D110BD064B002BFBD09847F9E72D
S113010000000000C8080020D0C60000D0C60000CF
S11301100000000080B582B000AF164B7B60164B28
S11301203B607A683B689A420CD007E03B681A1D32
S11301303A607A68111D796012681A603A680F4B48
S11301409A42F3D30E4B3B6004E03B681A1D3A60BD
S113015000221A603A680B4B9A42F6D30A4B7B6032
S11301600A4B7A68FF218A439A60094B9847094BE6
S11301709847FEE7D0C6000000000020C408002015
S1130180C4080020300B00200000000000ED00E057
S1130190516E00006119000080B500AFFEE7C04653
S11301A080B584B000AF78600A4B1B68002B02D185
S11301B0084B094A1A60074B1B68FB60054B1A6819
S11301C07B68D218034B1A60FB681800BD4604B064
S11301D080BDC046E0080020302B002080B582B0EE
S11301E000AF786001235B421800BD4602B080BDB9
S11301F080B582B000AF786039603B68802292019C
S11302005A6000231800BD4602B080BD80B582B09C
S113021000AF786001231800BD4602B080BDC0461F
S113022080B584B000AFF860B9607A60002318002C
S1130230BD4604B080BDC04680B500AF674A536870
S11302401E218B4302210B435360654B644A926920
S113025008210A439A61634B634A9A82614A938AEA
S113026002210B439382C0465E4BDB68022213409B
S1130270FAD05E4B01221A70C0465C4B1B78DBB28D
S11302801A000123134005D0584B5B78DBB25BB2F4
S1130290002BF2DB554B01229A60C046534B5B782E
S11302A0DBB25BB2002BF9DB504B514A5A60C046BB
S11302B04E4B5B78DBB25BB2002BF9DB4B4B8222FB
S11302C0D2015A80C046494B5B78DBB25BB2002B4B
S11302D0F9DB444A938C80218B439384C046414B81
S11302E0DB6810221340FAD03E4B424ADA62C04621
S11302F03C4BDB6810221340FAD03A4A394B9B8CB2
S11303009BB23D490B439BB29384C046354BDB689B
S113031010221340FAD0334A324B9B8C9BB20221F9
S11303200B439BB29384C0462E4BDB688022134060
S1130330FAD02C4BDB6840221340F5D0C046294B41
S1130340DB6810221340FAD0284B00229A60C04682
S1130350264B5B78DBB25BB2002BF9DB234B274ADD
S11303605A60C046214B5B78DBB25BB2002BF9DBF1
S11303701C4A136A22490B4013621A4A136A8021E9
S11303808B431362194B03229A60184B1D4A5A601F
S1130390C046164B5B78DBB25BB2002BF9DB134B28
S11303A0194A9A60114B194A5A60C0460F4B5B7840
S11303B0DBB25BB2002BF9DB094B00221A72084B4B
S11303C000225A72064B00229A72054B0022DA72FE
S11303D00F4B104A1A60C046BD4680BD0040004124
S11303E000040040000800400C060000000C00401F
S11303F001050100DC05FF7D040A0000000703007D
S1130400FFFCFFFF030601000408000004060100CE
S113041000000020006CDC02F0B500AF1E4B1E484B
S1130420006A80246402204318621C4B1C485880D4
S11304301C4E1D4B1B68DB089BB21B0298B2E023C9
S1130440DB00034098B2194B5C681B686501D90E48
S11304502943E20E8BB2FF2213409BB203439BB2AB
S11304603385104A0F4B5B78DBB202210B43DBB2BE
S113047053700C4B802252009A800A4B0C4A1A612A
S1130480084A084B1B78DBB202210B43DBB2137022
S113049000231800BD46F0BD00040040000C0040DD
S11304A01E43000000400042246080002060800061
S11304B00718000F90B589B000AF040008001100C0
S11304C0FB1D221C1A70BB1D021C1A707B1D0A1C0A
S11304D01A700023FB61FB1D1B780F2B03D87B1DB7
S11304E01B78032B02D90123FB6144E0FB1D1B781D
S11304F0DB08DBB27B61FB1D1B789B001C221340D5
S11305003B610F223B699A401300FB601C491C4A63
S11305107B6906339B009B58FA68D2431A407B6977
S113052006339B005A500023BB61BB1D1B78002B74
S113053003D0BB6908221343BB617B1D1B78BA69D6
S11305401343BB610E480E4A7B6906339B009B58DC
S1130550B9693A6991400A001A437B6906339B00E2
S11305601A50074BFA1D1278012191400A00DA60F3
S1130570034B02221A70FB691800BD4609B090BDF6
S11305800018004080B584B000AF78600023FB60A1
S11305907B68042B02DD0123FB6008E0064A7B68CC
S11305A01B021BB205490B431BB29BB25380FB6871
S11305B01800BD4604B080BD000C0040054000009A
S11305C080B582B000AF0200FB1D1A70FB1DFA1D3E
S11305D012780F210A401A70FB1D1B7850225242D8
S11305E01343DBB21800034B9847C046BD4602B024
S11305F080BDC046E509000080B582B000AF0200AE
S1130600FB1D1A70FB1DFA1D12787F210A401A7017
S1130610FB1D1B781B09DBB210221343DBB218004D
S1130620064B9847FB1D1B780F221340DBB21800C2
S1130630024B9847C046BD4602B080BDE5090000A4
S113064080B582B000AF0200FB1D1A70FB1DFA1DBD
S113065012783F210A401A70FB1D1B784022134375
S1130660DBB21800024B9847C046BD4602B080BDBD
S1130670E509000080B500AFAF20024B9847C046A3
S1130680BD4680BDE509000080B582B000AF020020
S1130690FB1D1A708120064B9847FB1D1B78180020
S11306A0034B9847FB1D1B781800BD4602B080BD64
S11306B0E509000080B500AFA620024B9847C0466C
S11306C0BD4680BDE509000090B583B000AF0200CF
S11306D0FB1D1A70104B9847FB1D1B78002B17D07D
S11306E00E4B0022002118000D4B98470D4B0E486D
S11306F002222B210D4CA0470A4B0D481322352111
S11307000A4CA047012322221D213F20094CA04767
S1130710C046BD4603B090BD2D1200000400002069
S1130720510E00000C000020A0BD00007911000053
S1130730B0BD0000190C000080B582B000AF786035
S11307407B68032B07DC7B68DA00054B1A60054BDA
S113075000221A6000E0C046BD4602B080BDC0461B
S1130760200B0020240B002090B583B000AF0200C2
S1130770FB1D1A70FB1D1B780A2B11D11D4B002287
S11307801A601D4B1B6808331C4A134004D5013BF7
S113079020225242134301331A00174B1A6025E0FA
S11307A0144B1B68D9B2144B1B68DAB2144CFB1DF2
S11307B018782300134CA0470E4B1B689A1D0D4B51
S11307C01A600C4B1B687F2B10DD0A4B00221A6049
S11307D0094B1B680833094A134004D5013B202206
S11307E05242134301331A00034B1A60C046BD46FC
S11307F003B090BD240B0020200B00201F000080BC
S11308000C0000201111000090B583B000AF00234C
S11308107B6013E000233B600AE07B68D8B23B684E
S1130820D9B2012300220C4CA0473B6801333B6042
S11308303B687F2BF1DD7B6801337B607B68032B96
S1130840E8DD064B00221A60054B00221A60C04600
S1130850BD4603B090BDC0461D140000240B00200B
S1130860200B002090B585B000AF0200FB1D1A706C
S11308700023FB600AE0FB68D9B2FB1D1878012352
S11308800022094CA047FB680133FB60FB687F2B07
S1130890F1DD064B00221A60054B00221A60C046A7
S11308A0BD4605B090BDC0461D140000240B0020B9
S11308B0200B002080B582B000AF00237B6002E0F3
S11308C07B6801337B607B68034A9342F8DDC04652
S11308D0BD4602B080BDC046E703000080B500AF4E
S11308E001221B210020094B984700221B210020D4
S11308F0074B9847074B984701221B210020044BC4
S11309009847044B9847C046BD4680BDE514000097
S113091085160000B508000080B500AF0222112141
S113092001201D4B98470322162101201A4B98479A
S1130930032217210120184B9847184B174A126AB3
S113094080210A431A62164B164A5A80164A1368C3
S113095001210B431360C046134B1B68DB07DB0FFD
S1130960DBB2002BF8D1104BDB69DB07DB0FDBB20A
S1130970002BF1D10C4B0D4A1A600B4B0C4A5A60F8
S1130980094B03221A73084B074A126802210A43CF
S11309901A60C046BD4680BDF51600000004004044
S11309A0000C004019430000001C00428C000100B0
S11309B00022020080B582B000AF0200FB1D1A7055
S11309C000221E210120054B9847054BFA1D127881
S11309D09A62C046BD4602B080BDC046851600007E
S11309E0001C004280B582B000AF0200FB1D1A70EB
S11309F0C0460A4B1B7E9B07DB0FDBB2002BF8D0F3
S1130A00074994228023DB058B50044BFA1D12788E
S1130A109A62C046BD4602B080BDC046001C00427A
S1130A200044004180B582B000AF0200FB1D1A7083
S1130A30C0460A4B1B7E9B07DB0FDBB2002BF8D0B2
S1130A40074998228023DB058B50044BFA1D12784A
S1130A509A62C046BD4602B080BDC046001C00423A
S1130A600044004180B500AF01221E210120234B28
S1130A709847234B9847234B9847A820224B9847E5
S1130A801F20224B9847D320204B984700201F4B10
S1130A90984740201D4B9847A1201C4B9847C820DD
S1130AA01A4B9847DA20194B98470220174B98475E
S1130AB08F20174B9847A420144B9847154B984701
S1130AC0D520124B98478020104B98478D200F4B10
S1130AD0984714200D4B9847DB200C4B9847402037
S1130AE00A4B9847D920094B9847F120074B984760
S1130AF0094B9847C046BD4680BDC046E51400007A
S1130B00DD08000019090000B5090000E50900002E
S1130B1089060000B50600007506000080B582B0A5
S1130B2000AF7860034B7A681A60C046BD4602B0D5
S1130B3080BDC046E408002090B585B000AF786061
S1130B400C0010001900FB1C221C1A70BB1C021C98
S1130B501A707B1C0A1C1A707B68FB600F4B1B68A5
S1130B60FA1C1278D101BA1C12788A189B18BB603F
S1130B70BB685A1CBA60FA68511CF96012781A7082
S1130B807B1C7A1C1278013A1A707B1C1B78002B90
S1130B90EED1C046BD4605B090BDC046E408002075
S1130BA090B583B000AF040008001100FB1D221CA7
S1130BB01A70BB1D021C1A707B1D0A1C1A70084B8C
S1130BC01A68FB1D1B78DB011900BB1D1B78CB18B1
S1130BD0D3187A1D12781A70C046BD4603B090BD72
S1130BE0E408002080B582B000AF0200FB1D1A703B
S1130BF0BB1D0A1C1A70074B1A68FB1D1B78DB010E
S1130C001900BB1D1B78CB18D3181B781800BD46E0
S1130C1002B080BDE4080020B0B584B000AF050088
S1130C200C0010001900FB1D2A1C1A70BB1D221C8D
S1130C301A707B1D021C1A703B1D0A1C1A70FB1DC6
S1130C401A787B1D1B78D318802B06DD7B1DFA1DBB
S1130C501278802149428A1A1A700F23FB18BA1D90
S1130C601278D2081A70BB1D1A780F23FB181B7850
S1130C70DB00D31A01229A400E23FB181A707B1D45
S1130C801B78002B00D1A4E03B1D1B78012B2FD037
S1130C90022B00D195E0002B61D09BE0FA1D7B1D57
S1130CA012781B78D318DAB20D23FC180F23FB1823
S1130CB01B7811001800494B9847030023700D233B
S1130CC0FB180D22B9180E22BA18097812780A43B3
S1130CD01A70FA1D7B1D12781B78D318D9B20D2314
S1130CE0FB181A780F23FB18187800233C4CA047F4
S1130CF07B1D1B787A1D591E1170002BCED169E023
S1130D00FA1D7B1D12781B78D318DAB20D23FC1858
S1130D100F23FB181B7811001800304B9847030071
S1130D2023700E23FB181B785BB2DB435BB20D22EE
S1130D30BA18127852B213405AB20D23FB181A7023
S1130D40FA1D7B1D12781B78D318D9B20D23FB181A
S1130D501A780F23FB1818780023214CA0477B1D19
S1130D601B787A1D591E1170002BC9D132E0FA1D6F
S1130D707B1D12781B78D318DAB20D23FC180F23CD
S1130D80FB181B7811001800144B984703002370BC
S1130D900D23FB180D22B9180E22BA1809781278FF
S1130DA04A401A70FA1D7B1D12781B78D318D9B2E9
S1130DB00D23FB181A780F23FB1818780023084C0E
S1130DC0A0477B1D1B787A1D591E1170002BCED1B4
S1130DD000E0C046BD4604B0B0BDC046B514000036
S1130DE01D140000B0B582B000AF05000C00100067
S1130DF01900FB1D2A1C1A70BB1D221C1A707B1DB6
S1130E00021C1A703B1D0A1C1A703B1D1B78002B18
S1130E1018D00FE0BA1D3B1D12781B78D318D9B235
S1130E201823FB181C787B1D1A78FB1D18782300E7
S1130E30064CA0473B1D1B783A1D591E1170002B10
S1130E40E8D100E0C046BD4602B0B0BD190C0000B8
S1130E5090B585B000AF786008001100FB1C021C3F
S1130E601A70BB1C0A1C1A707B685A780D23FB1875
S1130E70D2081A700C23FB18BA1C1278D2081A7004
S1130E807B689B78002B51D0012B00D07BE00E2394
S1130E90FB1800221A7040E00F23FB1800221A707E
S1130EA02DE07B685A680E23FB181B787968097853
S1130EB04B4319000F23FB181B78CB18D2180B23B4
S1130EC0FB1812781A700E23FA180C23FB181278E8
S1130ED01B78D318D8B20F23FA18FB1C12781B788E
S1130EE0D318D9B20B23FB181A780023284CA04737
S1130EF00F23FB181A780F23FB1801321A707B6832
S1130F001B780F22BA1812789A42CAD30E23FB1800
S1130F101A780E23FB1801321A700E23FA180D23C7
S1130F20FB1812781B789A42B6D32CE00E23FB18D8
S1130F3000221A701EE07B685B680E22BA181278D1
S1130F40796809784A4398180C23FA180E23FB1879
S1130F5012781B78D318D9B27B681C78FB1C1A78DA
S1130F6023000C4CA0470E23FB181A780E23FB1801
S1130F7001321A700E23FA180D23FB1812781B780D
S1130F809A42D8D3C046C046BD4605B090BDC046BF
S1130F901D1400009D13000090B587B000AF04003D
S1130FA0080011003B60FB1D221C1A70BB1D021CB3
S1130FB01A707B1D0A1C1A703B68002B00D1A0E03C
S1130FC01023FB18BA1D12781A700F23FB187A1D10
S1130FD012781A703B681A7A1323FB18D2081A7015
S1130FE03B681B7A07221340DBB2002B06D0132385
S1130FF0FB181A781323FB1801321A701323FB18F9
S11310001B789BB23A68527A92B253439AB2FB1D50
S11310101B783968897A5B1A99B20C23FB184A4306
S11310201A803B685A680C23FB181B88D3187B6111
S11310301223FB183A68527A1A700E23FB18002206
S11310401A700B23FB183A68127A1A701123FB18D2
S113105000221A7034E01123FB181B780722134076
S1131060DBB2002B07D10E23FB187A6912781A70B1
S11310707B6901337B610E23FB181B785BB2002B69
S113108009DA0F23FB1819781023FB181B780122A7
S113109018001E4B98471023FB181022BA18127818
S11310A001321A700E23FA180E23FB181B78DB1872
S11310B013701123FB181A781123FB1801321A70CC
S11310C01123FA180B23FB1812781B789A42C2D307
S11310D00F23FB180F22BA18127801321A7010234A
S11310E0FB18BA1D12781A701223FB181A781223EF
S11310F0FB18013A1A701223FB181B78002B9CD1A1
S113110000E0C046BD4607B090BDC046A91200002D
S113111090B585B002AF0400080011003B60FB1DD0
S1131120221C1A70BB1D021C1A707B1D0A1C1A702B
S11311303B681A7A3B685C7A7B1D1978BB1D18786A
S11311400023009323000A4CA0473B681B78002B24
S113115000D00AE03C687B1D1A78BB1D1978FB1D82
S113116018782300034CA047C046BD4603B090BD89
S1131170E50D0000990F000090B587B000AFF8604E
S1131180080011007B600B23FB18021C1A700A2351
S1131190FB180A1C1A701723FB180B22BA181278B2
S11311A01A70FB68002B39D07B68002B38D0FB68A1
S11311B01B780A2B11D10B23FB181722BA181278AB
S11311C01A707B685A7A0A23FB181B78D318DAB290
S11311D00A23FB1801321A7018E0FB681B780D2BE8
S11311E014D0FB6818787C680A23FB181A780B2340
S11311F0FB18197823000C4CA0477B68197A0B2341
S1131200FB180B22BA1812788A181A70FB6801337B
S1131210FB60FB681B78002BC9D102E0C04600E0EC
S1131220C046BD4607B090BD1111000090B583B013
S113123000AF184B1800184B9847184B98470020DC
S1131240174B9847FB1D00221A701AE0BB1D0022A1
S11312501A700CE0BB1D1978FB1D187801230022BD
S1131260104CA047BB1D1A78BB1D01321A70BB1D60
S11312701B785BB2002BEDDAFB1D1A78FB1D0132E3
S11312801A70FB1D1B78032BE0D9C046BD4603B082
S113129090BDC046E80800201D0B0000650A000050
S11312A0410600001D14000090B585B000AF040095
S11312B008001100FB1D221C1A70BB1D021C1A70B1
S11312C07B1D0A1C1A70FB1D1B785BB2002B5DDBB7
S11312D0BB1D1B781F2B59D80E23FB18BA1D12787F
S11312E0D2081A70BB1D1A780E23FB181B78DB007A
S11312F0D31A01229A400D23FB181A700F23FC18ED
S1131300FB1D1A780E23FB181B7811001800214BC3
S11313109847030023707B1D1B78012B04D0022BFC
S11313201DD0002B0BD025E00F23FB180F22B9187A
S11313300D22BA18097812780A431A701AE00D239C
S1131340FB181B785BB2DB435BB20F22BA1812782E
S113135052B213405AB20F23FB181A700AE00F233B
S1131360FB180F22B9180D22BA18097812784A40CE
S11313701A70C0460F23FB181A78FB1D19780E2328
S1131380FB1818780023044CA04700E0C046BD4673
S113139005B090BDB51400001D14000090B583B0D5
S11313A000AF78600C0010001900FB1C221C1A709E
S11313B0BB1C021C1A707B1C0A1C1A707B1C1C7838
S11313C0BB1C1A78FB1C1978786823000F4CA047C3
S11313D0FB1C1B7818000E4B9847BB1C1B7818008D
S11313E00C4B98477B685A1C7A601B7818000A4B90
S11313F098477B1C7A1C1278013A1A707B1C1B7864
S1131400002BEFD1C046BD4603B090BD390B0000A0
S1131410C1050000F9050000250A0000B0B582B03E
S113142000AF05000C0010001900FB1D2A1C1A70E7
S1131430BB1D221C1A707B1D021C1A703B1D0A1C4A
S11314401A703B1D1B78002B0DD1BB1D1A78FB1D98
S11314501B7811001800124B984703001A007B1DDB
S11314601B78934218D07B1D1A78BB1D1978FB1D7D
S11314701B7818000B4B9847FB1D1B7818000A4B70
S11314809847BB1D1B781800084B98477B1D1B7899
S11314901800074B984700E0C046BD4602B0B0BDF7
S11314A0E50B0000A10B0000C1050000F9050000D8
S11314B0250A000080B582B000AF0200FB1D1A703F
S11314C0BB1D0A1C1A70BB1D1A78FB1D1B7811006A
S11314D01800034B984703001800BD4602B080BDB6
S11314E0E50B000090B583B000AF040008001100C4
S11314F0FB1D221C1A70BB1D021C1A707B1D0A1CCA
S11315001A70FB1D1B78012B00D9AFE0BB1D1B78A3
S11315101F2B00D9ACE07B1D1B78042B00D9A9E05C
S11315209A00564BD3181B689F465549FB1D1B78E0
S1131530BA1D1278012090400200DB01CB1804335D
S11315401A604F48FB1D1A78BB1D1B784021D2013D
S11315508218D3185B1800221A708CE04849FB1DCE
S11315601B78BA1D1278012090400200DB01CB18D1
S113157008331A604249FB1D1B78BA1D12780120FA
S113158090400200DB01CB1814331A603C48FB1D69
S11315901A78BB1D1B784021D2018218D3185B181E
S11315A000221A7067E03649FB1D1B78BA1D1278B9
S11315B0012090400200DB01CB1804331A6030484C
S11315C0FB1D1A78BB1D1B784021D2018218D31849
S11315D05B1802221A704EE02949FB1D1B78BA1DC4
S11315E01278012090400200DB01CB1804331A600A
S11315F02349FB1D1B78BA1D12780120904002007C
S1131600DB01CB1818331A601D48FB1D1A78BB1D6B
S11316101B784021D2018218D3185B1806221A7055
S113162029E01749FB1D1B78BA1D12780120904050
S11316300200DB01CB1804331A601149FB1D1B782F
S1131640BA1D1278012090400200DB01CB1814333C
S11316501A600B48FB1D1A78BB1D1B784021D20170
S11316608218D3185B1806221A7004E0C04602E000
S1131670C04600E0C046BD4603B090BDDCC00000DB
S11316800044004180B582B000AF3A60FB1D021CEB
S11316901A70BB1D0A1C1A70FB1D1B78012B20D865
S11316A0BB1D1B781F2B1ED83B68002B0CD0104988
S11316B0FB1D1B78BA1D1278012090400200DB014B
S11316C0CB1818331A600FE00949FB1D1B78BA1DAB
S11316D01278012090400200DB01CB1814331A6009
S11316E002E0C04600E0C046BD4602B080BDC04630
S11316F000440041F0B585B000AF040008001100BB
S1131700FB1D221C1A70BB1D021C1A707B1D0A1CB7
S11317101A70FB1D1B78012B5FD8BB1D1B781F2B78
S11317205DD87B1D1B78072B5BD80B23FB18BA1DD8
S1131730127852081A702D48FB1D1A780B23FB18D7
S11317401B783021D2018218D3185B181B78DBB2C6
S1131750FB60BB1D1B78012213400AD0FB680F22DB
S11317601340FB607B1D1B781B01FA681343FB606D
S113177008E0FB68F0221340FB607B1D1B78FA68CD
S11317801343FB601948FB1D1A780B23FB181B78C5
S1131790F968CCB23021D2018218D3185B18221C0C
S11317A01A70124CFB1D1A78BB1D1B780F4EF91DC5
S11317B00878B91D09784025C00130184118491925
S11317C00978C9B201200143C8B24021D201A2184C
S11317D0D3185B18021C1A7004E0C04602E0C0462D
S11317E000E0C046BD4605B0F0BDC046004400411F
S11317F080B582B000AF78607B68022B03D87A682A
S1131800034B1A6000E0C046BD4602B080BDC0462E
S11318101800002080B586B000AFF860B9607A6027
S113182000237B61FB68012B02D001235B422BE088
S1131830174B1B68012B11D100237B6109E07B69E5
S1131840BA68D3181B781800124B98477B69013388
S11318507B617A697B689A42F1DB14E00C4B1B686C
S1131860022B10D100237B6109E07B69BA68D3188D
S11318701B781800084B98477B6901337B617A69B0
S11318807B689A42F1DB7B691800BD4606B080BDD7
S113189018000020690700009D18000080B582B080
S11318A000AF0200FB1D1A70FB1D1B780A2B02D12E
S11318B00D20FFF7F3FFC0460D4B1B681B7EDB07B3
S11318C0DB0FDBB2002BF7D0094B1B68FA1D127833
S11318D092B21A85C046064B1B681B7E9B07DB0F22
S11318E0DBB2002BF7D0C046BD4602B080BDC04677
S11318F01C00002080B584B000AF786039600023FC
S1131900FB607B68042B02DC3B68072B02DD0123B0
S1131910FB601AE00F4B0F4A126A39680831012044
S1131920884001000A431A620B487B681B021BB201
S11319308022D20113431AB2084B39688900CB586C
S11319401BB213431BB29BB24380FB681800BD4615
S113195004B080BD00040040000C0040F0C0000052
S1131960B0B584B000AF274BFB600B23FB180022FB
S11319701A700A23FB1800221A70FE239B057B6051
S1131980214B9847214B9847214B9847031CFB60F8
S11319900B23FC18FB68181C1E4B9847030023708C
S11319A00A23FC18FB68181C1B4B98470300237080
S11319B00022F9687B68181C184B9847051CFC1C0E
S11319C0FA680A23FB1819780B23FB1818782B1CC8
S11319D0134DA84703002370FB1C1B781800114B00
S11319E09847FB68181C104B98470B23FB181B786F
S11319F018000E4B98470A23FB181B7818000C4B51
S1131A009847C1E70000DC4325270000351A000091
S1131A108D1F0000DD1F000011210000DD260000E5
S1131A2021260000411D0000B91C0000B11B00006C
S1131A30011D000080B500AF054B98470020054B01
S1131A409847054B1800054B9847C046BD4680BDD6
S1131A50090800003907000010C1000035700000BB
S1131A6080B582B000AF02003960FB1D1A70FB1D07
S1131A701B780C2B70D89A003E4BD3181B689F46DA
S1131A803A683D4B1000190003231A003B4B98475A
S1131A906BE03A683A4B100019000A231A00374BDE
S1131AA0984762E03A68374B1000190003231A0084
S1131AB0324B984759E03A68334B100019000A2317
S1131AC01A002E4B984750E03A68304B100019002A
S1131AD003231A00294B984747E03A682C4B10001F
S1131AE0190003231A00254B98473EE03A68294B16
S1131AF0100019000B231A00204B984735E03A6870
S1131B00254B1000190004231A001C4B98472CE0A5
S1131B103A68224B100019000B231A00174B984700
S1131B2023E03A681E4B1000190003231A00134BDC
S1131B3098471AE03A681B4B100019000A231A0050
S1131B400E4B984711E03A68174B10001900032315
S1131B501A000A4B984708E03A68144B1000190021
S1131B6009231A00054B9847C046C046BD4602B03B
S1131B7080BDC04684C1000020C10000996E0000F1
S1131B8024C1000030C1000034C1000040C1000085
S1131B9044C1000048C1000054C1000058C1000005
S1131BA064C1000068C1000074C1000078C1000075
S1131BB080B582B000AF0200FB1D1A7003202B4BCE
S1131BC0984703202A4B98472A4B18002A4B9847DA
S1131BD0FB1D1B780C2B40D89A00284BD3181B688C
S1131BE09F46274B1800274B98473BE0264B18008D
S1131BF0244B984736E0254B1800224B984731E098
S1131C00234B18001F4B98472CE0224B18001D4B08
S1131C10984727E0204B18001A4B984722E01F4BA7
S1131C201800184B98471DE01D4B1800154B98479A
S1131C3018E01C4B1800134B984713E01A4B18007C
S1131C40104B98470EE0194B18000E4B984709E0CB
S1131C50174B18000B4B984704E0164B1800094B20
S1131C609847C046C046BD4602B080BD6508000026
S1131C7039070000B8C10000A16F0000D0C1000006
S1131C8020C100003570000024C1000030C10000F4
S1131C9034C1000040C1000044C1000048C100003C
S1131CA054C1000058C1000064C1000068C10000B4
S1131CB074C10000C4C1000090B583B000AF786067
S1131CC001200A4B98470120094B9847094B786833
S1131CD0984703000C0008491A002300080007492C
S1131CE08847C046BD4603B090BDC04665080000A5
S1131CF039070000496C000004C20000A16F000015
S1131D0080B582B000AF0200FB1D1A700220084BA0
S1131D1098470220074B9847FB1D1A78064B110081
S1131D201800064B9847C046BD4602B080BDC04669
S1131D30650800003907000018C20000A16F000008
S1131D4080B582B000AF0200FB1D1A70FB1D1B782A
S1131D50022B14D0032B22D0012B00D02FE0002221
S1131D600C210020184B984701220D210020164B0E
S1131D70984701220F210020134B98471FE00022AF
S1131D800D210020104B984701220C2100200E4BFE
S1131D90984701220F2100200B4B98470FE00022A7
S1131DA00F210020084B984701220C210020064BEC
S1131DB0984701220D210020034B9847C046C04696
S1131DC0BD4602B080BDC0468516000080B582B015
S1131DD000AF0200FB1D1A70064BFA1D12781100A9
S1131DE01F220A40012191400A001A60C046BD46E4
S1131DF002B080BD00E100E080B582B000AF020017
S1131E00FB1D1A70074AFB1D1B7819001F230B408A
S1131E10012199400B0019008023D150C046BD46D2
S1131E2002B080BD00E100E080B500AF03220F21C5
S1131E300120174B984700220F210120154B98478A
S1131E400120154B9847012201210F20134B98477D
S1131E500420134B984703210420124B9847124B3C
S1131E60C02292001A80104B00225A710E4B00229D
S1131E701A820D4B01229A730B4A0B4B1B889BB29F
S1131E8002210B439BB21380C046BD4680BDC046B1
S1131E90E5140000F516000085050000B5040000F7
S1131EA0CD1D0000F5180000002C0042B0B500AFB5
S1131EB00420294B9847294B1A6980231B0213409D
S1131EC011D0274B1B78002B0DD1254B01221A7002
S1131ED0244B00221A82214B204A126980210902D4
S1131EE00A431A6131E01D4B1A6980231B02134017
S1131EF02BD01B4B1B78002B27D0194B00221A70B8
S1131F00184B1B8A9BB21A00174B10009847174CAA
S1131F10174A184BA04703000C001A002300164C64
S1131F2000201649A04703000C0019002200144B9E
S1131F30080011009847021C124B1A60074B074A0D
S1131F401269802109020A431A6104200E4B984742
S1131F50C046BD46B0BDC046F91D00000018004093
S1131F60E80A0020002C0042C56B00007D5F0000E1
S1131F708DEDB5A0F7C6E03E355700000000F03FF8
S1131F80F16C0000280B0020CD1D000080B500AFCF
S1131F90024B1B68181CBD4680BDC046280B0020A0
S1131FA090B583B000AF38607960094C0022094BCA
S1131FB038687968A04703000C0018002100064B1C
S1131FC0984703000C0018002100BD4603B090BDE3
S1131FD0DD5000000000E03F7D27000090B587B091
S1131FE000AF78603B4B786898473B4C00223B4BF2
S1131FF0A04703000C00180021000023384C1A00ED
S11320002300384CA04703000C0018002100364B75
S11320109847314C354A364BA04703000C00180052
S11320202100344B984703000C003B617C61324C27
S11320300022002338697969A047031E23D02F4C5E
S11320403A697B6900200021A04703000C001900B5
S113205022000F23FC182A4B0800110098470300A4
S113206023700F23FB181A78264B0C211000984775
S11320700B00DAB20F23FB180A218A1A1A700F23F5
S1132080FB181B7821E0204C002200233869796971
S1132090A047031E19D00F23FC18194B386979691E
S11320A09847030023700F23FB181B780A331A0088
S11320B0164B0C21100098470B001A000F23FB1835
S11320C01A700F23FB181B78FFE71800BD4607B0F2
S11320D090BDC046496C00003557000000807B402D
S11320E000002840C5290000AD280000FF799F505A
S11320F01344D33FA11F0000294400007164000071
S1132100ED4400001D42000065440000F14300005E
S113211090B587B000AF7860484B78689847484CD2
S11321200022484BA04703000C00180021000023A4
S1132130454C1A002300454CA04703000C0018002E
S11321402100434B98473E4C424A434BA04703006F
S11321500C0018002100414B984703000C003B6120
S11321607C613F4C0022002338697969A047031E33
S113217031D03C4C3A697B6900200021A047030020
S11321800C00190022000F23FC18374B0800110023
S11321909847030023700F23FB181B780A331A0097
S11321A0324B0C211000984703001A00304B1000EA
S11321B0984703000C0018002100284B98470A0098
S11321C00100294B0800110098470300DBB20422E8
S11321D0D31ADBB22EE0274C002200233869796938
S11321E0A047031E26D00F23FC181F4B38697969BA
S11321F09847030023700F23FB181B780A331A0037
S11322001A4B0C211000984703001A00184B1000B9
S1132210984703000C0018002100104B98470A004F
S11322200100114B0800110098470300DBB203338F
S1132230DBB2FFE71800BD4607B090BD496C000053
S11322403557000000807B4000002840C52900006D
S1132250AD280000FF799F501344D33FA11F000015
S11322602944000071640000ED4400002542000090
S1132270C56B00006544000090B583B000AF020058
S1132280FB1D1A70BB1D0A1C1A70FB1D1B780C2B3E
S113229000D984E19A00C44BD3181B689F46BB1D28
S11322A01A78C24B10009847C14C0022C14BA0477A
S11322B003000C0000208021C9051A002300BE4C35
S11322C0A047BE4CBE4ABF4BA04703000C001900F8
S11322D02200BD4B080011009847031C60E1BB1DA0
S11322E01A78B24B10009847B14C0022B14BA0476A
S11322F003000C0000208021C9051A002300AE4C05
S1132300A047AE4CB14AB24BA04703000C001900E1
S11323102200AD4B080011009847031C40E1BB1D8F
S11323201A78A24B10009847A14C0022A14BA04759
S113233003000C0000208021C9051A0023009E4CD4
S1132340A0479E4CA34AA44BA04703000C001900CD
S113235022009D4B080011009847031C20E1BB1D7F
S11323601A78924B10009847914C0022914BA04749
S113237003000C0000208021C9051A0023008E4CA4
S1132380A0478E4C954A964BA04703000C001900B9
S113239022008D4B080011009847031C00E1BB1D6F
S11323A01A78824B10009847814C0022814BA04739
S11323B003000C0000208021C9051A0023007E4C74
S11323C0A0477E4C874A884BA04703000C001900A5
S11323D022007D4B080011009847031CE0E0BB1D60
S11323E01A78724B10009847714C0022714BA04729
S11323F003000C0000208021C9051A0023006E4C44
S1132400A0476E4C794A7A4BA04703000C00190090
S113241022006D4B080011009847031CC0E0BB1D4F
S11324201A78624B10009847614C0022614BA04718
S113243003000C0000208021C9051A0023005E4C13
S1132440A0475E4C6B4A6C4BA04703000C0019007C
S113245022005D4B080011009847031CA0E0BB1D3F
S11324601A78524B10009847514C0022514BA04708
S113247003000C0000208021C9051A0023004E4CE3
S1132480A0474E4C5D4A5E4BA04703000C00190068
S113249022004D4B080011009847031C80E0BB1D2F
S11324A01A78424B10009847414C0022414BA047F8
S11324B003000C0000208021C9051A0023003E4CB3
S11324C0A0473E4C4F4A504BA04703000C00190054
S11324D022003D4B080011009847031C60E0BB1D1F
S11324E01A78324B10009847314C0022314BA047E8
S11324F003000C0000208021C9051A0023002E4C83
S1132500A0472E4C0022414BA04703000C001900A9
S113251022002D4B080011009847031C40E0BB1D0E
S11325201A78224B10009847214C0022214BA047D7
S113253003000C0000208021C9051A0023001E4C52
S1132540A0471E4C324A334BA04703000C0019002D
S113255022001D4B080011009847031C20E0BB1DFE
S11325601A78124B10009847114C0022114BA047C7
S113257003000C0000208021C9051A0023000E4C22
S1132580A0470E4C244A254BA04703000C00190019
S113259022000D4B080011009847031C00E00023A3
S11325A0181CBD4603B090BD28C20000C56B0000D6
S11325B07164000000000840C52900007D5F000030
S11325C056B9C250025A7040F16C00006F8E750EFD
S11325D0EC527140210BAFE3A25A724064571520AC
S11325E0087273407B121E790A9A7440BCCA00D6E2
S11325F0A6D37540E90DCA27E91F7740FFAD474EC2
S1132600ED7F78408ED0910AE0F4794000807B40E1
S1132610A2C865C49E227D401A797F0022DE7E40D6
S113262080B586B000AFBA607B600F23FB18021C34
S11326301A700E23FB180A1C1A700E23FB181A7842
S11326400F23FB181B78110018001F4B9847031C1D
S11326507B611E4B796878699847031C1A1C1C4BD4
S1132660B968101C9847031E0DD01A4B7968786915
S11326709847031C1A1C184BB968101C9847031E72
S113268001D002231BE0114B796878699847031C39
S11326901A1C114BB968101C9847031E01D0012362
S11326A00DE00C4B796878699847031C1A1C084B99
S11326B0B968101C9847031E01D00323FFE71800D4
S11326C0BD4606B080BDC04679220000D14D000051
S11326D09D44000029450000C544000080B584B035
S11326E000AFF860B9607A600A4BF968B868984737
S11326F0031C1A1C084B0949101C9847031C1A1C7C
S1132700074B7968101C9847031C181CBD4604B07D
S113271080BDC046A94B0000154800000000C84217
S11327202945000080B500AF0E4B984701200E4BA1
S1132730984701200D4B98470D4B98470D4B9847F0
S113274001220C2100200C4B984701220D2100206E
S1132750094B984701220F210020074B9847C04698
S1132760BD4680BD39020000F1170000C906000013
S113277019040000291E0000E5140000454AF8B5BC
S1132780564692464B005B0D9A444D465F4644467E
S11327905246F0B4894605000C000E000700132AC7
S11327A022DC002A47DB52463B4B134198460B0080
S11327B042461340034311D0384A394B02F08EFC91
S11327C00022002301F044FE002805D0002C41DB48
S11327D04E46434600279E43380031003CBC904699
S11327E09946A246AB46F8BD5246332A08DD8023FB
S11327F0DB009A45F2D102000B0002F06FFCEDE71A
S1132800284A9446012263445242DA4093460242E3
S1132810E4D0224A224B02F061FC0022002301F0A2
S113282017FE0028D8D0002C1ADB5B464E469F4387
S113283038003100D2E7194A194B02F04FFC00224C
S1132840002301F005FE0028C6D0002C16DB00276B
S11328500026C1E7802352465B0313419944B7E73E
S11328605346142B12D03423524601279B1A9F40FF
S11328707F19AF429B415B429944D6E764006408E8
S113288025430027002DA7D0074EA5E7133B9C4600
S1132890E144CAE701FCFFFFFFFF0F009C750088BD
S11328A03CE4377EEDFBFFFF0000F0BFF0B5464689
S11328B04F46C0B48DB004000D0000F03FFA3C4B0D
S11328C006001B780F005BB29846013310D022003B
S11328D02B002000290004F01FF98146002807D1AD
S11328E0002200232000290001F0A8FD002806D1C1
S11328F0300039000DB00CBC90469946F0BD2D4B0C
S11329000494059503934B460A934346069407950E
S1132910002B1AD1E022284B1206089209932000BA
S113292000220023290001F079FD002838D0022379
S1132930029302A801F0D0F8002817D00A9B019353
S1132940002B18D108980999D4E700221B4B2000CA
S11329500892099329000022002301F05FFD00285A
S11329600FD0022302934346022BE2D104F06AFA09
S113297022230360E2E704F065FA0A9B01930360F3
S1132980E0E7012302934346022B0BD104F05AFAE9
S1132990212303600A4801F0A1F808900991CDE7CA
S11329A00123029302A801F097F80028F2D1EDE781
S11329B0200000205CC20000FFFFEFC70000F0FF12
S11329C058C50000F0B55F464D4656464446F0B43F
S11329D091B01F0004000D00160000F043FACF4B25
S11329E0029003919B461B785BB2994601334FD00A
S11329F032003B003000390004F08EF800900028CB
S1132A0046D122002B002000290004F085F8002282
S1132A108246002834D100232000290001F0FEFC66
S1132A2000283AD0002200233000390001F0F6FCDF
S1132A300590002800D174E006AB98460123424675
S1132A400693B74B5360434652469C60DD601A625E
S1132A501E615F614246002300249361D4614B46AA
S1132A60002B00D194E00023AE4C00930194009815
S1132A70019911B03CBC90469946A246AB46F0BDC4
S1132A8000233000390001F0C9FC002800D0EBE03D
S1132A90029B039C00930194E9E70298039901F0D7
S1132AA011F88146002800D186E00298039900229B
S1132AB0002301F0B3FC0028EAD02000290001F033
S1132AC001F8029A039B009201930028CFD03000B2
S1132AD0390000F0F7FF029A039B0092019300284B
S1132AE0C5D006AB98460423424606938C4B9460AB
S1132AF0D560536000230024136200239361D461E2
S1132B005B461B78166157615BB2022B04D04046CA
S1132B1000F0E2FF002840D104F094F9222303607E
S1132B203BE03000390000F0CDFF029A039B009295
S1132B30019300289BD0002200233000390001F0CB
S1132B4073FC002800D192E706AB98460123424665
S1132B500693734B53604346059A9C60DD601A628A
S1132B601E615F615B461B785BB2002B0BD00020BB
S1132B7042466D499061D161022B09D104F062F99A
S1132B802123036009E04246002300249361D461B9
S1132B90404600F0A1FF0028F0D043461B6A002BFA
S1132BA004D004F04FF943461B6A03604346DC69D2
S1132BB09B69009301945AE72000290000F082FFEA
S1132BC0002800D171E73000390000F07BFF0028B5
S1132BD000D16AE7029803990B00020003F09CFFFE
S1132BE006AB984600287AD10323424606934C4B01
S1132BF0106253605B461B789460D5605BB21661CB
S1132C0057619946002B48D1E0224146474B1206B2
S1132C108A61CB61200000220023290001F004FC1A
S1132C20002800D173E70022414B3000390003F043
S1132C30A5F904000D0000F057FF02000B0020006E
S1132C40290001F0EBFB002805D1E022394B1206E4
S1132C5041468A61CB615B461B785BB299464B4621
S1132C60022B00D053E757E706AB984601234246B0
S1132C7006932B4B536043469C60DD600024009A0E
S1132C80284D1A621E615F619C61DD614B460094B0
S1132C900195022B00D07BE7E9E600224146264B52
S1132CA020008A61CB6100220023290001F0BCFBD3
S1132CB00028D4D000221E4B3000390003F05EF906
S1132CC004000D0000F010FF02000B00200029009A
S1132CD001F0A4FB0028BED10022134BB8E7012366
S1132CE0424606930E4B536043464A469C60DD6061
S1132CF01A621E615F6100245B461C57002C00D1E0
S1132D0041E7002300221900100002F013FD43469E
S1132D109861D961022C00D130E739E72000002006
S1132D2064C200000000F03F0000F0FFFFFFEF4727
S1132D300000E03FFFFFEFC70000F07FF0B54F4613
S1132D404646C0B43B4A83B004000D000B1E9342B8
S1132D501CDC4A00520802435BD0002960DB0022DD
S1132D60354B03F00BF936220D000B0033490400F8
S1132D7052428B420EDD22002B002000290002F07B
S1132D80ADF903B00CBC90469946F0BD2B49002226
S1132D908B42F0DC2A4918158C4660448218D10F06
S1132DA089461B034A441B0B1000984603F00AFF94
S1132DB04A46244B06009B1A42461B051A430F0041
S1132DC02000110000F09AFF1F4A04000D001F4B61
S1132DD03000390003F0D2F81D4A009001911D4BD8
S1132DE02000290003F0CAF802000B0000980199A2
S1132DF002F074F9184A04000D00184B3000390031
S1132E0003F0BCF802000B002000290002F066F970
S1132E10B7E7002200230020114902F08BFCB0E741
S1132E2002000B0003F024FB0022002302F082FCCA
S1132E30A7E7C046FFFF0F0000005043FFFFEF7FEE
S1132E4001FCFFFFFF030000362BF111F3FE593D97
S1132E500EE526157BCBDB3F00609F501344D33F28
S1132E60000050C3F0B556464D4644465F46F0B4A4
S1132E701C001300670091B07F08009301940600C2
S1132E800D0080468946A2463B4332D06E4B6C000F
S1132E9064089C4229DC26D09F4226DC6A4B9F4270
S1132EA000D189E000239B464B46002B00DA87E0E3
S1132EB0002A2FD1644B9F4200D19FE0634B9F4275
S1132EC05DD08023DB059A4501D100F0C1FB604B46
S1132ED09A451FD14B46002B1CDB3000290000F023
S1132EE0F7FC060007E000280DD05A4BE0183043E9
S1132EF00BD100265549300011B03CBC9046994690
S1132F00A246AB46F0BDA742C8DD534800F0E6FD3B
S1132F100600F0E73000290000F0D0FD4346002B06
S1132F201DD0EB0F013B98465B464246134379D0D4
S1132F304A4B9F4200DC9FE0494B9F4201DC00F07A
S1132F40CEFB484B9C4279DD5346002B79DD464A43
S1132F50464B1000190003F011F80600CBE7002CD3
S1132F6004D03A4AAB009B089342DAD15346002B73
S1132F7000DAADE34B46002B0DDB0600BBE75346FE
S1132F802900002BB7DA32002B0000202F4902F071
S1132F90D1FB0600AFE72F4B9C465B4664441C43C1
S1132FA001D100F02BFC5B460600012BA3D180234A
S1132FB01B069C4661449EE7002A00D172E794E711
S1132FC02B4B9F422BDC274B9F4200DC70E72949A7
S1132FD03B158C466344142B01DC00F0F2FB3421D6
S1132FE0CB1A0099D94008009840824200D05FE78C
S1132FF00123194001335B1A9B4659E7154BE0182E
S1133000064300D175E7174B9C4200DC51E353465D
S1133010002B16DB009B019C1E0021006BE70223A2
S11330209B4645E732002B003000290003F020FACC
S113303002000B0002F07EFB06005CE75346002B07
S113304085DB0026002156E70000F07F0000F03FFA
S11330500000E03F000010C058C500000000E0413F
S11330600000F043FFFFEF3F9C7500883CE4377E8F
S1133070FFFF3F4301FCFFFFE84B00229C4206DCBC
S11330800022E74B02F07AFF35220C005242E54D54
S11330902315AC46634499462403E34DE34B240BC8
S11330A0914425439C4209DDE14B9C4200DCA9E3A9
S11330B001239C46DF4BE1449C46654400230024E5
S11330C00022089309940C930D940024D64B069285
S11330D00793069A079B29000A900B9103F0C8F9FD
S11330E0069A079B06000F000A980B9901F0F6FF59
S11330F002000B000020CC4902F01CFB0A00010076
S113310013000E910F9202003900300002F036FFD6
S11331100A000100802004910592130000228021FE
S11331200003844602920393002289056D100D4327
S113313065442B190298039914001D0002F01EFF28
S113314002000B003000390003F092F9069A079B45
S113315006000F002000290003F08AF902000B008A
S11331600A980B9903F084F9029A039B02F006FF74
S113317002000B003000390003F07AF90E9A0F9B1D
S113318002F0FCFE049D059E069007912A00330080
S11331902800310002F0F2FE06000F00A64AA74BF9
S11331A002F0ECFEA64AA74B01F098FF32003B0068
S11331B002F0E4FEA44AA54B01F090FF32003B006C
S11331C002F0DCFEA24AA34B01F088FF32003B0070
S11331D002F0D4FEA04AA14B01F080FF32003B0074
S11331E002F0CCFE9E4A9F4B01F078FF32000400AF
S11331F00D003B003000390002F0C0FE02000B005D
S11332002000290002F0BAFE029E039F04000D0074
S11332100498059932003B0001F060FF069A079B71
S113322002F0ACFE22002B0001F058FF32000A909D
S11332300B913B00300039000296039702F09EFE8A
S11332400022894B04000D0001F048FF0A9A0B9BF1
S113325001F044FF00260F0032000B00029803998E
S113326002F08CFE0022029003917F4B3000390063
S113327003F0FEF822002B0003F0FAF802000B0022
S11332800A980B9903F0F4F8049A059B02F076FE71
S1133290320004000D00069807993B0002F06EFE10
S11332A002000B002000290001F018FF04000D00AB
S11332B002000B000298039901F010FF0026E0229F
S11332C06A4B120630000F0002F058FE029A039B6C
S11332D0049005913000390003F0CAF802000B0095
S11332E02000290003F0C4F8614A604B02F046FE56
S11332F0604A04000D00604B3000390002F03EFECD
S113330002000B002000290001F0E8FE0C9A0D9B3E
S113331001F0E4FE060048460F0003F053FC0400ED
S11333200D000498059932003B0001F0D7FE089A7D
S1133330099B01F0D3FE22002B0001F0CFFE0020F8
S113334022002B000290039103F092F8089A099B43
S113335003F08EF8049A059B03F08AF802000B0030
S11333603000390003F084F8049005915B4642462E
S1133370013B134300D197E100232B4C06930794A0
S11333800098019900260B0032000F0003F070F83A
S1133390029A039B02F0F2FD009A019B04000D00C7
S11333A00498059902F0EAFD02000B0020002900B0
S11333B001F094FE04000D00029803993B003200D2
S11333C00494059502F0DAFD009001910B000200CF
S11333D02900200001F082FE284B81460F1E8A46F8
S11333E09F4200DC3CE1264BCB18034300D0DBE1D9
S11333F004980599234A244B01F070FE009A019B1E
S113340004000D004846390003F032F802000B00B6
S11334102000290001F01CF83E0037E0FFFF0F00F8
S11334200000404301FCFFFF0000F03F8E980300C2
S113343079B60B000000F0FFEF4E454A287ECA3FE4
S113344065DBC9934A86CD3F01411DA96074D13F14
S11334504D268F515555D53FFFAB6FDBB66DDB3F26
S1133460033333333333E33F0000084009C7EE3FEF
S1133470FD033ADCF5015B14E02F3EBEFFFF8F40F5
S1133480000070BFFE822B654715973C002800D0D2
S11334908AE18022E74B52039C46130036156644AA
S11334A03341E549DB195E001C001B038C461B0BF2
S11334B013431422760DE14F66443741961B334182
S11334C098465346BC4300202100002B00DAA9E1B2
S11334D002000B000098019902F0CAFF0B00009053
S11334E0019102000498059901F0F8FD43461B057B
S11334F0994600200022D24B06000F0002F03EFD48
S1133500009A019B029003913000390002F0B0FF51
S113351002000B000498059902F0AAFFC94ACA4B9D
S113352002F02CFDC94A04000D00C94B30003900DB
S113353002F024FD02000B002000290001F0CEFD62
S113354004000D0002000B000298039901F0C6FD6F
S1133550029A039B06000F0002F08AFF02000B0090
S11335602000290002F084FF3200009001913B000A
S11335703000390002F002FD04000D00B54AB64BDC
S113358002F0FCFCB54AB64B02F072FF22002B009D
S113359002F0F4FCB34AB44B01F0A0FD22002B006E
S11335A002F0ECFCB14AB24B02F062FF22002B00A5
S11335B002F0E4FCAF4AB04B01F090FD22002B0076
S11335C002F0DCFC02000B003000390002F050FF76
S11335D004000D0002000B003000390002F0CEFCA4
S11335E08023029003910022DB052000290002F0D1
S11335F03FFF02000B000298039902F09BF8009A27
S1133600019B04000D003000390002F0B7FC009A61
S1133610019B01F063FD02000B002000290002F071
S113362027FF32003B0002F023FF02000B000020C2
S1133630924902F01DFF4B465B181A15002A00DC64
S1133640F4E01900069A079B02F098FC060052E485
S1133650320030002B00290002F090FC06004AE4FE
S1133660874B4E0076089E4200DCBFE0854BCB18AA
S113367003430CD1009A019B02F0FAFE02000B00F6
S11336800498059900F0DAFE002800D101E70698B5
S113369007997D4A7D4B02F071FC7B4A7B4B02F01B
S11336A06DFC0600FFF727FC0023794C0693079472
S11336B066E65346002B00DBC3E4009B019C80229A
S11336C012061E009446230063441900FFF713FCFE
S11336D002000B000020694902F02CF84AE46D4B0B
S11336E09C4200DCAAE4654B9C4201DDFFF72CFC04
S11336F00022624B02F0BCFEC022674BD2050400DC
S11337000D0002F03BFC654A06000F00644B2000EC
S1133710290002F033FC002202900391614B200047
S1133720290002F02BFC02000B005F485F4902F005
S11337309FFE22002B0002F021FC02000B0000205F
S11337405B4902F095FE2200049005912B002000B5
S1133750290002F013FC02000B000498059902F002
S11337600DFC544A4C4B02F009FC02000B00029879
S1133770039902F07DFE02000B0004000D003000EE
S1133780390001F0ABFC002210003B003200029033
S1133790039102F06DFE02000B002000290002F0EC
S11337A067FE04900591E1E5434A444B0698079966
S11337B002F0E4FB404A414B02F0E0FB0600FFF755
S11337C09AFB002A01D0FFF7A5FB1432D31A3A0062
S11337D01A41110099408F4201D0FFF76FFB01237A
S11337E013400222D31A9B46FFF768FB304B9E42DC
S11337F000DD4EE60023994698467AE602000B0067
S1133800FFF714FC80232E4CDB05089309942D4B01
S11338102D4C00220C930D9480242C4BE402069230
S1133820079356E443465B42984651E6424600F00D
S1133830FDF907E702FCFFFF01FCFFFFFFFF0F009C
S1133840432EE63FEF39FAFE422EE63F396CA80CD0
S1133850615C20BED0A4BE726937663EF16BD2C5EE
S113386041BDBB3E2CDE25AF6A56113F93BDBE164B
S11338706CC1663F3E5555555555C53F0000F03F58
S1133880FFCB904000346F3F59F3F8C21F6EA5017F
S11338900000F0BFFEFFEF3F4715F73F44DF5DF840
S11338A00BAE543E0000D03F555555555555D53FA8
S11338B00000E03FFE822B659C7500883CE4377E67
S11338C003B8E23F06D0CF43EBFD4C3E0000F83F87
S11338D0F0B556464D4644465F46754BF0B40A0073
S11338E00D00190083B0060004002940994200D15C
S11338F0BAE0002D00DC94E02D1500D1A3E06D4B5F
S113390012039C468023120B5B0365441A43EB07A6
S113391000D581E06B109846E30F9B189B1880221A
S113392016210026002764009203B818984202DC8E
S113393087181B1AB618E00F5B0001391B186400C6
S113394052080029F1D100220192944680221206E5
S11339502020914609E09F4241D0E10FC918013867
S1133960CB186400520800281ED0614651189F42AB
S1133970F1DA8D18AC46CD0FED07BA464D4539D076
S1133980DB1B8C42BF417F42DB1B641A0199013867
S11339908B46934459460191E10FC9185746CB18F9
S11339A0640052080028E0D123432BD1019B5B081B
S11339B0414972108C466244F10702D58021090600
S11339C00B43414609058D181E002F0030003900B5
S11339D003B03CBC90469946A246AB46F0BDA1421A
S11339E00ED88D18AC46CD0FED074D4548D09A46FC
S11339F00023CAE76546002DC2DB7D1CAA46BFE74B
S1133A003B00AAE7019B01333ED0019A012394466F
S1133A10134063445B08CBE7E30F52009A18640039
S1133A2078E76B005B0803432F00002BCED0002502
S1133A30002A31D1E20A153D6405002AFAD0802318
S1133A405B031A4223D180200023400300E00B00D3
S1133A505200591C0242FAD02020401AED1A2300C9
S1133A60C3408C401A434AE702002B00290002F0AD
S1133A7085FA32002B0001F031FB06000F00A5E7A8
S1133A806546002DB9DAB2E70136002390E7012339
S1133A9020205B420021E1E73B000200390002F0F4
S1133AA0E7FC02000B0001F045FE06000F008DE765
S1133AB00000F07F01FCFFFF0000E03F49004B08DD
S1133AC019007047034B48009C4640086044C00FEF
S1133AD07047C04600001080002070470020014954
S1133AE07047C0460000F87FF0B5474680B4CB0F5E
S1133AF098464A4C4B005B0D1E1982B007000A0021
S1133B00132E35DC002E57DB454B040033411F00D8
S1133B100F4007430D00002F24D05B081C000C400D
S1133B2020430027002807D0132E00D172E0802202
S1133B30D202324199430A434346DE00394B110015
S1133B409E1934687568380022002B0001F0C6FA0B
S1133B50009001910098019922002B0002F088FC4A
S1133B6004000D002000290002B004BC9046F0BD02
S1133B70332E0CDD802304000D00DB009E42F1D1C6
S1133B8002000B0001F0AAFA04000D00EAE7264C3B
S1133B900D00A446012463446442DC40A44661460B
S1133BA004000142DED049080142C5D08027FF0548
S1133BB01F4188430743BFE74B005B0803430400EE
S1133BC00D00002BCED00B031B0B03435A421343AF
S1133BD080221B0B120313404A0C52041343190096
S1133BE04346104ADB00D3181C685D6822002B0092
S1133BF001F074FA009001910098019922002B00C1
S1133C0002F036FC42464B005B08D60733430400FF
S1133C101D00A7E780273F0689E7C04601FCFFFF98
S1133C20FFFF0F0068C20000EDFBFFFF4B0070B503
S1133C305B0D14000A00002B1AD14B005B080343F0
S1133C4015D00022224B02F099F9224B0A009C4223
S1133C5022DB4B005B0D363B1F4DE318AB4220DCEF
S1133C60002B0DDD1D4C1B0522401A43110070BDB5
S1133C701B4DAB42F0D102000B0001F02FFAF6E726
S1133C801D00353518DA174B02009C420ADC0B0084
S1133C901548164900F034FA134A144B02F06EF931
S1133CA0E5E702000B001248124900F029FA104A15
S1133CB0104B02F063F9DAE7084C363322401B0557
S1133CC01343190000220C4B02F058F9CFE7C04609
S1133CD000005043B03CFFFFFE070000FFFF0F80D1
S1133CE0FF07000050C3000059F3F8C21F6EA5017E
S1133CF09C7500883CE4377E0000903CF0B5574644
S1133D004E464546E0B4DA4A88B00B1E934255DC71
S1133D104A005208024300D1EFE0002900DA79E1B9
S1133D20D44B002202F02AF93625D34C0B006D4205
S1133D30A34247DC1A151B031B0B9846CF4C802368
S1133D40A446CF4C5B0344442340CE4C62445219F6
S1133D505C4045461B1599462543CA4B29009144AE
S1133D60002202F085FB434602331B0306000F00CA
S1133D701B0B0022022B2FDC002300F04FFB00283A
S1133D8000D1C1E04B46002B00D14CE1484602F083
S1133D9019FFBD4ABD4B04000D0002F0EFF8BC4A08
S1133DA006000F00BB4B2000290002F0E7F80200D8
S1133DB00B003000390001F091F907E0AE4C00250A
S1133DC0A342B7DD02000B0001F088F908B01CBC67
S1133DD090469946A246F0BD8023DB0501F07EF9AA
S1133DE002000B003000390001F0A4FC0400484636
S1133DF00D0002F0E7FE2200029003912B00200048
S1133E0029000494059502F0B9F804000D00A24BB2
S1133E10020043449A460B000094019502F0AEF868
S1133E2004000D009D4A9E4B02F0A8F89D4A9E4B4B
S1133E3001F054F922002B0002F0A0F89B4A9C4B9D
S1133E4001F04CF922002B0002F098F8994A9A4BA1
S1133E5001F044F9009A019B02F090F8974A00900F
S1133E600191974B2000290002F088F8954A964B5F
S1133E7001F034F922002B0002F080F8934A944BAD
S1133E8001F02CF922002B0002F078F80B0002005C
S1133E900098019901F022F90D0041468D4B040070
S1133EA05B1A51460B43002B54DD00228A4B300031
S1133EB0390002F063F832003B0002F05FF84B4631
S1133EC00A00010000910192002B72D11300290015
S1133ED00200200001F002F9049A059B02F04EF85A
S1133EE002000B000098019902F0C2FA02000B00D4
S1133EF03000390002F0BCFA68E7002200230020F9
S1133F00764901F017FC61E7754A764B30003900B9
S1133F1002F034F802000B0000206F4902F0A8FA06
S1133F20320004000D003B003000390002F026F896
S1133F300B0002002900200002F020F84B46040088
S1133F400D00002B72D102000B003000390002F08A
S1133F508FFA3BE74B46002B00D1C5E0029803994A
S1133F60494A4A4B02F00AF82200009001912B00C2
S1133F703000390002F07CFA049A059B01F0FEFF40
S1133F80434A04000D0002980399424B01F0F6FFE6
S1133F9002000B002000290002F06AFA32003B0004
S1133FA002F066FA02000B000098019902F060FA30
S1133FB00CE7354A354B0298039901F0DFFF009A6C
S1133FC0019B069007912000290001F087F8049ACC
S1133FD0059B01F0D3FF2E4A04000D0002980399BB
S1133FE02C4B01F0CBFF02000B002000290001F054
S1133FF075F802000B000098019902F039FA3200BA
S11340003B0002F035FA02000B000698079902F013
S11340102FFADBE602000B0002F02AFA002200234A
S113402001F088FBD2E600200021CFE6484602F0EA
S1134030C9FD154A154B0090019101F09FFF144AE8
S11340400290039100980199124B01F097FF02002E
S11340500B002000290002F00BFA32003B0002F0B2
S113406007FA02000B000298039902F001FAADE688
S1134070FFFF0F0000005043FFFFEF7F01FCFFFF35
S1134080645F09000000F03F0000E0FE422EE63FBE
S1134090763C7935EF39EA3D86EBF9FF44523EDF51
S11340A012F1C23FDE03CB966446C73F5993229474
S11340B02449D23F935555555555E53F9FC678D071
S11340C0099AC33FAF788E1DC571CC3F04FA979906
S11340D09999D93F51B806000000E03F000050C351
S11340E0555555555555D53F22002B003000390004
S11340F002F0BEF9049A059B01F040FFF6E6C046C3
S113410030B54A00DB0FDB0752081A43110030BDFB
S1134110002243088B4274D303098B425FD3030A02
S11341208B4244D3030B8B4228D3030C8B420DD315
S1134130FF22090212BA030C8B4202D312120902A3
S113414065D0030B8B4219D300E0090AC30B8B42E1
S113415001D3CB03C01A5241830B8B4201D38B038F
S1134160C01A5241430B8B4201D34B03C01A524134
S1134170030B8B4201D30B03C01A5241C30A8B4277
S113418001D3CB02C01A5241830A8B4201D38B0262
S1134190C01A5241430A8B4201D34B02C01A524106
S11341A0030A8B4201D30B02C01A5241CDD2C30978
S11341B08B4201D3CB01C01A524183098B4201D3F4
S11341C08B01C01A524143098B4201D34B01C01ADF
S11341D0524103098B4201D30B01C01A5241C30857
S11341E08B4201D3CB00C01A524183088B4201D3C6
S11341F08B00C01A524143088B4201D34B00C01AB2
S11342005241411A00D20146524110467047FFE71D
S113421001B5002000F0F0F802BDC0460029F7D037
S113422076E7704703460B437FD4002243088B4252
S113423074D303098B425FD3030A8B4244D3030B29
S11342408B4228D3030C8B420DD3FF22090212BAEE
S1134250030C8B4202D31212090265D0030B8B426A
S113426019D300E0090AC30B8B4201D3CB03C01A54
S11342705241830B8B4201D38B03C01A5241430B2F
S11342808B4201D34B03C01A5241030B8B4201D31F
S11342900B03C01A5241C30A8B4201D3CB02C01A8A
S11342A05241830A8B4201D38B02C01A5241430A02
S11342B08B4201D34B02C01A5241030A8B4201D3F1
S11342C00B02C01A5241CDD2C3098B4201D3CB0198
S11342D0C01A524183098B4201D38B01C01A524147
S11342E043098B4201D34B01C01A524103098B424B
S11342F001D30B01C01A5241C3088B4201D3CB0036
S1134300C01A524183088B4201D38B00C01A524118
S113431043088B4201D34B00C01A5241411A00D2C8
S113432001465241104670475DE0CA0F00D0494231
S1134330031000D34042534000229C4603098B42A1
S11343402DD3030A8B4212D3FC22890112BA030A29
S11343508B420CD3890192118B4208D389019211AB
S11343608B4204D389013AD0921100E08909C30930
S11343708B4201D3CB01C01A524183098B4201D332
S11343808B01C01A524143098B4201D34B01C01A1D
S1134390524103098B4201D30B01C01A5241C30895
S11343A08B4201D3CB00C01A524183088B4201D304
S11343B08B00C01A5241D9D243088B4201D34B001F
S11343C0C01A5241411A00D20146634652415B1061
S11343D0104601D34042002B00D549427047634642
S11343E05B1000D3404201B5002000F005F802BD87
S11343F00029F8D016E770477047C0468446101C61
S113440062468C46191C634600E0C0461FB501F0A5
S11344104BFD002801D40021C8421FBD10B501F096
S11344209FFC4042013010BD10B501F03DFD002855
S113443001DB002010BD012010BDC04610B501F005
S113444033FD002801DD002010BD012010BDC04651
S113445010B501F0C5FC002801DC002010BD0120CE
S113446010BDC04610B501F0BBFC002801DA0020E5
S113447010BD012010BDC0468446081C6146FFE7FC
S11344801FB500F04DFB002801D40021C8421FBD18
S113449010B500F0D9FA4042013010BD10B500F05B
S11344A03FFB002801DB002010BD012010BDC046E9
S11344B010B500F035FB002801DD002010BD0120FF
S11344C010BDC04610B500F0E7FA002801DC00205A
S11344D010BD012010BDC04610B500F0DDFA002863
S11344E001DA002010BD012010BDC04670B50022C5
S11344F00C4B04000D00FFF7B5FF002804D1200089
S1134500290002F029FB70BD064B0022200029007F
S113451001F0AEFF02F020FB80231B069C466044A2
S1134520F1E7C0460000E041F8B54A024302440006
S11345304E00C50F240E28009B09360EC90F9209A0
S11345408D4259D0A01B002800DC8DE0002E1AD12A
S1134550002A00D079E05A0704D00F221A40042A16
S113456000D004335A0138D50134FF2C00D189E03E
S113457028009B015B0AE4B25B02E4055B0A234367
S1134580C0071843F8BDFF2CE5D08021C9040A43B5
S11345901B2800DD89E016002021C640081A82404D
S11345A0511E8A4132439B1A5A0114D59B019E091C
S11345B0300002F029FC05388640844265DC041B87
S11345C0330020200134E340041BA640721E9641B0
S11345D000243343BFE75A07BFD1DF082800FF2C6C
S11345E02FD1002F00D187E08022D20313003B4358
S11345F05B025B0AFF24BFE7A11B002949DD002EF3
S113460029D0FF2CA7D08026F60432431B2900DDD5
S11346108DE017002026CF40711A8A40511E8A412E
S11346203A439B185A01D6D50134FF2C64D0012299
S113463076491A405B080B4013438CE7031ECAD12A
S113464000207B025B0AE4B296E701380028AAD076
S1134650FF2C9DD17FE7002A00D17CE70139002996
S1134660DFD0FF2CD2D176E7002820D1601CC0B265
S1134670012853DD80279E1AFF0437402FD0D61A15
S11346800D0095E72800002376E7614B241A334098
S113469061E700294DD1611CCEB2012E2FDDFF2927
S11346A02AD09B185B080C0055E701227BE7002CFD
S11346B01BD1002B5BD0C04300280CD0FF2E7ED032
S11346C01B2800DD92E01D002024C540201A8340F1
S11346D0581E83412B43D31A34000D0064E7002E87
S11346E000D065E700200024ABE7FF2E67D08024CC
S11346F0E40440422343E3E7FF2400233CE7002C87
S113470061D1002B7ED0002A00D124E79B185A01E6
S113471000D460E73E4A0C0013401CE7002C1ED175
S1134720002B2FD1002A66D013000D0013E70122BD
S113473077E7002C1FD1002B5AD0C94300290BD096
S1134740FF2E50D01B295FDC1F002024CF40611AAC
S11347508B40591E8B413B439B18340062E7002B6E
S11347601CD1002A4AD013000D00FF24F3E61300E5
S113477034000D00EFE6FF2E35D08024E4044942D6
S11347802343DFE7002A00D1E5E68027981AFF04D7
S1134790074000D152E7D31A0D00DCE6FF24002ABB
S11347A000D1D8E68020DB08C003034204D0D2083D
S11347B0024201D113000D00DB00FF24CBE61300FD
S11347C0FF240D00C7E6002B0DD0FF24002A00D1E2
S11347D0C1E68021DB08C9030B42EDD0D2080A42AE
S11347E0EAD11300E8E71300FF24B4E6012372E7DB
S11347F013003400AFE60027002022E780270020C2
S1134800FF03F1E61300A6E60123A5E7FFFFFF7D02
S1134810FFFFFFFBF0B5564644465F464D46F0B4F5
S113482044024600C70F83B08846650A360EBA466E
S11348303DD0FF2E22D00023EC00802599469B46D4
S1134840ED0425437F3E43465C025800DB0F640AB7
S1134850000E984636D0FF2830D080230021E40093
S1134860DB041C437F38301A019048464246084313
S1134870724E800030587A4013008746002D44D190
S113488008239946063B9B46DDE70122FF200024CE
S11348901A406402C305640AD2071C43144320006F
S11348A003B03CBC90469946A246AB46F0BD002DF1
S11348B020D104239946033B9B46C4E7002C17D11F
S11348C0022102E0002C0AD10121321A01924A4647
S11348D043460A435A48920082587B409746200038
S11348E002F092FA431F76309C4040420021BAE71E
S11348F00321B8E7280002F087FA431F9D400023F4
S11349007630464299469B469DE70C239946093BDF
S11349109B4698E780240022E403FF20B9E70024A3
S1134920C2468B465A465346022AAED0032A7DD04D
S1134930012A31D1012200201A400024A9E70122D2
S1134940101A1B2856DD1A4000200024A1E78023FA
S1134950DB031D424BD18023DB032B435C02640A3F
S11349603A00FF2095E76D016001854230D2019A3B
S11349700024013A01921B220127290064006D00E2
S1134980002901DBA84201D82D1A3C43013A002A30
S1134990F3D16A1E95412C4301987F300028CEDD67
S11349A0620704D00F222240042A00D004342201DA
S11349B003D5244A019814408030FE2800DD64E7C2
S11349C00122A401640AC0B21A4062E72C00A9E7DC
S11349D02D1A1A220124CFE76B02BCD500248023B0
S11349E0DB031C436402640A4246FF2051E71C4275
S11349F0B3D1F4E721002022C140101A8440621E82
S1134A0094410C43620704D00F222240042A00D0B0
S1134A100434620104D5012201201A40002438E73D
S1134A200122A401640A1A40002032E78023DB0338
S1134A301C436402640A5246FF202AE778C200003D
S1134A40B8C20000FFFFFFF7430270B542004C00FC
S1134A505D0AC30F4802120E460A240EC90FFF2A2C
S1134A600FD0FF2C11D00120A24200D070BDB5425E
S1134A70FCD18B420DD0002AF8D12800431E984166
S1134A80F4E70120002DF1D1EBE70120002EEDD158
S1134A90E9E70020EAE7C0464302F0B542005D0AB8
S1134AA0C30F4802440A4800120E000EC90FFF2A21
S1134AB01FD0FF2822D0002A09D16E426E4100285F
S1134AC00FD1002C0DD10020002D09D005E00028C5
S1134AD001D1002C01D08B4213D05842012318433A
S1134AE0F0BD002EF7D0484241410120494208431D
S1134AF0F6E7002DDDD002204042F1E7002CDAD0A9
S1134B00F9E78242E9DC04DBA542E6D80020A542AD
S1134B10E6D25842434101205B421843E0E7C046D5
S1134B204302F0B542004C005E0AC30F4802120E65
S1134B30450A240EC90FFF2A17D0FF2C19D0002ACA
S1134B400BD170427041002C17D0002807D0484286
S1134B504141012049420843F0BD002C13D08B424F
S1134B6014D0584201231843F6E70220002EF3D153
S1134B70E3E70220002DEFD1E1E7002DE5D100208D
S1134B80002EE9D0EDE7002DE9D1EAE7A242E8DC06
S1134B9004DBAE42E5D80020AE42DDD258424341A8
S1134BA001205B421843D7E7F0B557464E464546C9
S1134BB04300E0B446028846760A1F0EC40F002F55
S1134BC047D0FF2F25D0002380259A469946F6002A
S1134BD0ED042E437F3F434642465D02D20F5B0005
S1134BE06D0A1B0E904640D0FF2B39D08022002046
S1134BF0ED00D20415437F3BFB1842465746591C2F
S1134C0062408C4607430F2F5CD86F49BF00C959D7
S1134C108F46002E45D108239A46063B9946DAE78B
S1134C20424602282DD0032800D1C3E0012800D039
S1134C30A2E0002500260240D4B27602ED05760AF1
S1134C402E43E407264330001CBC90469946A246F6
S1134C50F0BD002E1AD104239A46033B9946BAE7C5
S1134C602A00511E8A41901CC6E70120002DC3D0A2
S1134C70280002F0C9F8431F76309D4043420020CB
S1134C80BAE70124FF2514400026D6E7300002F0DD
S1134C90BBF8431F9E400023763047429A4699460C
S1134CA099E70C239A46093B994694E78026002409
S1134CB0F603FF25C1E735004846B2E73500220078
S1134CC04846AEE72904090C0800370C3604360CB4
S1134CD02C0C7943704367437443060C64183619EB
S1134CE0B14203D980214902884647440004000C9C
S1134CF0310409188D01681E8541890E2943350C3C
S1134D00ED19AD010D43290104D5012369081D40A6
S1134D1063460D4319007F31002925DD680704D05F
S1134D200F202840042800D00435280103D5274942
S1134D3080330D401900FE29A3DC0124AD016E0A65
S1134D401440CDB279E78020C003064207D0054263
S1134D5005D128434602760A4446FF256DE70643FB
S1134D607602760AFF2568E70124611A1B2905DD0E
S1134D7014400025002660E76346CBE72E0020237D
S1134D80CE40591A8D406B1E9D412E43730704D0AB
S1134D900F233340042B00D00436730104D50124BF
S1134DA001251440002648E70124B601760A144080
S1134DB0002542E780260124F6032E437602760A74
S1134DC01440FF2539E7C046F8C20000FFFFFFF793
S1134DD0F8B54A024E0043024400240EC50F9B0955
S1134DE0360EC90F9209FF2E00D183E00120414005
S1134DF0A01BA9425CD0002800DC95E0002E1CD149
S1134E00002A00D081E05A0704D00F221A40042A55
S1134E1000D004335A013BD50134FF2C00D191E07A
S1134E2001209B015B0AE4B205405B02E4055B0AD6
S1134E30ED0723432B431800F8BDFF2CE3D080215A
S1134E40C9040A431B2800DD90E016002021C64057
S1134E50081A8240511E8A4132439B1A5A0115D5C1
S1134E609B019E09300001F0CFFF05388640844243
S1134E706CDC041B330020200134E340041BA640F7
S1134E80721E964100243343BDE70D005A07BCD17E
S1134E90DF0801231D40FF2C33D1002F00D190E007
S1134EA08022D20313003B435B025B0AFF24BCE76E
S1134EB000284FDD002E2ED0FF2CA4D08025ED0439
S1134EC02A431B2800DD97E016002025C640281A37
S1134ED08240501E824132439B185A01D5D5013479
S1134EE0FF2C6DD001227B481A405B08034013431A
S1134EF00D0088E7002A00D07AE777E7031EC5D1C2
S1134F0000257B025B0AE4B28FE701380028A4D0B5
S1134F10FF2C97D177E7002A00D174E701380028E5
S1134F20DAD0FF2CCDD16EE7002821D1601CC0B2AD
S1134F30012858DD80279E1AFF0437402FD0D61A47
S1134F400D008FE701231D4000236EE7624B241AF6
S1134F50334058E7002851D1601CC6B2012E33DD1E
S1134F60FF282DD09B185B0804004CE7012274E74E
S1134F70002C1AD0FF2E1FD08024E4044042234387
S1134F801B2800DD96E01D002024C540201A834024
S1134F90581E83412B43D31A34000D005EE7002EC4
S1134FA000D05FE700250024ABE7002B44D0C043CA
S1134FB00028F0D0FF2EE3D11300FF240D0022E7D8
S1134FC00D00FF24002330E7002C5DD1002B7DD0A1
S1134FD0002A00D117E79B185A0100D456E73E4A2D
S1134FE0040013400FE7002C1ED1002B2FD1002A00
S1134FF065D013000D0006E701226DE7002C1FD1D8
S1135000002B59D0C04300280BD0FF2E4FD01B28B3
S11350105EDC1D002024C540201A8340581E8341B5
S11350202B439B18340058E7002B1CD1002A49D08D
S113503013000D00FF24E6E6130034000D00E2E641
S1135040FF2E34D08024E40440422343DFE7002AC7
S113505000D1D8E68027981AFF04074000D14DE715
S1135060D31A0D00CFE6FF24002A00D1CBE680201E
S1135070DB08C003034204D0D208024201D113006A
S11350800D00DB00FF24BEE6002B10D0FF24002A15
S113509000D1B8E68020DB08C003034203D0D20865
S11350A0024200D11300DB000D00FF24ABE6130025
S11350B0FF24A8E601236EE713003400A3E60027CB
S11350C000251EE780270025FF03E9E613009AE682
S11350D00123A6E7FFFFFF7DFFFFFFFBF8B5564660
S11350E05F464D464446F0B40F00FD0FAA4609033F
S11350F07C002E005F00450F490A7F0D2943C5003F
S11351001803BC46400A570F640DDB0F3843D20026
S11351109A4500D1AAE06646A61B002E00DCFFE0FB
S11351206346002B39D10300134300D0D9E06B0749
S113513009D00F232B40042B05D02B1DAB42AD41CE
S11351406D4249191D000B0200D482E0CA4B0134A0
S11351509C4200D1FEE00A005646C84BED081A40B6
S11351605007640552020543120B640D002112031B
S11351700B0D1B056405120B1A436308C04CF6079C
S113518014401C43640064083443280021003CBCE0
S113519090469946A246AB46F8BDB74B9C42C6D052
S11351A080231B041843382E00DDEBE01F2E00DDA6
S11351B01EE120239B1B9C4603006746BB40984688
S11351C013004746F3403B436746BA40571EBA4173
S11351D013430200F240EB1A9D42B6411D008A1AA5
S11351E07642911B0B0231D54A02560A002E00D199
S11351F0B4E0300001F008FE0300083B1F2B00DD83
S1135200B5E020222900D21AD1409E400A009D40D8
S113521032439C4200DDB1E01C1B631C1F2B00DDEC
S1135220D5E0202114002800C91A8C40D8408D40B4
S11352300443DA40681E854111002543002476E7C3
S11352404146314300D134E2310045466B0700D07A
S11352506FE756464807ED08C9080543864B9C424C
S113526035D00A036405120B640D7FE76346E31A25
S11352709B46002B00DC8BE06746002F3CD07E4F22
S1135280BC4200D153E780273F0438435B46382BA8
S113529000DCF7E00243501E82410020D2B25319D1
S11352A04218AB4289411D00494289180B02CDD5F1
S11352B0714B01349C4200D13DE101206F4A6B08DF
S11352C00A4028401843D507054351082FE72B000F
S11352D00B4300D1CBE180231B030B431A03120BB6
S11352E044E7013E002E6DD1AE1AB5429B41091A26
S11352F05B42C91A350075E70700174300D116E76A
S113530001235B429C46E3445B46002B00D0E0E073
S1135310AA18AA429B4109185B4259181500C5E70F
S1135320002E75D1661C7605760D012E00DCF3E0A7
S1135330AE1AB0464545BF410E1A7F42F61B3702EE
S113534000D48FE0551BAA42B641411A76428E1B07
S11353509A464BE756460022002507E7280001F04D
S113536053FD20300300083B1F2B00DC49E72A00D3
S11353702838824000259C4200DC4DE73F49E41A6E
S11353801140D4E60243501E8241D3B2002222E7E8
S1135390002B00D0F3E0631C9C465B055B0D012BE6
S11353A000DC9FE0344B9C4500D1C3E0AA180918E7
S11353B0AA42804140424118CD075208154349088A
S11353C06446B4E62C4B9C4200D0ECE6AFE61100F8
S11353D01F3CE1400C00202B00D17FE04021CB1A80
S11353E09A4015436A1E95410021254300242DE768
S11353F033000700203BDF403B00202E70D04027C5
S1135400BE1BB0400243501E824113430022E2E619
S1135410002C4FD0184CA44500D1ABE080242404C8
S113542076422143382E00DDDFE01F2E00DD43E10C
S11354302027BC1BA1460C004F46BC40A0462C00B4
S11354404746F4403C434F46BD406F1EBD41F140CA
S11354502C43151BAA429241411A5242891A6446AE
S11354609A46BFE641464546314300D0BEE6002693
S113547000240025F2E6C046FF070000FFFF7FFF7F
S1135480FFFF0F801F2B59DC2027FF1ABC460700A3
S113549063469F405B46B9461700DF40B8464F4617
S11354A043461F4363469A40531E9A415B463A4320
S11354B0D840F4E60C002C435CD0F643002E55D1C2
S11354C0551BAA42A441411A6442091B9A466446E8
S11354D088E6964FBC4200D0D8E628E6002280E752
S11354E000208FE70B002B43002C00D0C2E0002BE0
S11354F000D101E10300134300D118E6AB18AB421D
S1135500B6410918764271180A0200D409E1884AA2
S11355101D00114064460AE6002C5BD10E002E43A8
S113552000D08AE00100114300D1C2E0010015005F
S11355309A46FCE56446002100258FE620235B4261
S11355409C46DC4463460700DF405B46BC46202B98
S113555000D1ACE040235F46DB1B98400243501E61
S11355608241634613431A00002098E66F4CA44519
S113557000D057E70100150064469A46D7E5002C91
S113558039D10C002C436ED0DB43002B1AD0674C6E
S1135590A44568D0382B00DDA4E01F2B00DDAEE06D
S11355A020240F00E41AA740B9462F00DF40B84674
S11355B0A3464F46444627435C46A5406C1EA5417E
S11355C0D9403D43AD1895429B4109185B42591897
S11355D064466BE60C002C4315D1010011437BD0CB
S11355E0010015009A46514CA1E50D43691E8D41F9
S11355F00021ECB22DE74D4CA44534D08024240482
S11356005B422143C6E7040014434ED0ED084C0727
S11356102C438025C9082D03294208D0C6082E42F0
S113562005D1D208410711430C009A463100620F9C
S1135630C900E50011433D4C79E50600164300D14D
S113564075E5AE1AB0464545BF410E1A7F42F61BBA
S1135650370200D4F4E5551BAA42B641411A7642FA
S1135660891B9A4663E50100150064465FE5002244
S113567000257BE5002B3BD00300134315D0ED0838
S11356804B072B438025C9082D03294207D0C408A2
S11356902C4204D141070B002100D2081343C90056
S11356A05A0F1143DD00214C41E5204C3FE5002019
S11356B054E700260025D1E534000F00203CE740E4
S11356C03C00202E2BD04027BE1BB1400D43691E49
S11356D08D4100212C43BCE6802100260903134C94
S11356E00025BBE50D43691E8D410021EDB269E73C
S11356F0010015000D4C1AE50100150017E51C000A
S11357000F00203CE7403C00202B0CD04027FB1A24
S113571099400D43691E8D410021254352E7002124
S1135720D4E71D0092E50021F3E7C046FF0700001F
S1135730FFFF7FFFF0B556464D4644465F46F0B442
S11357401D000E034C00CB0F87B007009246814624
S1135750360B640D98466AD06D4B9C4235D080223E
S1135760430F12041343F6001E43C3009946694BCA
S113577000279C460023644402932B0368001B0B00
S1135780ED0F51469B46400D009500D178E0604BEB
S113579098426CD05B46DA004B0F802109040B431E
S11357A013439B465346D9005A4B9C4600236044FE
S11357B04246201A6A40924601901F430F2F00D997
S11357C0B0E05548BF00C0598746374300D088E051
S11357D0002399460233082700260293CDE7434667
S11357E0B34649460093029B009A9246022B00D08E
S11357F0BFE1002153460122002689461A40444B4A
S1135800002136030C0D2405360B2643434C1B059F
S113581026401E437600D2077608164348463100D8
S113582007B03CBC90469946A246AB46F0BD330057
S113583003434FD0002E00D1BCE1300001F0E4FA64
S113584003000B3B1C2B00DDADE11D220100D31A2C
S113585008393A008F408E40DA40B9461643304B3F
S113586000279C46002360444442029385E7534644
S11358705A4613432CD1002300219B46023397E759
S11358800B4320D05B46002B00D19EE1584601F02B
S1135890BBFA03000B3B1C2B00DD8FE102005946D1
S11358A0083A91408B461D21CB1A5146D9400B0032
S11358B059460B4351469B469140194B9C466044C4
S11358C04042002374E7002300219B4601336FE725
S11358D003236DE70023994601330427002602932E
S11358E04BE703230C27029347E70122D51A382DEF
S11358F000DCB0E153461A4000210023002689460B
S11359007EE700238026994600223603004B77E782
S1135910FF07000001FCFFFF38C30000FFFF0F80FA
S1135920F30300005E4500D972E100D16DE1019BF3
S11359304D46013B01930023340002935B461E0253
S11359400B0E1E430B020393330C994633041B0CBA
S1135950494620000093FEF7DBFB009B37004343DE
S11359600600494620009846FEF758FC2C0C090412
S11359700C43A04509D9E419731EA74200D95CE180
S1135980A04500D859E1023EE4194346E41A4946C9
S11359902000FEF7BDFB0300009A804653434946AE
S11359A020009B46FEF73AFC2A040904120C0A4321
S11359B093450DD94346D219013B974200D93AE1A8
S11359C0934500D837E102235B429C46D219E04458
S11359D05B46D21A4346360433439B460399180C5C
S11359E00B0C1D00059309045B46090C0C001B04F9
S11359F01B0C4443049159436B4368431B190D0C1E
S1135A00EB189C4203D980246402A44660441C0C15
S1135A1009041B04090C20185D18824200D2DEE040
S1135A2000D1D7E0161A029B9C465D1BAC459B41F6
S1135A305B42F61AB74200D106E149463000FEF750
S1135A4067FB009B04004343494630009846FEF739
S1135A50E5FB2E0C09040E43B04509D9F619631E63
S1135A60B74200D9F3E0B04500D8F0E0023CF619A3
S1135A704346F31A494618000293FEF749FB009B7C
S1135A8006004343494602989846FEF7C7FB2D0497
S1135A9009042D0C0D43A84509D9ED19731EAF4215
S1135AA000D9D6E0A84500D8D3E0023EED1924047D
S1135AB0210043463143049E059A3000ED1A0B043D
S1135AC00C0C1B0C58436643534354439A19030C60
S1135AD09B189E4203D980225202944664441A0CB5
S1135AE000041B04000C14191B18A54250D34DD0FC
S1135AF001231943964A019B94466344002B00DC1E
S1135B00F3E64A0709D00F220A40042A05D00A1DE9
S1135B108A42894149428B4411005A46D20108D530
S1135B205A468C4B1A4093468022D2009446019BDD
S1135B306344894A934200DD5BE65A46C90850072C
S1135B4008435602514601225B058146360B5B0D24
S1135B500A4055E680231B031E4211D05A461A42BE
S1135B600ED15E461E433603360B2A0089467B4B14
S1135B7046E6032B00D1E1E0012BBBD11A40BBE682
S1135B801E433603360B4246744B39E6002BB1D024
S1135B907D194A1EAF4252D91100A542A8D1039AD9
S1135BA09A42A5D1A6E703003E00283B9E4000236D
S1135BB0994654E601F028F9203041E603005246A4
S1135BC0283B9A400021934677E6504601F01CF9A1
S1135BD020305EE6029B0026AB4200D323E7039EFF
S1135BE00299B44661448846B045B6415B46764264
S1135BF0F619B218013B0291974213D290424FD842
S1135C0000D18EE0161A9B460DE7894500D28EE638
S1135C1074084B46F60735005B081D434B46DB070B
S1135C2002938BE69742EDD10399029CA142E5D9F8
S1135C303E1A9B46F7E69846CAE61E00A5E6AC4225
S1135C403ED874D0110053E70121494252E71C00A9
S1135C500EE71E002BE71F2D3CDC20230A005846CC
S1135C605B1B9840EA4099400243481E81415E46CE
S1135C701143EE404B0709D00F230B40042B05D0F2
S1135C800B00191D99429B415B42F61833023CD527
S1135C905346012200211A40002601238946AFE51C
S1135CA002235B429C46039CE344A446029B634458
S1135CB09846A045B6417642F6190293B218B1E669
S1135CC003988A1E41008142B6417642F619AD1905
S1135CD0039161E71F225242D31A5A46DA40130055
S1135CE0202D29D040225846551BA8400143481E68
