S010000054502D696E666F322E7372656365
S1130000500C0020150100000D0200000D0200003C
S113001000000000000000000000000000000000DC
S11300200000000000000000000000000D020000BD
S113003000000000000000000D0200000D0200009E
S11300400D0200000D0200000D0200000D02000070
S11300500D0200000D0200000D0200000D02000060
S11300600D0200000D0200000D0200000D02000050
S11300700D02000000000000000000000D0200005E
S11300800D0200000D0200000D0200000D02000030
S11300900D02000000000000000000000D0200003E
S11300A00D0200000D0200000D0200000D02000010
S11300B00000000010B5064C2378002B07D1054B37
S11300C0002B02D0044800E000BF0123237010BDC0
S11300D030040020000000007C07000008B5084B35
S11300E0002B03D00748084900E000BF0748036815
S11300F0002B00D108BD064B002BFBD09847F9E735
S1130100000000007C070000340400207C0700008D
S11301100000000080B582B000AF2F4B7B602F4BF6
S11301203B607A683B689A420CD007E03B681A1D32
S11301303A607A68111D796012681A603A68284B2F
S11301409A42F3D3274B3B6004E03B681A1D3A60A4
S113015000221A603A68244B9A42F6D3234B7B6000
S1130160234B7A68FF218A439A60224A90235B00DA
S11301700221D150204BDA7803218A43111C022238
S11301800A43DA701C4BDA780C218A43111C0822CA
S11301900A43DA70194B9A7B30218A43111C2022BE
S11301A00A439A73154B9A7B0C218A43111C08222B
S11301B00A439A73114B9A7B03218A43111C02222E
S11301C00A439A730E4B5A6880210A435A600D4BB6
S11301D098470D4B9847FEE77C070000000000207D
S11301E030040020300400204C04002000000000F3
S11301F000ED00E000700041005000410048004163
S113020000400041C50500005D04000080B500AF5A
S1130210FEE7C04680B500AF024B034A1A60C046F1
S1130220BD4680BD0000002040420F0080B500AFF5
S1130230002010210122024B9847BD4680BDC046D4
S11302408502000080B584B000AF78600023FB60B5
S113025002E0FB680133FB607B68FA2292005A4398
S1130260FB689A42F5DCBD4604B080BD80B500AFA2
S1130270024B9847024B9847BD4680BD15020000CB
S11302802D02000090B583B000AF041C081C111CA3
S1130290FB1D221C1A70BB1D021C1A707B1D0A1C3C
S11302A01A70FB1D1B78012B00D9ACE0BB1D1B7819
S11302B01F2B00D9A7E07B1D1B78042B00D9A1E0DC
S11302C09A00524BD3181B689F465149FB1D1B785B
S11302D0BA1D127801209040021CDB01CB185A6031
S11302E04B48FB1D1A78BB1D1B784021D201821894
S11302F0D3185B1800221A7085E04549FB1D1B7852
S1130300BA1D127801209040021CDB01CB1808337F
S11303101A603F49FB1D1B78BA1D127801209040DA
S1130320021CDB01CB1810335A603948FB1D1A78C4
S1130330BB1D1B784021D2018218D3185B18002200
S11303401A7060E03249FB1D1B78BA1D1278012037
S11303509040021CDB01CB185A602D48FB1D1A7813
S1130360BB1D1B784021D2018218D3185B180222CE
S11303701A7048E02649FB1D1B78BA1D127801202B
S11303809040021CDB01CB185A602149FB1D1B78ED
S1130390BA1D127801209040021CDB01CB181833DF
S11303A01A601B48FB1D1A78BB1D1B784021D20123
S11303B08218D3185B1806221A7024E01449FB1D16
S11303C01B78BA1D127801209040021CDB01CB1867
S11303D05A600F49FB1D1B78BA1D1278012090400A
S11303E0021CDB01CB1810335A600948FB1D1A7834
S11303F0BB1D1B784021D2018218D3185B1806223A
S11304001A7000E0C046BD4603B090BD3C07000032
S11304100044004180B582B000AF021CFB1D1A707D
S1130420BB1D0A1C1A70FB1D1B78012B00D910E0A0
S1130430BB1D1B781F2B00D90BE00749FB1D1B7844
S1130440BA1D127801209040021CDB01CB1818332E
S11304505A60BD4602B080BD0044004180B500AF83
S1130460554B984700201F21544B98470A20544B62
S1130470984700201E21514B98470A20504B98471B
S113048000201C214D4B98470A204D4B98470020D3
S11304901B214A4B98470A20494B984700201921B1
S11304A0464B98470A20464B984700201821434B57
S11304B098470A20424B9847002017213F4B984702
S11304C00A203F4B9847002016213C4B98470A20AE
S11304D03B4B984700201321384B98470A20384B50
S11304E0984700201221354B98470A20344B9847EF
S11304F000201121314B98470A20314B98470020A6
S113050010212E4B98470A202D4B984700200F218D
S11305102A4B98470A202A4B984700200E21274B44
S113052098470A20264B984700200B21234B9847D5
S11305300A20234B984700200A21204B98470A2081
S11305401F4B9847002007211C4B98470A201C4B3F
S1130550984700200621194B98470A20184B9847C2
S113056000200521154B98470A20154B9847002079
S11305700421124B98470A20114B9847002003216D
S11305800E4B98470A200E4B9847002002210B4B34
S113059098470A200A4B984700200121074B9847A7
S11305A00A20074B984700200021044B98470A2053
S11305B0034B984756E7C0466D020000150400003F
S11305C04502000070B50D4E0D4D0024AD1BAD105D
S11305D005D0A300F35801349847A542F9D100F09F
S11305E0BBF8084E084D0024AD1BAD1005D0A30088
S11305F0F35801349847A542F9D170BD640700004F
S113060064070000640700006C07000008B5034B92
S1130610002B02D0024800F005F808BD00000000DD
S11306203506000008B5011C00220020002300F05C
S11306301BF808BD38B5094B094CE41AA41009D0BD
S1130640084AA518AD00ED182B68013C9847043DF5
S1130650002CF9D100F08AF838BDC04678070000B4
S11306607C070000FFFFFF3FF8B544465F4656464F
S11306704D469B462F4BF0B41C68A4235B00051C1D
S1130680E0580E1C904600284BD043681F2B0DDC0D
S11306905C1C002D21D102339B0044601E500020BD
S11306A03CBC90469946A246AB46F8BD224B002B73
S11306B03CD0C820400000E000BF002836D0A4226F
S11306C000235200A15843600160A050403283507F
S11306D0043283500124002DDDD09A0091468144D8
S11306E0424688214F467A50C422520090468044A4
S11306F042468739994012688A460A4394464246DC
S113070061461160842249465F4652008F50022D93
S1130710C1D1021C55468D32FF3211680D4315605C
S1130720B9E7201C4D30FF30E050AEE701204042D5
S1130730B6E7C0465407000000000000CA020000EB
S1130740FA0200004403000074030000BC0300002C
S11307504300000008000020F8B5C046F8BC08BCFF
S11307609E4670470D060000DD000000F8B5C04647
S10F0770F8BC08BC9E467047B5000000B1
S113077C40420F000000000000000000F4020020C2
S113078C5C030020C40300200000000000000000F3
S113079C0000000000000000000000000000000049
S11307AC00000000000000000000000050070000E2
S11307BC0000000000000000000000000000000029
S11307CC0000000000000000000000000000000019
S11307DC0000000000000000000000000000000009
S11307EC00000000000000000000000000000000F9
S11307FC00000000000000000000000000000000E9
S113080C00000000000000000000000000000000D8
S113081C00000000000000000000000000000000C8
S113082C01000000000000000E33CDAB34126DE665
S113083CECDE05000B0000000000000000000000CE
S113084C0000000000000000000000000000000098
S113085C0000000000000000000000000000000088
S113086C0000000000000000000000000000000078
S113087C0000000000000000000000000000000068
S9030000FC
