:10000000502B00201501000099010000990100000B
:1000100000000000000000000000000000000000E0
:100020000000000000000000000000009901000036
:10003000000000000000000099010000990100008C
:100040009901000099010000990100009901000048
:100050007529000099010000990100009901000034
:100060009901000099010000990100009901000028
:100070009901000099010000990100009901000018
:100080009901000099010000D52500008926000093
:1000900099010000990100009901000099010000F8
:1000A00099010000990100009901000099010000E8
:1000B0000000000010B5064C2378002B07D1054B3B
:1000C000002B02D0044800E000BF0123237010BDC4
:1000D000C40800200000000080EF0000084B10B5AD
:1000E000002B03D00749084800E000BF0748036819
:1000F000002B00D110BD064B002BFBD09847F9E731
:1001000000000000C808002080EF000080EF000021
:100110000000000080B582B000AF164B7B60164B2C
:100120003B607A683B689A420CD007E03B681A1D36
:100130003A607A68111D796012681A603A680F4B4C
:100140009A42F3D30E4B3B6004E03B681A1D3A60C1
:1001500000221A603A680B4B9A42F6D30A4B7B6036
:100160000A4B7A68FF218A439A60094B9847094BEA
:100170009847FEE780EF000000000020C408002040
:10018000C40800204C0B00200000000000ED00E03F
:1001900079940000B118000080B500AFFEE7C046BA
:1001A00080B584B000AF78600A4B1B68002B02D189
:1001B000084B094A1A60074B1B68FB60054B1A681D
:1001C0007B68D218034B1A60FB681800BD4604B068
:1001D00080BDC046E0080020502B002080B582B0D2
:1001E00000AF786001235B421800BD4602B080BDBD
:1001F00080B582B000AF786039603B6880229201A0
:100200005A6000231800BD4602B080BD80B582B0A0
:1002100000AF786001231800BD4602B080BDC04623
:1002200080B584B000AFF860B9607A600023180030
:10023000BD4604B080BDC04680B500AF674A536874
:100240001E218B4302210B435360654B644A926924
:1002500008210A439A61634B634A9A82614A938AEE
:1002600002210B439382C0465E4BDB68022213409F
:10027000FAD05E4B01221A70C0465C4B1B78DBB291
:100280001A000123134005D0584B5B78DBB25BB2F8
:10029000002BF2DB554B01229A60C046534B5B7832
:1002A000DBB25BB2002BF9DB504B514A5A60C046BF
:1002B0004E4B5B78DBB25BB2002BF9DB4B4B8222FF
:1002C000D2015A80C046494B5B78DBB25BB2002B4F
:1002D000F9DB444A938C80218B439384C046414B85
:1002E000DB6810221340FAD03E4B424ADA62C04625
:1002F0003C4BDB6810221340FAD03A4A394B9B8CB6
:100300009BB23D490B439BB29384C046354BDB689F
:1003100010221340FAD0334A324B9B8C9BB20221FD
:100320000B439BB29384C0462E4BDB688022134064
:10033000FAD02C4BDB6840221340F5D0C046294B45
:10034000DB6810221340FAD0284B00229A60C04686
:10035000264B5B78DBB25BB2002BF9DB234B274AE1
:100360005A60C046214B5B78DBB25BB2002BF9DBF5
:100370001C4A136A22490B4013621A4A136A8021ED
:100380008B431362194B03229A60184B1D4A5A6023
:10039000C046164B5B78DBB25BB2002BF9DB134B2C
:1003A000194A9A60114B194A5A60C0460F4B5B7844
:1003B000DBB25BB2002BF9DB094B00221A72084B4F
:1003C00000225A72064B00229A72054B0022DA7202
:1003D0000F4B104A1A60C046BD4680BD0040004128
:1003E00000040040000800400C060000000C004023
:1003F00001050100DC05FF7D040A00000007030081
:10040000FFFCFFFF030601000408000004060100D2
:1004100000000020006CDC02F0B500AF1E4B1E484F
:10042000006A80246402204318621C4B1C485880D8
:100430001C4E1D4B1B68DB089BB21B0298B2E023CD
:10044000DB00034098B2194B5C681B686501D90E4C
:100450002943E20E8BB2FF2213409BB203439BB2AF
:100460003385104A0F4B5B78DBB202210B43DBB2C2
:1004700053700C4B802252009A800A4B0C4A1A612E
:10048000084A084B1B78DBB202210B43DBB2137026
:1004900000231800BD46F0BD00040040000C0040E1
:1004A0001E43000000400042246080002060800065
:1004B0000718000F80B584B000AF78607B681C2BF4
:1004C00003DD01235B42FB601AE0104B0F4A126907
:1004D0000F218A4311007A680A431A610B4B0122EB
:1004E0001A760A4B02221A73C046084B1B7EDB07A2
:1004F000DB0FDBB2002BF8D0044B5B8B9BB2FB60B5
:10050000FB681800BD4604B080BDC04600400042F4
:1005100080B582B000AF0200FB1D1A70FB1DFA1DF2
:1005200012780F210A401A70FB1D1B78502252428C
:100530001343DBB21800034B9847C046BD4602B0D8
:1005400080BDC0463509000080B582B000AF020012
:10055000FB1D1A70FB1DFA1D12787F210A401A70CC
:10056000FB1D1B781B09DBB210221343DBB2180002
:10057000064B9847FB1D1B780F221340DBB2180077
:10058000024B9847C046BD4602B080BD3509000009
:1005900080B582B000AF0200FB1D1A70FB1DFA1D72
:1005A00012783F210A401A70FB1D1B78402213432A
:1005B000DBB21800024B9847C046BD4602B080BD72
:1005C0003509000080B500AFAF20024B9847C04608
:1005D000BD4680BD3509000080B582B000AF020085
:1005E000FB1D1A708120064B9847FB1D1B781800D5
:1005F000034B9847FB1D1B781800BD4602B080BD19
:100600003509000080B500AFA620024B9847C046D0
:10061000BD4680BD3509000090B583B000AF020033
:10062000FB1D1A70104B9847FB1D1B78002B17D031
:100630000E4B0022002118000D4B98470D4B0E4821
:1006400002222B210D4CA0470A4B0D4813223521C5
:100650000A4CA047012322221D213F20094CA0471C
:10066000C046BD4603B090BD7D11000004000020CF
:10067000A10D00000C000020F0E30000C9100000F4
:1006800000E40000690B000080B582B000AF786024
:100690007B68032B07DC7B68DA00054B1A60054B8F
:1006A00000221A6000E0C046BD4602B080BDC046D0
:1006B000240B0020280B002090B583B000AF02006F
:1006C000FB1D1A70FB1D1B780A2B11D11D4B00223C
:1006D0001A601D4B1B6808331C4A134004D5013BAC
:1006E00020225242134301331A00174B1A6025E0AF
:1006F000144B1B68D9B2144B1B68DAB2144CFB1DA7
:1007000018782300134CA0470E4B1B689A1D0D4B05
:100710001A600C4B1B687F2B10DD0A4B00221A60FD
:10072000094B1B680833094A134004D5013B2022BA
:100730005242134301331A00034B1A60C046BD46B0
:1007400003B090BD280B0020240B00201F00008068
:100750000C0000206110000090B583B000AF0023B2
:100760007B6013E000233B600AE07B68D8B23B6803
:10077000D9B2012300220C4CA0473B6801333B60F7
:100780003B687F2BF1DD7B6801337B607B68032B4B
:10079000E8DD064B00221A60054B00221A60C046B5
:1007A000BD4603B090BDC0466D130000280B00206D
:1007B000240B002090B585B000AF0200FB1D1A701D
:1007C0000023FB600AE0FB68D9B2FB1D1878012307
:1007D0000022094CA047FB680133FB60FB687F2BBC
:1007E000F1DD064B00221A60054B00221A60C0465C
:1007F000BD4605B090BDC0466D130000280B00201B
:10080000240B002080B582B000AF00237B6002E0A3
:100810007B6801337B607B68034A9342F8DDC04606
:10082000BD4602B080BDC046E703000080B500AF02
:1008300001221B210020094B984700221B21002088
:10084000074B9847074B984701221B210020044B78
:100850009847044B9847C046BD4680BD35140000FC
:10086000D51500000508000080B500AF0222112157
:1008700001201D4B98470322162101201A4B98474F
:10088000032217210120184B9847184B174A126A68
:1008900080210A431A62164B164A5A80164A136878
:1008A00001210B431360C046134B1B68DB07DB0FB2
:1008B000DBB2002BF8D1104BDB69DB07DB0FDBB2BF
:1008C000002BF1D10C4B0D4A1A600B4B0C4A5A60AD
:1008D000094B03221A73084B074A126802210A4384
:1008E0001A60C046BD4680BD4516000000040040A9
:1008F000000C004019430000001C00428C00010065
:100900000022020080B582B000AF0200FB1D1A7009
:1009100000221E210120054B9847054BFA1D127835
:100920009A62C046BD4602B080BDC046D5150000E3
:10093000001C004280B582B000AF0200FB1D1A709F
:10094000C0460A4B1B7E9B07DB0FDBB2002BF8D0A7
:10095000074994228023DB058B50044BFA1D127843
:100960009A62C046BD4602B080BDC046001C00422F
:100970000044004180B582B000AF0200FB1D1A7038
:10098000C0460A4B1B7E9B07DB0FDBB2002BF8D067
:10099000074998228023DB058B50044BFA1D1278FF
:1009A0009A62C046BD4602B080BDC046001C0042EF
:1009B0000044004180B500AF01221E210120234BDD
:1009C0009847234B9847234B9847A820224B98479A
:1009D0001F20224B9847D320204B984700201F4BC5
:1009E000984740201D4B9847A1201C4B9847C82092
:1009F0001A4B9847DA20194B98470220174B984713
:100A00008F20174B9847A420144B9847154B9847B5
:100A1000D520124B98478020104B98478D200F4BC4
:100A2000984714200D4B9847DB200C4B98474020EB
:100A30000A4B9847D920094B9847F120074B984714
:100A4000094B9847C046BD4680BDC04635140000DE
:100A50002D080000690800000509000035090000A4
:100A6000D905000005060000C505000080B582B06C
:100A700000AF7860034B7A681A60C046BD4602B08A
:100A800080BDC046E408002090B585B000AF786016
:100A90000C0010001900FB1C221C1A70BB1C021C4D
:100AA0001A707B1C0A1C1A707B68FB600F4B1B685A
:100AB000FA1C1278D101BA1C12788A189B18BB60F4
:100AC000BB685A1CBA60FA68511CF96012781A7037
:100AD0007B1C7A1C1278013A1A707B1C1B78002B45
:100AE000EED1C046BD4605B090BDC046E40800202A
:100AF00090B583B000AF040008001100FB1D221C5C
:100B00001A70BB1D021C1A707B1D0A1C1A70084B40
:100B10001A68FB1D1B78DB011900BB1D1B78CB1865
:100B2000D3187A1D12781A70C046BD4603B090BD26
:100B3000E408002080B582B000AF0200FB1D1A70EF
:100B4000BB1D0A1C1A70074B1A68FB1D1B78DB01C2
:100B50001900BB1D1B78CB18D3181B781800BD4695
:100B600002B080BDE4080020B0B584B000AF05003D
:100B70000C0010001900FB1D2A1C1A70BB1D221C42
:100B80001A707B1D021C1A703B1D0A1C1A70FB1D7B
:100B90001A787B1D1B78D318802B06DD7B1DFA1D70
:100BA0001278802149428A1A1A700F23FB18BA1D45
:100BB0001278D2081A70BB1D1A780F23FB181B7805
:100BC000DB00D31A01229A400E23FB181A707B1DFA
:100BD0001B78002B00D1A4E03B1D1B78012B2FD0EC
:100BE000022B00D195E0002B61D09BE0FA1D7B1D0C
:100BF00012781B78D318DAB20D23FC180F23FB18D8
:100C00001B7811001800494B9847030023700D23EF
:100C1000FB180D22B9180E22BA18097812780A4367
:100C20001A70FA1D7B1D12781B78D318D9B20D23C8
:100C3000FB181A780F23FB18187800233C4CA047A8
:100C40007B1D1B787A1D591E1170002BCED169E0D7
:100C5000FA1D7B1D12781B78D318DAB20D23FC180D
:100C60000F23FB181B7811001800304B9847030026
:100C700023700E23FB181B785BB2DB435BB20D22A3
:100C8000BA18127852B213405AB20D23FB181A70D8
:100C9000FA1D7B1D12781B78D318D9B20D23FB18CF
:100CA0001A780F23FB1818780023214CA0477B1DCE
:100CB0001B787A1D591E1170002BC9D132E0FA1D24
:100CC0007B1D12781B78D318DAB20D23FC180F2382
:100CD000FB181B7811001800144B98470300237071
:100CE0000D23FB180D22B9180E22BA1809781278B4
:100CF0004A401A70FA1D7B1D12781B78D318D9B29E
:100D00000D23FB181A780F23FB1818780023084CC2
:100D1000A0477B1D1B787A1D591E1170002BCED168
:100D200000E0C046BD4604B0B0BDC046051400009A
:100D30006D130000B0B582B000AF05000C001000CC
:100D40001900FB1D2A1C1A70BB1D221C1A707B1D6A
:100D5000021C1A703B1D0A1C1A703B1D1B78002BCD
:100D600018D00FE0BA1D3B1D12781B78D318D9B2EA
:100D70001823FB181C787B1D1A78FB1D187823009C
:100D8000064CA0473B1D1B783A1D591E1170002BC5
:100D9000E8D100E0C046BD4602B0B0BD690B00001E
:100DA00090B585B000AF786008001100FB1C021CF4
:100DB0001A70BB1C0A1C1A707B685A780D23FB182A
:100DC000D2081A700C23FB18BA1C1278D2081A70B9
:100DD0007B689B78002B51D0012B00D07BE00E2349
:100DE000FB1800221A7040E00F23FB1800221A7033
:100DF0002DE07B685A680E23FB181B787968097808
:100E00004B4319000F23FB181B78CB18D2180B2368
:100E1000FB1812781A700E23FA180C23FB1812789C
:100E20001B78D318D8B20F23FA18FB1C12781B7842
:100E3000D318D9B20B23FB181A780023284CA047EB
:100E40000F23FB181A780F23FB1801321A707B68E6
:100E50001B780F22BA1812789A42CAD30E23FB18B5
:100E60001A780E23FB1801321A700E23FA180D237C
:100E7000FB1812781B789A42B6D32CE00E23FB188D
:100E800000221A701EE07B685B680E22BA18127886
:100E9000796809784A4398180C23FA180E23FB182E
:100EA00012781B78D318D9B27B681C78FB1C1A788F
:100EB00023000C4CA0470E23FB181A780E23FB18B6
:100EC00001321A700E23FA180D23FB1812781B78C2
:100ED0009A42D8D3C046C046BD4605B090BDC04674
:100EE0006D130000ED12000090B587B000AF040054
:100EF000080011003B60FB1D221C1A70BB1D021C68
:100F00001A707B1D0A1C1A703B68002B00D1A0E0F0
:100F10001023FB18BA1D12781A700F23FB187A1DC4
:100F200012781A703B681A7A1323FB18D2081A70C9
:100F30003B681B7A07221340DBB2002B06D0132339
:100F4000FB181A781323FB1801321A701323FB18AD
:100F50001B789BB23A68527A92B253439AB2FB1D05
:100F60001B783968897A5B1A99B20C23FB184A43BB
:100F70001A803B685A680C23FB181B88D3187B61C6
:100F80001223FB183A68527A1A700E23FB180022BB
:100F90001A700B23FB183A68127A1A701123FB1887
:100FA00000221A7034E01123FB181B78072213402B
:100FB000DBB2002B07D10E23FB187A6912781A7066
:100FC0007B6901337B610E23FB181B785BB2002B1E
:100FD00009DA0F23FB1819781023FB181B7801225C
:100FE00018001E4B98471023FB181022BA181278CD
:100FF00001321A700E23FA180E23FB181B78DB1827
:1010000013701123FB181A781123FB1801321A7080
:101010001123FA180B23FB1812781B789A42C2D3BB
:101020000F23FB180F22BA18127801321A701023FE
:10103000FB18BA1D12781A701223FB181A781223A3
:10104000FB18013A1A701223FB181B78002B9CD155
:1010500000E0C046BD4607B090BDC046F911000093
:1010600090B585B002AF0400080011003B60FB1D85
:10107000221C1A70BB1D021C1A707B1D0A1C1A70E0
:101080003B681A7A3B685C7A7B1D1978BB1D18781F
:101090000023009323000A4CA0473B681B78002BD9
:1010A00000D00AE03C687B1D1A78BB1D1978FB1D37
:1010B00018782300034CA047C046BD4603B090BD3E
:1010C000350D0000E90E000090B587B000AFF86064
:1010D000080011007B600B23FB18021C1A700A2306
:1010E000FB180A1C1A701723FB180B22BA18127867
:1010F0001A70FB68002B39D07B68002B38D0FB6856
:101100001B780A2B11D10B23FB181722BA1812785F
:101110001A707B685A7A0A23FB181B78D318DAB244
:101120000A23FB1801321A7018E0FB681B780D2B9C
:1011300014D0FB6818787C680A23FB181A780B23F4
:10114000FB18197823000C4CA0477B68197A0B23F5
:10115000FB180B22BA1812788A181A70FB68013330
:10116000FB60FB681B78002BC9D102E0C04600E0A1
:10117000C046BD4607B090BD6110000090B583B079
:1011800000AF184B1800184B9847184B9847002091
:10119000174B9847FB1D00221A701AE0BB1D002256
:1011A0001A700CE0BB1D1978FB1D18780123002272
:1011B000104CA047BB1D1A78BB1D01321A70BB1D15
:1011C0001B785BB2002BEDDAFB1D1A78FB1D013298
:1011D0001A70FB1D1B78032BE0D9C046BD4603B037
:1011E00090BDC046E80800206D0A0000B509000067
:1011F000910500006D13000090B585B000AF0400AC
:1012000008001100FB1D221C1A70BB1D021C1A7065
:101210007B1D0A1C1A70FB1D1B785BB2002B5DDB6B
:10122000BB1D1B781F2B59D80E23FB18BA1D127833
:10123000D2081A70BB1D1A780E23FB181B78DB002E
:10124000D31A01229A400D23FB181A700F23FC18A1
:10125000FB1D1A780E23FB181B7811001800214B78
:101260009847030023707B1D1B78012B04D0022BB1
:101270001DD0002B0BD025E00F23FB180F22B9182F
:101280000D22BA18097812780A431A701AE00D2351
:10129000FB181B785BB2DB435BB20F22BA181278E3
:1012A00052B213405AB20F23FB181A700AE00F23F0
:1012B000FB180F22B9180D22BA18097812784A4083
:1012C0001A70C0460F23FB181A78FB1D19780E23DD
:1012D000FB1818780023044CA04700E0C046BD4628
:1012E00005B090BD051400006D13000090B583B0EB
:1012F00000AF78600C0010001900FB1C221C1A7053
:10130000BB1C021C1A707B1C0A1C1A707B1C1C78EC
:10131000BB1C1A78FB1C1978786823000F4CA04777
:10132000FB1C1B7818000E4B9847BB1C1B78180041
:101330000C4B98477B685A1C7A601B7818000A4B44
:1013400098477B1C7A1C1278013A1A707B1C1B7818
:10135000002BEFD1C046BD4603B090BD890A000006
:10136000110500004905000075090000B0B582B004
:1013700000AF05000C0010001900FB1D2A1C1A709C
:10138000BB1D221C1A707B1D021C1A703B1D0A1CFF
:101390001A703B1D1B78002B0DD1BB1D1A78FB1D4D
:1013A0001B7811001800124B984703001A007B1D90
:1013B0001B78934218D07B1D1A78BB1D1978FB1D32
:1013C0001B7818000B4B9847FB1D1B7818000A4B25
:1013D0009847BB1D1B781800084B98477B1D1B784E
:1013E0001800074B984700E0C046BD4602B0B0BDAC
:1013F000350B0000F10A000011050000490500004E
:101400007509000080B582B000AF0200FB1D1A70A4
:10141000BB1D0A1C1A70BB1D1A78FB1D1B7811001E
:101420001800034B984703001800BD4602B080BD6A
:10143000350B000090B583B000AF04000800110028
:10144000FB1D221C1A70BB1D021C1A707B1D0A1C7E
:101450001A70FB1D1B78012B00D9AFE0BB1D1B7858
:101460001F2B00D9ACE07B1D1B78042B00D9A9E011
:101470009A00564BD3181B689F465549FB1D1B7895
:10148000BA1D1278012090400200DB01CB18043312
:101490001A604F48FB1D1A78BB1D1B784021D201F2
:1014A0008218D3185B1800221A708CE04849FB1D83
:1014B0001B78BA1D1278012090400200DB01CB1886
:1014C00008331A604249FB1D1B78BA1D12780120AF
:1014D00090400200DB01CB1814331A603C48FB1D1E
:1014E0001A78BB1D1B784021D2018218D3185B18D3
:1014F00000221A7067E03649FB1D1B78BA1D12786E
:10150000012090400200DB01CB1804331A60304800
:10151000FB1D1A78BB1D1B784021D2018218D318FD
:101520005B1802221A704EE02949FB1D1B78BA1D78
:101530001278012090400200DB01CB1804331A60BE
:101540002349FB1D1B78BA1D127801209040020030
:10155000DB01CB1818331A601D48FB1D1A78BB1D20
:101560001B784021D2018218D3185B1806221A700A
:1015700029E01749FB1D1B78BA1D12780120904005
:101580000200DB01CB1804331A601149FB1D1B78E4
:10159000BA1D1278012090400200DB01CB181433F1
:1015A0001A600B48FB1D1A78BB1D1B784021D20125
:1015B0008218D3185B1806221A7004E0C04602E0B5
:1015C000C04600E0C046BD4603B090BD2CE7000019
:1015D0000044004180B582B000AF3A60FB1D021CA0
:1015E0001A70BB1D0A1C1A70FB1D1B78012B20D81A
:1015F000BB1D1B781F2B1ED83B68002B0CD010493D
:10160000FB1D1B78BA1D1278012090400200DB01FF
:10161000CB1818331A600FE00949FB1D1B78BA1D5F
:101620001278012090400200DB01CB1814331A60BD
:1016300002E0C04600E0C046BD4602B080BDC046E4
:1016400000440041F0B585B000AF0400080011006F
:10165000FB1D221C1A70BB1D021C1A707B1D0A1C6C
:101660001A70FB1D1B78012B5FD8BB1D1B781F2B2D
:101670005DD87B1D1B78072B5BD80B23FB18BA1D8D
:10168000127852081A702D48FB1D1A780B23FB188C
:101690001B783021D2018218D3185B181B78DBB27B
:1016A000FB60BB1D1B78012213400AD0FB680F2290
:1016B0001340FB607B1D1B781B01FA681343FB6022
:1016C00008E0FB68F0221340FB607B1D1B78FA6882
:1016D0001343FB601948FB1D1A780B23FB181B787A
:1016E000F968CCB23021D2018218D3185B18221CC1
:1016F0001A70124CFB1D1A78BB1D1B780F4EF91D7A
:101700000878B91D09784025C001301841184919D9
:101710000978C9B201200143C8B24021D201A21800
:10172000D3185B18021C1A7004E0C04602E0C046E1
:1017300000E0C046BD4605B0F0BDC04600440041D3
:1017400080B582B000AF78607B68022B03D87A68DE
:10175000034B1A6000E0C046BD4602B080BDC046E3
:101760001800002080B586B000AFF860B9607A60DC
:1017700000237B61FB68012B02D001235B422BE03D
:10178000174B1B68012B11D100237B6109E07B699A
:10179000BA68D3181B781800124B98477B6901333D
:1017A0007B617A697B689A42F1DB14E00C4B1B6821
:1017B000022B10D100237B6109E07B69BA68D31842
:1017C0001B781800084B98477B6901337B617A6965
:1017D0007B689A42F1DB7B691800BD4606B080BD8C
:1017E00018000020B9060000ED17000080B582B097
:1017F00000AF0200FB1D1A70FB1D1B780A2B02D1E3
:101800000D20FFF7F3FFC0460D4B1B681B7EDB0767
:10181000DB0FDBB2002BF7D0094B1B68FA1D1278E7
:1018200092B21A85C046064B1B681B7E9B07DB0FD6
:10183000DBB2002BF7D0C046BD4602B080BDC0462B
:101840001C00002080B584B000AF786039600023B0
:10185000FB607B68042B02DC3B68072B02DD012365
:10186000FB601AE00F4B0F4A126A396808310120F9
:10187000884001000A431A620B487B681B021BB2B6
:101880008022D20113431AB2084B39688900CB5821
:101890001BB213431BB29BB24380FB681800BD46CA
:1018A00004B080BD00040040000C004040E7000090
:1018B000B0B58AB000AFFE239B057B6200233B627C
:1018C0001F23FB1800221A701E23FB1800221A7017
:1018D000FE239B05BB61344B98470120334B98474F
:1018E0000120334B9847334B98473A697B69110085
:1018F0001800314B98477B69FE2292051A603B69BC
:10190000FE2292051A60BB68FA68396978692B4C27
:10191000A0472B4B786A984703000C00F9681A001F
:1019200023000800274988470200274B10009847EA
:10193000031C3B621F23FC183B6A181C234B98476F
:10194000030023701E23FC183B6A181C204B984789
:10195000030023700022396ABB69181C1D4B98478D
:10196000051CFC1D3A6A1E23FB1819781F23FB185F
:1019700018782B1C184DA84703002370FB1D1B78FB
:101980001800164B98473B6A181C154B98471F23A5
:10199000FB181B781800134B98471E23FB181B7865
:1019A0001800114B9847A0E741320000A92400001D
:1019B00021240000ED190000E9260000992700000D
:1019C00071920000552A000075760000F92A000087
:1019D0002D2C0000F93100003D310000F91C000001
:1019E000711C0000691B0000B91C000080B500AF2D
:1019F000054B98470020054B9847054B1800054BB1
:101A00009847C046BD4680BD5907000089060000C2
:101A100060E70000E19B000080B582B000AF0200EB
:101A20003960FB1D1A70FB1D1B780C2B70D89A00B7
:101A30003E4BD3181B689F463A683D4B1000190077
:101A400003231A003B4B98476BE03A683A4B10006F
:101A500019000A231A00374B984762E03A68374B5F
:101A60001000190003231A00324B984759E03A68D6
:101A7000334B100019000A231A002E4B984750E0F0
:101A80003A68304B1000190003231A00294B98477D
:101A900047E03A682C4B1000190003231A00254B2D
:101AA00098473EE03A68294B100019000B231A00B2
:101AB000204B984735E03A68254B10001900042365
:101AC0001A001C4B98472CE03A68224B1000190072
:101AD0000B231A00174B984723E03A681E4B10005F
:101AE000190003231A00134B98471AE03A681B4B5E
:101AF000100019000A231A000E4B984711E03A68AB
:101B0000174B1000190003231A000A4B984708E0EE
:101B10003A68144B1000190009231A00054B984726
:101B2000C046C046BD4602B080BDC046D4E70000F6
:101B300070E700003D9A000074E7000080E70000B5
:101B400084E7000090E7000094E7000098E70000B9
:101B5000A4E70000A8E70000B4E70000B8E7000031
:101B6000C4E70000C8E7000080B582B000AF020003
:101B7000FB1D1A7003202B4B984703202A4B9847D4
:101B80002A4B18002A4B9847FB1D1B780C2B40D87A
:101B90009A00284BD3181B689F46274B1800274BE9
:101BA00098473BE0264B1800244B984736E0254BDE
:101BB0001800224B984731E0234B18001F4B9847E1
:101BC0002CE0224B18001D4B984727E0204B1800B3
:101BD0001A4B984722E01F4B1800184B98471DE0FE
:101BE0001D4B1800154B984718E01C4B1800134B61
:101BF000984713E01A4B1800104B98470EE0194B0A
:101C000018000E4B984709E0174B18000B4B9847EC
:101C100004E0164B1800094B9847C046C046BD4625
:101C200002B080BDB50700008906000008E800008A
:101C30004D9B000020E8000070E70000E19B0000E1
:101C400074E7000080E7000084E7000090E70000F0
:101C500094E7000098E70000A4E70000A8E7000070
:101C6000B4E70000B8E70000C4E7000014E8000093
:101C700090B583B000AF786001200A4B98470120EF
:101C8000094B9847094B7868984703000C000849AE
:101C90001A002300080007498847C046BD4603B024
:101CA00090BDC046B5070000890600007192000093
:101CB00054E800004D9B000080B582B000AF0200E8
:101CC000FB1D1A700220084B98470220074B9847CB
:101CD000FB1D1A78064B11001800064B9847C046AA
:101CE000BD4602B080BDC046B507000089060000B1
:101CF00068E800004D9B000080B582B000AF020094
:101D0000FB1D1A70FB1D1B78022B14D0032B22D055
:101D1000012B00D02FE000220C210020184B984707
:101D200001220D210020164B984701220F2100208F
:101D3000134B98471FE000220D210020104B9847BD
:101D400001220C2100200E4B984701220F21002078
:101D50000B4B98470FE000220F210020084B9847BB
:101D600001220C210020064B984701220D21002062
:101D7000034B9847C046C046BD4602B080BDC04632
:101D8000D515000080B582B000AF0200FB1D1A70AF
:101D9000064BFA1D127811001F220A4001219140C2
:101DA0000A001A60C046BD4602B080BD00E100E0F6
:101DB000B0B582B000AF02003960FB1D1A70FB1D88
:101DC0001B787F2B32D92F4CFB1D1B781A000F2359
:101DD0001340083B99082B4AFB1D1B7818000F2362
:101DE0000340083B9B0806339B00D31804331B6851
:101DF000FA1D1278100003220240D200FF2090400A
:101E00000200D2431A403B689B01FF201840FB1D93
:101E10001B781D0003232B40DB00984003001A436E
:101E20008B1D9B00E31804331A6027E0164CFB1D42
:101E30001B785BB29B081449FA1D127852B29208C3
:101E4000C03292005258F91D097808000321014060
:101E5000C900FF2088400100C94311403A6892013F
:101E6000FF201040FA1D1278150003222A40D200EC
:101E7000904002000A43C0339B001A51C046BD4641
:101E800002B0B0BD00ED00E000E100E0B0B59AB0F6
:101E900000AFF860B9607A6000233B6404233B64C0
:101EA0009C4BFB639C4BBB639C4B7B63FB68012B94
:101EB00030D10023BB6528E0BA68BB6D9B00D41805
:101EC000BA68BB6D9B00D3181D68954B386C98475A
:101ED000021C944B111C281C9847031C23607A6831
:101EE000BB6D9B00D4187A68BB6D9B00D3181D682E
:101EF0008B4B386C9847021C8A4B111C281C984746
:101F0000031C2360BB6D0133BB653B6C5A1EBB6D6C
:101F10009A42D1DC844B386C984703000C001800BF
:101F20002100824B9847824C824A834BA047030092
:101F30000C0018002100814B98470A000100804BDB
:101F400008001100984703003B633B6C002B00DA4C
:101F500001335B10FB623B6C013BBB6201237B6680
:101F60000023BB655EE0BA6D7B6E9A4243DABA68C5
:101F70007B6E74498C4663449B00D3181B687B625C
:101F80007A687B6E6F498C4663449B00D3181B684C
:101F90003B62BA687B6E6B498C4663449B00D318E6
:101FA000B968BA6D67488446624492008A1812681C
:101FB0001A607A687B6E63498C4663449B00D31831
:101FC0007968BA6D5F488446624492008A18126844
:101FD0001A60BA68BB6D5B498C4663449B00D3189A
:101FE0007A6A1A607A68BB6D56498C4663449B00D6
:101FF000D3183A6A1A60FB6A3B667A6E3B6ED31A54
:102000007B663B6E002B00DA01335B103B663A6E59
:102010007B6E9A42F1DB7A6E3B6ED3187B66BB6DAA
:102020000133BB65BA6DBB6A9A429CDB0123FB6539
:10203000DCE13D4BF86D9847434C3E4A3E4BA04790
:1020400003000C0018002100404B984703000C00CF
:10205000180021003E4B98470A000100384B080049
:10206000110098470300FB61FB69002B00DA013384
:102070005B10BB61FE239B053B650023FB64284B83
:10208000B8699847021C274B111CF86B9847031C32
:102090001A1C304B101C984703000C00180021003C
:1020A0002D4B98470A0001002C4B0800110098475F
:1020B000031C7B611A4BB8699847021C194B111C11
:1020C000F86B9847031C1A1C224B101C98470300FE
:1020D0000C0018002100224B984702000B00214CF5
:1020E00000200021A04703000C00190022001B4B18
:1020F000080011009847031C7B65FB68012B05D184
:10210000194B796D00209847031C7B6501237B6682
:1021100064E1C046D80F4940EEE36C009976967EA4
:1021200075760000696D0000ED9100001D3900001A
:102130005D7D0000EF39FAFE422EE63FBD2A000029
:1021400081910000FFFFFF3FA585000019380000C6
:102150005936000071920000C53500001993000047
:1021600089370000998A0000257300007B6EBB65EB
:10217000BA6DBB69D3183B61BA683B69A0498C460C
:1021800063449B00D3181A689E4B396D101C984706
:10219000031C1C1C7A683B6999498C4663449B006C
:1021A000D3181A68974BF96C101C9847031C1A1C1B
:1021B000954B111C201C9847031C7B62BA683B6935
:1021C0008F498C4663449B00D3181A688D4BF96C79
:1021D000101C9847031C1C1C7A683B6988498C4674
:1021E00063449B00D3181A68864B396D101C9847BE
:1021F000031C1A1C854B111C201C9847031C3B62B6
:10220000BA683B697E498C4663449B00D418BA681F
:10221000BB6D7B498C4663449B00D3181A687A4B8C
:10222000796A101C9847031C23607A683B697449DB
:102230008C4663449B00D4187A68BB6D70498C4609
:1022400063449B00D3181A686F4B396A101C984777
:10225000031C2360BA68BB6D69498C4663449B00CC
:10226000D418BA68BB6D66498C4663449B00D3188A
:102270001A68664B796A101C9847031C23607A68B9
:10228000BB6D5F498C4663449B00D4187A68BB6D74
:102290005B498C4663449B00D3181A685B4B396AD0
:1022A000101C9847031C2360BA6DFB69D318BB65EB
:1022B000BA6D3B6C9A4200DB5AE7524B7969386D34
:1022C0009847031C1C1C4F4B796DF86C9847031CF6
:1022D0001A1C4D4B111C201C9847031CBB644C4B13
:1022E000B86C98470300D9175A184A40494B100058
:1022F0009847021C484B796B101C9847031E0ED060
:10230000454B0021B86C9847031E02D07B6BBB6421
:1023100005E03D4B796B00209847031CBB643C4BA8
:10232000B86C98470300D9175A184A40394B100027
:102330009847021C394BB96B101C9847031E13D0E9
:102340000023BB642F4B796D386D9847031C1C1C10
:102350002C4B7969F86C9847031C1A1C2B4B111CE9
:10236000201C9847031C7B64294B786C984703001A
:10237000D9175A184A40274B10009847021C264B81
:10238000796B101C9847031E0ED0234B0021786CEC
:102390009847031E02D07B6B7B6405E01A4B796B78
:1023A00000209847031C7B64194B786C9847030006
:1023B000D9175A184A40174B10009847021C174B60
:1023C000B96B101C9847031E03D00023BB64BB6C81
:1023D0003B657B6CFB647B6E01337B667A6EBB690D
:1023E0009A4200DAC2E6FB6D0133FB65FA6D3B6B86
:1023F0009A4200DA1DE6C046BD461AB0B0BDC046DE
:10240000FFFFFF3FFD700000257300007D6A0000A4
:102410003176000075760000196A0000F16900004D
:1024200080B582B000AF7860194B9847194B7A6835
:102430001A6003210020184B9847184B8022D200C5
:102440001A80164B01225A71144A124B1B689BB218
:10245000191C0B1CDB185B189BB213820F4B01225B
:102460009A730E4A0D4B1B889BB202210B439BB201
:1024700013800A4B01225A731220094B98470221FC
:102480001220084B9847C046BD4602B080BDC046EA
:1024900019040000300B002045180000002C0042F9
:1024A000851D0000B11D000080B584B000AF7860CC
:1024B0003B4B7A681A603A4B1B68FA2292005A43E7
:1024C000384B1968384B1000984703001A00374BF7
:1024D0001A6072B6354B1B689B001800344B984746
:1024E0000300FB60FB68002B05D1324B1B68180012
:1024F000314B984702E02F4BFA681A602B4B1B6850
:102500009B0018002A4B98470300FB60FB68002BD8
:1025100005D12A4B1B681800274B984702E0274B30
:10252000FA681A60214B1B689B001800204B9847E3
:102530000300FB60FB68002B05D1214B1B681800D2
:102540001D4B984702E01E4BFA681A6062B60421E0
:1025500004201C4B98471C4B00221A801A4B012266
:102560005A71194A0E4B1B689BB21382164B0122FB
:102570009A73154A144B1B889BB202210B439BB2E2
:102580001380114B01225A731320104B98470321DB
:1025900013200F4B9847C046BD4604B080BDC046CF
:1025A0003C0B0020300B002079670000340B00202A
:1025B000C1940000400B0020D5940000380B00208F
:1025C0002C0B00204518000000300042851D000043
:1025D000B11D0000B0B500AF72B61F4A1F4B1B689B
:1025E0009BB2191C0B1CDB185B189BB213821C4B93
:1025F0001A681C4B1B689B00D41804201A4B984780
:1026000002001A4B10009847021C194B101C9847E7
:10261000184D194A194BA84702000B0011001A0067
:10262000174B080011009847031C23600D4B1A68D4
:10263000144B1B689A4203D10A4B00221A6004E033
:10264000084B1B685A1C074B1A60034B01229A73F4
:1026500062B6C046BD46B0BD002C0042300B002023
:102660002C0B0020E80A0020B5040000757600005D
:1026700071920000A58500006666666666664A3F40
:1026800019930000340B002080B500AF72B60E4ADB
:102690000E4B1B689BB213820D4B18680D4B1968CB
:1026A0000D4B1B681A000D4B9847094B19680C4BD2
:1026B0001B681A0000200B4B9847034B01229A73AA
:1026C00062B6C046BD4680BD003000423C0B0020D3
:1026D000400B00202C0B0020340B00203D9A000002
:1026E000380B00208D1E000080B584B000AF7860EC
:1026F000396072B6224B1B689B001800214B98472B
:102700000300FB60FB68002B04D17B6818001E4BA4
:10271000984701E0FB687B60194B1B689B00180021
:10272000184B98470300FB60FB68002B04D13B6803
:102730001800154B984701E0FB683B60134B186885
:102740000F4B1B681A007B681900114B98470F4B01
:102750001B6818000C4B98470E4B1868084B1B68F9
:102760001A003B6819000A4B98470A4B1B6818006F
:10277000054B984762B6C046BD4604B080BDC04612
:10278000340B0020C1940000D5940000400B0020C1
:102790003D9A0000380B002090B591B000AFF86072
:1027A000B9607A603B6072B60023BB630423BB63ED
:1027B000BB6B9B0018004F4B984703007B637B6B00
:1027C000002B04D17B6818004B4B984701E07B6BD2
:1027D0007B60BB6B9B001800464B984703007B63F4
:1027E0007B6B002B04D13B681800434B984701E0FA
:1027F0007B6B3B6000230024BB62FC6200237B6296
:102800000023FB636CE0FA68FB6B9B00D3181A682B
:102810003A4B101C984700238024E4051A0023003B
:10282000374CA04703000C00BB61FC61BA68FB6B2E
:102830009B00D3181A68314B101C98470023802442
:10284000E4051A0023002E4CA04703000C003B6156
:102850007C612C4C3A697B69B869F969A04703002F
:102860000C00BB62FC62BB6AFC6A18002100264BAC
:10287000984703000C00BB62FC62BA68FB6B9B00CC
:10288000D3181868FA68FB6B9B00D3181A681F4BA3
:10289000111C9847031C7B62184B786A9847030009
:1028A0000C00180021001A4B98470A000100194B30
:1028B000080011009847031C7B62FB6B9B007A6841
:1028C000D418144BB86AF96A9847031C2360FB6B51
:1028D0009B003A68D3187A6A1A60FB6B0133FB637A
:1028E000FA6BBB6B9A428EDB62B6C046BD4611B036
:1028F00090BDC046C1940000D594000071920000C4
:10290000453B000005770000BD3E0000696D0000FA
:10291000893200001993000080B582B000AF020038
:10292000FB1D1A70064BFA1D127811001F220A4077
:10293000012191400A001A60C046BD4602B080BD28
:1029400000E100E080B582B000AF0200FB1D1A700C
:10295000074AFB1D1B7819001F230B4001219940DA
:102960000B0019008023D150C046BD4602B080BD87
:1029700000E100E0B0B500AF0420294B9847294B97
:102980001A6980231B02134011D0274B1B78002BA0
:102990000DD1254B01221A70244B00221A82214BA3
:1029A000204A1269802109020A431A6131E01D4B55
:1029B0001A6980231B0213402BD01B4B1B78002B62
:1029C00027D0194B00221A70184B1B8A9BB21A0091
:1029D000174B10009847174C174A184BA047030095
:1029E0000C001A002300164C00201649A0470300D3
:1029F0000C0019002200144B080011009847021C1B
:102A0000124B1A60074B074A1269802109020A43D8
:102A10001A6104200E4B9847C046BD46B0BDC04663
:102A20004529000000180040EC0A0020002C00425C
:102A3000ED910000A58500008DEDB5A0F7C6E03E44
:102A40005D7D00000000F03F19930000440B002062
:102A50001929000080B586B000AF78603960012385
:102A60007B610423FB6001233B6110E03B699B0019
:102A70007A68D3181A680E4B0021101C9847031E61
:102A800002D07B6901337B613B6901333B613A6969
:102A9000FB689A42EADB074B78699847021C064BB1
:102AA0003968101C9847031C181CBD4606B080BD31
:102AB000E569000075760000FD70000090B583B0F8
:102AC00000AF38607960094C0022094B386879689A
:102AD000A04703000C0018002100064B9847030094
:102AE0000C0018002100BD4603B090BD0577000022
:102AF0000000E03F5936000090B587B000AF786025
:102B00003B4B786898473B4C00223B4BA047030067
:102B10000C00180021000023384C1A002300384C08
:102B2000A04703000C0018002100364B9847314C99
:102B3000354A364BA04703000C0018002100344BE7
:102B4000984703000C003B617C61324C002200235B
:102B500038697969A047031E23D02F4C3A697B69F5
:102B600000200021A04703000C00190022000F23C1
:102B7000FC182A4B080011009847030023700F230C
:102B8000FB181A78264B0C21100098470B00DAB27C
:102B90000F23FB180A218A1A1A700F23FB181B78BF
:102BA00021E0204C0022002338697969A047031EE8
:102BB00019D00F23FC18194B38697969984703001D
:102BC00023700F23FB181B780A331A00164B0C21B5
:102BD000100098470B001A000F23FB181A700F23E0
:102BE000FB181B78FFE71800BD4607B090BDC04634
:102BF000719200005D7D000000807B400000284055
:102C0000453B00002D3A0000FF799F501344D33F0D
:102C1000BD2A00007D690000998A0000416A000019
:102C200071670000B96900004569000090B587B080
:102C300000AF7860484B78689847484C0022484B72
:102C4000A04703000C00180021000023454C1A0087
:102C50002300454CA04703000C0018002100434B03
:102C600098473E4C424A434BA04703000C001800D3
:102C70002100414B984703000C003B617C613F4CB5
:102C80000022002338697969A047031E31D03C4CEB
:102C90003A697B6900200021A04703000C0019005D
:102CA00022000F23FC18374B08001100984703003F
:102CB00023700F23FB181B780A331A00324B0C21A8
:102CC0001000984703001A00304B1000984703008B
:102CD0000C0018002100284B98470A000100294BDE
:102CE0000800110098470300DBB20422D31ADBB2BC
:102CF0002EE0274C0022002338697969A047031E83
:102D000026D00F23FC181F4B3869796998470300B8
:102D100023700F23FB181B780A331A001A4B0C215F
:102D20001000984703001A00184B10009847030042
:102D30000C0018002100104B98470A000100114BAD
:102D40000800110098470300DBB20333DBB2FFE752
:102D50001800BD4607B090BD719200005D7D000077
:102D600000807B4000002840453B00002D3A0000D9
:102D7000FF799F501344D33FBD2A00007D690000B6
:102D8000998A0000416A000079670000ED91000017
:102D9000B969000090B583B000AF0200FB1D1A7046
:102DA000BB1D0A1C1A70FB1D1B780C2B00D984E17B
:102DB0009A00C44BD3181B689F46BB1D1A78C24BA0
:102DC00010009847C14C0022C14BA04703000C00E3
:102DD00000208021C9051A002300BE4CA047BE4C2C
:102DE000BE4ABF4BA04703000C0019002200BD4B98
:102DF000080011009847031C60E1BB1D1A78B24B14
:102E000010009847B14C0022B14BA04703000C00C2
:102E100000208021C9051A002300AE4CA047AE4C0B
:102E2000B14AB24BA04703000C0019002200AD4B81
:102E3000080011009847031C40E1BB1D1A78A24B03
:102E400010009847A14C0022A14BA04703000C00A2
:102E500000208021C9051A0023009E4CA0479E4CEB
:102E6000A34AA44BA04703000C00190022009D4B6D
:102E7000080011009847031C20E1BB1D1A78924BF3
:102E800010009847914C0022914BA04703000C0082
:102E900000208021C9051A0023008E4CA0478E4CCB
:102EA000954A964BA04703000C00190022008D4B59
:102EB000080011009847031C00E1BB1D1A78824BE3
:102EC00010009847814C0022814BA04703000C0062
:102ED00000208021C9051A0023007E4CA0477E4CAB
:102EE000874A884BA04703000C00190022007D4B45
:102EF000080011009847031CE0E0BB1D1A78724BD4
:102F000010009847714C0022714BA04703000C0041
:102F100000208021C9051A0023006E4CA0476E4C8A
:102F2000794A7A4BA04703000C00190022006D4B30
:102F3000080011009847031CC0E0BB1D1A78624BC3
:102F400010009847614C0022614BA04703000C0021
:102F500000208021C9051A0023005E4CA0475E4C6A
:102F60006B4A6C4BA04703000C00190022005D4B1C
:102F7000080011009847031CA0E0BB1D1A78524BB3
:102F800010009847514C0022514BA04703000C0001
:102F900000208021C9051A0023004E4CA0474E4C4A
:102FA0005D4A5E4BA04703000C00190022004D4B08
:102FB000080011009847031C80E0BB1D1A78424BA3
:102FC00010009847414C0022414BA04703000C00E1
:102FD00000208021C9051A0023003E4CA0473E4C2A
:102FE0004F4A504BA04703000C00190022003D4BF4
:102FF000080011009847031C60E0BB1D1A78324B93
:1030000010009847314C0022314BA04703000C00C0
:1030100000208021C9051A0023002E4CA0472E4C09
:103020000022414BA04703000C00190022002D4B49
:10303000080011009847031C40E0BB1D1A78224B82
:1030400010009847214C0022214BA04703000C00A0
:1030500000208021C9051A0023001E4CA0471E4CE9
:10306000324A334BA04703000C00190022001D4BCD
:10307000080011009847031C20E0BB1D1A78124B72
:1030800010009847114C0022114BA04703000C0080
:1030900000208021C9051A0023000E4CA0470E4CC9
:1030A000244A254BA04703000C00190022000D4BB9
:1030B000080011009847031C00E00023181CBD46BF
:1030C00003B090BD78E80000ED910000998A0000FF
:1030D00000000840453B0000A585000056B9C250DD
:1030E000025A7040199300006F8E750EEC527140B9
:1030F000210BAFE3A25A7240645715200872734047
:103100007B121E790A9A7440BCCA00D6A6D37540B9
:10311000E90DCA27E91F7740FFAD474EED7F7840A4
:103120008ED0910AE0F4794000807B40A2C865C44B
:103130009E227D401A797F0022DE7E4080B586B0D7
:1031400000AFBA607B600F23FB18021C1A700E23BD
:10315000FB180A1C1A700E23FB181A780F23FB1891
:103160001B78110018001F4B9847031C7B611E4BF6
:10317000796878699847031C1A1C1C4BB968101CA5
:103180009847031E0DD01A4B796878699847031C3D
:103190001A1C184BB968101C9847031E01D0022353
:1031A0001BE0114B796878699847031C1A1C114B76
:1031B000B968101C9847031E01D001230DE00C4B89
:1031C000796878699847031C1A1C084BB968101C69
:1031D0009847031E01D00323FFE71800BD4606B041
:1031E00080BDC046952D000025730000F1690000E8
:1031F0007D6A0000196A000080B584B000AFF860F5
:10320000B9607A600A4BF968B8689847031C1A1CC1
:10321000084B0949101C9847031C1A1C074B796876
:10322000101C9847031C181CBD4604B080BDC04646
:10323000FD700000696D00000000C8427D6A00005A
:1032400080B500AF0C4B984701200C4B98470120EC
:103250000B4B984701220C2100200A4B9847012272
:103260000D210020074B984701220F210020054B1C
:103270009847C046BD4680BD390200004117000096
:103280001906000035140000F8B556464D46444670
:103290005F46A54BF0B44E00804689468A467608C4
:1032A0009E420CDDA14B9E4200DDA0E000D19BE0E0
:1032B0005346002B00DCE3E09D4B9E4A9FE09E4B73
:1032C0009E4200DDB1E09D4B9E4200DC9FE0012369
:1032D0005B429B4642464B464046494605F062F9F2
:1032E00002000B0006000F0005F05CF904000D0061
:1032F000934A944B05F056F9934A944B04F002FA22
:1033000022002B0005F04EF9914A924B04F0FAF995
:1033100022002B0005F046F98F4A904B04F0F2F999
:1033200022002B0005F03EF98D4A8E4B04F0EAF99D
:1033300022002B0005F036F98B4A8C4B04F0E2F9A1
:1033400032003B0005F02EF9894A8A4B06000F0037
:103350002000290005F026F9874A884B05F09CFBE0
:1033600022002B0005F01EF9854A864B05F094FBE0
:1033700022002B0005F016F9834A844B05F08CFBE4
:1033800022002B0005F00EF9814A824B05F084FBE8
:1033900022002B0005F006F90B005946020001310E
:1033A00000D170E059463000CC00390004F0AAF991
:1033B00042464B4605F0F6F8774D784B2D191C190F
:1033C0002268636805F068FB42464B4605F064FBE3
:1033D00002000B002868696805F05EFB53460A008E
:1033E000002B48DB03000AE0002800D160E74246DA
:1033F0004B464046494604F085F903000A00180090
:1034000011003CBC90469946A246AB46F8BD644AC2
:10341000644B04F077F90022634B03F0C3FA0028F1
:1034200000D154E743464A46E9E700F011F95F4B03
:1034300004000D009E4237DC5D4B9E425DDC0200C5
:103440000B0004F05FF90022574B05F025FB8023A9
:1034500006000F000022DB052000290004F052F9CD
:103460000B0002003900300004F078FC0023804695
:1034700089469B462EE78022120603008A18BEE783
:103480002B4B4C4ABBE73000390004F03BF9424675
:103490004B4605F087F802000B004046494605F010
:1034A000FBFA03000A00AAE7434B9E421ADC002203
:1034B000424B05F0F1FA002206000F003F4B2000BE
:1034C000290005F06FF80022374B04F01BF90B00C0
:1034D00002003900300004F041FC02238046894696
:1034E0009B46F7E60B0002003549002004F036FC4D
:1034F0000323804689469B46ECE600222A4B05F0D2
:10350000CBFA002206000F00274B2000290004F010
:10351000F9F80B0002003900300004F01FFC012311
:10352000804689469B46D5E6FFFF0F440000F07FAA
:10353000182D4454FB21F93FFFFFDB3FFFFF1F3EE7
:1035400011DA22E33AAD903FEB0D76244B7BA93F95
:10355000513DD0A0660DB13F6E204CC5CD45B73F63
:10356000FF8300922449C23F0D5555555555D53F0F
:103570002F6C6A2C44B4A2BF9AFDDE522DDEAD3F03
:103580006D9A74AFF2B0B33F711623FEC671BC3FA3
:10359000C4EB98999999C93FD0E80000B0E80000C1
:1035A0009C7500883CE4377E0000F03FFFFFF23F4F
:1035B000FFFFE53FFB21F9BFFF7F03400000F83F1D
:1035C0000000F0BF30B5204A4B0087B05B08934243
:1035D0001CDD1E4A934205DD02000B0005F05CFA7B
:1035E00007B030BD02AA01F007FE03231840049A79
:1035F000059B012818D002280DD000281ED0029863
:1036000003990124009402F059FEE9E70022002307
:1036100002F0EEF8E4E70298039902F0E9F880235B
:103620001B069C466144DBE700900298039902F078
:1036300045FE80231B069C466144D1E7029803990E
:1036400002F0D6F8CCE7C046FB21E93FFFFFEF7F51
:1036500049004B0819007047454AF8B5564692464E
:103660004B005B0D9A444D465F4644465246F0B4CB
:10367000894605000C000E000700132A22DC002AF0
:1036800047DB52463B4B134198460B0042461340E2
:10369000034311D0384A394B04F034F80022002398
:1036A00003F080F9002805D0002C41DB4E4643464C
:1036B00000279E43380031003CBC90469946A24604
:1036C000AB46F8BD5246332A08DD8023DB009A451D
:1036D000F2D102000B0004F015F8EDE7284A9446F9
:1036E000012263445242DA4093460242E4D0224A25
:1036F000224B04F007F80022002303F053F90028BE
:10370000D8D0002C1ADB5B464E469F433800310070
:10371000D2E7194A194B03F0F5FF0022002303F00A
:1037200041F90028C6D0002C16DB00270026C1E78F
:10373000802352465B0313419944B7E75346142B49
:1037400012D03423524601279B1A9F407F19AF4263
:103750009B415B429944D6E76400640825430027F7
:10376000002DA7D0074EA5E7133B9C46E144CAE7CE
:1037700001FCFFFFFFFF0F009C7500883CE4377ED3
:10378000EDFBFFFF0000F0BF30B5214A4B0087B0D2
:103790005B0893421EDD1F4A934205DD02000B00C9
:1037A00005F07AF907B030BD02AA01F025FD032328
:1037B0001840049A059B01281ED0022811D0002829
:1037C0001FD00298039902F013F880231B069C4631
:1037D0006144E7E7002300220093002302F06EFD1E
:1037E000E0E7012402980399009402F067FD80232A
:1037F0001B069C466144D5E70298039901F0F8FF47
:10380000D0E7012402980399009402F057FDC9E71C
:10381000FB21E93FFFFFEF7FF0B546464F46C0B4BE
:103820008BB004000D0000F0A9FB344B0600984655
:103830001B780F005BB2013338D02000290002F062
:10384000EDFD002832D02E4A2E4B2000290003F037
:10385000A9F88146002830D12B4A2C4B20002900A2
:1038600003F08CF8002821D004230093284B002279
:1038700001934B46089300230692079343461B7817
:103880006E465BB20494059502940395022B30D0EA
:10389000300002F0CDFD00282BD0336A002B03D07E
:1038A00005F0E4FD336A0360F769B669300039005A
:1038B0000BB00CBC90469946F0BD03230093144B0B
:1038C0006E4601930023089343461B7804940595A4
:1038D0005BB202940395002B05D1E0220D4B12063A
:1038E00006920793D4E700200B4906900791022B1C
:1038F000CED105F0BBFD22230360CEE720000020DF
:10390000EF39FAFE422E864051302DD5104987C03E
:10391000F0E80000FFFFEF470000F07FF0B54746FA
:1039200080B48CB004000D0000F09AFC3A4B060005
:103930001B780F005BB2984601330FD022002B009A
:103940002000290005F0FCFB002807D100220023FD
:103950002000290003F026F8002805D030003900A7
:103960000CB004BC9046F0BD2C4B0A900393434628
:103970000494059506940795002B1AD1E022284B54
:10398000120608920993200000220023290002F069
:10399000EFFF002838D00223029302A802F048FD6E
:1039A000002817D00A9B0193002B18D1089E099F6D
:1039B000D4E700221B4B2000089209932900002223
:1039C000002302F0D5FF00280FD0022302934346C4
:1039D000022BE2D105F04AFD22230360E2E705F065
:1039E00045FD0A9B01930360E0E7012302934346F0
:1039F000022B0BD105F03AFD212303600A4802F0A7
:103A000019FD08900991CDE70123029302A802F065
:103A10000FFD0028F2D1EDE720000020F4E80000BF
:103A2000FFFFEFC70000F0FF08EE0000F0B54646CC
:103A30004F46C0B48DB004000D0000F013FE3C4BA7
:103A400006001B780F005BB29846013310D02200AD
:103A50002B002000290005F073FB8146002807D1C8
:103A6000002200232000290002F092FF002806D146
:103A7000300039000DB00CBC90469946F0BD2D4B7E
:103A80000494059503934B460A9343460694079581
:103A9000002B1AD1E022284B12060892099320002D
:103AA00000220023290002F063FF002838D00223FF
:103AB000029302A802F0BCFC002817D00A9B0193D5
:103AC000002B18D108980999D4E700221B4B20003D
:103AD0000892099329000022002302F049FF0028E0
:103AE0000FD0022302934346022BE2D105F0BEFC25
:103AF00022230360E2E705F0B9FC0A9B019303600F
:103B0000E0E7012302934346022B0BD105F0AEFC04
:103B1000212303600A4802F08DFC08900991CDE74B
:103B20000123029302A802F083FC0028F2D1EDE702
:103B300020000020F8E80000FFFFEFC70000F0FFC2
:103B400008EE0000F0B55F464D4656464446F0B4D8
:103B500091B01F0004000D00160000F017FECF4BBF
:103B6000029003919B461B785BB2994601334FD07C
:103B700032003B003000390005F0E2FA00900028E6
:103B800046D122002B002000290005F0D9FA00229E
:103B90008246002834D100232000290002F0E8FEEC
:103BA00000283AD0002200233000390002F0E0FE65
:103BB0000590002800D174E006AB984601234246E8
:103BC0000693B74B5360434652469C60DD601A62D1
:103BD0001E615F614246002300249361D4614B461D
:103BE000002B00D194E00023AE4C00930194009888
:103BF000019911B03CBC90469946A246AB46F0BD37
:103C000000233000390002F0B3FE002800D0EBE0C2
:103C1000029B039C00930194E9E70298039902F048
:103C2000FDFB8146002800D186E00298039900221E
:103C3000002302F09DFE0028EAD02000290002F0B7
:103C4000EDFB029A039B009201930028CFD0300035
:103C5000390002F0E3FB029A039B009201930028D3
:103C6000C5D006AB98460423424606938C4B94601D
:103C7000D560536000230024136200239361D46154
:103C80005B461B78166157615BB2022B04D040463D
:103C900002F0CEFB002840D105F0E8FB22230360B0
:103CA0003BE03000390002F0B9FB029A039B00921E
:103CB000019300289BD0002200233000390002F03D
:103CC0005DFE002800D192E706AB984601234246EC
:103CD0000693734B53604346059A9C60DD601A62FD
:103CE0001E615F615B461B785BB2002B0BD000202E
:103CF00042466D499061D161022B09D105F0B6FBB6
:103D00002123036009E04246002300249361D4612B
:103D1000404602F08DFB0028F0D043461B6A002B82
:103D200004D005F0A3FB43461B6A03604346DC69ED
:103D30009B69009301945AE72000290002F06EFB72
:103D4000002800D171E73000390002F067FB00283D
:103D500000D16AE7029803990B00020005F0F0F920
:103D600006AB984600287AD10323424606934C4B73
:103D7000106253605B461B789460D5605BB216613D
:103D800057619946002B48D1E0224146474B120625
:103D90008A61CB61200000220023290002F0EEFDA1
:103DA000002800D173E70022414B3000390004F0B5
:103DB000F9FB04000D0002F043FB02000B002000A1
:103DC000290002F0D5FD002805D1E022394B12066A
:103DD00041468A61CB615B461B785BB299464B4694
:103DE000022B00D053E757E706AB98460123424623
:103DF00006932B4B536043469C60DD600024009A81
:103E0000284D1A621E615F619C61DD614B46009422
:103E10000195022B00D07BE7E9E600224146264BC4
:103E200020008A61CB6100220023290002F0A6FD58
:103E30000028D4D000221E4B3000390004F0B2FB21
:103E400004000D0002F0FCFA02000B002000290023
:103E500002F08EFD0028BED10022134BB8E70123EB
:103E6000424606930E4B536043464A469C60DD60D3
:103E70001A621E615F6100245B461C57002C00D152
:103E800041E7002300221900100003F067FF4346BA
:103E90009861D961022C00D130E739E72000002079
:103EA00000E900000000F03F0000F0FFFFFFEF47D7
:103EB0000000E03FFFFFEFC70000F07FF0B546468F
:103EC0004F46C0B48DB004000D0001F09BFB294BA0
:103ED000009001911B785BB29846013312D022000A
:103EE0002B002000290005F02BF98146002809D17C
:103EF0000026002732003B002000290002F03EFD92
:103F0000002806D1009801990DB00CBC9046994646
:103F1000F0BD01230293184B0694079503934B467B
:103F20000A93434604940595002B15D03B003200BC
:103F30003000390003F012FF434608900991022B2C
:103F40000CD105F093FA212303600A9B0093002B08
:103F50000AD108980999D7E70896099702A802F0AC
:103F600067FA0028F1D1ECE705F080FA0A9B00938C
:103F70000360EEE72000002004E90000F0B557469A
:103F800080B44B000E00CC0F954984B007005B084D
:103F90008B420ED993498B4200D884E03203120B36
:103FA000024300D0F7E03100002C78D0002000213F
:103FB00075E08D4A934200D9B6E08C4A934200D80E
:103FC000CAE000239A463A0033003800310004F07A
:103FD000E9FA04000D00864A864B04F0E3FA864AAB
:103FE000864B04F059FD22002B0004F0DBFA844AD2
:103FF000844B03F087FB22002B0004F0D3FA824AA3
:10400000824B04F049FD22002B0004F0CBFA804AD9
:10401000804B03F077FB22002B0004F0C3FA020070
:104020000B003800310004F037FD534604000D004A
:104030000200002B00D1B4E00B003800310004F086
:10404000B1FA0F008021060022002B000020C905D4
:1040500004F022FD02000B003000390003F07EFE68
:1040600002000B000298039904F016FD009A019BD0
:1040700004F012FD0B0002006749002004F00CFD63
:10408000664B9A4500DB7AE0FA24A40054442405E8
:1040900063181900B82300225B0404F083FA04B00B
:1040A00004BC9246F0BD5E4A5E4B310002F07AFCE1
:1040B000002869D15C4A5D4B3800310002F05EFC9B
:1040C000002800D072E75A4BE4001C19594A5A4B99
:1040D0003800310004F066FA2268636803F012FBCE
:1040E00005F04EF8824605F081F8544A544B04001E
:1040F0000D0004F057FA02000B003800310004F004
:10410000CBFC504A009001914F4B2000290004F055
:1041100049FA02900391029A039B0098019904F0D6
:10412000BBFC07000E004EE7484A9342CBD8484BF1
:10413000E5005B191A685B68310004F0ADFC454B83
:10414000009001915D192A686B6802920393012324
:104150001B1B1B1B9A46DEE73F4A404B310003F016
:10416000D1FA00222C4B02F01DFC002800D128E7D8
:104170000022294B3800310003F0C4FA8FE754467F
:104180002405631819008AE7334A344B10001900DC
:1041900004F008FA83E702003300310003F0B2FABA
:1041A0007DE70B003800310004F0FCF9802300901B
:1041B00001910022DB052000290004F06DFC0200C3
:1041C0000B000098019903F0C9FD3A00330004F098
:1041D00063FC02000B0000200F4904F05DFC5EE769
:1041E000412E8640FFFFEF7F422ED63FFFFF2F3E3E
:1041F000D0A4BE726937663EF16BD2C541BDBB3EED
:104200002CDE25AF6A56113F93BDBE166CC1663FCA
:104210003E5555555555C53F0000F03F03FCFFFF87
:10422000EF39FAFE422E864051302DD5104987C015
:1042300010E90000FE822B654715F73F0000E0FE05
:10424000422EE63F763C7935EF39EA3DB1A2F03FA8
:1042500030E9000020E900009C7500883CE4377ECE
:10426000F0B557464E464546E0B4DA4A88B00B1ED4
:10427000934255DC4A005208024300D1EFE0002986
:1042800000DA79E1D44B002204F08CF93625D34CC6
:104290000B006D42A34247DC1A151B031B0B98460B
:1042A000CF4C8023A446CF4C5B0344442340CE4CE8
:1042B000624452195C4045461B1599462543CA4B3A
:1042C00029009144002204F0E7FB434602331B031C
:1042D00006000F001B0B0022022B2FDC002302F034
:1042E00047FB002800D1C1E04B46002B00D14CE138
:1042F000484604F07BFFBD4ABD4B04000D0004F0AE
:1043000051F9BC4A06000F00BB4B2000290004F005
:1043100049F902000B003000390003F0F3F907E01F
:10432000AE4C0025A342B7DD02000B0003F0EAF912
:1043300008B01CBC90469946A246F0BD8023DB0520
:1043400003F0E0F902000B003000390003F006FD35
:10435000040048460D0004F049FF2200029003913A
:104360002B00200029000494059504F01BF904009B
:104370000D00A24B020043449A460B0000940195A5
:1043800004F010F904000D009D4A9E4B04F00AF958
:104390009D4A9E4B03F0B6F922002B0004F002F96F
:1043A0009B4A9C4B03F0AEF922002B0004F0FAF874
:1043B000994A9A4B03F0A6F9009A019B04F0F2F88F
:1043C000974A00900191974B2000290004F0EAF8E9
:1043D000954A964B03F096F922002B0004F0E2F880
:1043E000934A944B03F08EF922002B0004F0DAF884
:1043F0000B0002000098019903F084F90D0041467A
:104400008D4B04005B1A51460B43002B54DD0022F8
:104410008A4B3000390004F0C5F832003B0004F04C
:10442000C1F84B460A00010000910192002B72D1A5
:10443000130029000200200003F064F9049A059B90
:1044400004F0B0F802000B000098019904F024FB7E
:1044500002000B003000390004F01EFB68E7002268
:1044600000230020764903F079FC61E7754A764B1A
:104470003000390004F096F802000B0000206F496C
:1044800004F00AFB320004000D003B00300039004C
:1044900004F088F80B0002002900200004F082F8E4
:1044A0004B4604000D00002B72D102000B003000BF
:1044B000390004F0F1FA3BE74B46002B00D1C5E090
:1044C00002980399494A4A4B04F06CF82200009084
:1044D00001912B003000390004F0DEFA049A059BAC
:1044E00004F060F8434A04000D0002980399424B1F
:1044F00004F058F802000B002000290004F0CCFA68
:1045000032003B0004F0C8FA02000B000098019949
:1045100004F0C2FA0CE7354A354B0298039904F0CF
:1045200041F8009A019B069007912000290003F0B2
:10453000E9F8049A059B04F035F82E4A04000D00B2
:10454000029803992C4B04F02DF802000B00200078
:10455000290003F0D7F802000B000098019904F03D
:104560009BFA32003B0004F097FA02000B00069819
:10457000079904F091FADBE602000B0004F08CFAD4
:104580000022002303F0EAFBD2E600200021CFE660
:10459000484604F02BFE154A154B0090019104F09B
:1045A00001F8144A0290039100980199124B03F00C
:1045B000F9FF02000B002000290004F06DFA320020
:1045C0003B0004F069FA02000B000298039904F022
:1045D00063FAADE6FFFF0F0000005043FFFFEF7FDF
:1045E00001FCFFFF645F09000000F03F0000E0FEF7
:1045F000422EE63F763C7935EF39EA3D86EBF9FF0E
:1046000044523EDF12F1C23FDE03CB966446C73F01
:10461000599322942449D23F935555555555E53F1A
:104620009FC678D0099AC33FAF788E1DC571CC3F25
:1046300004FA97999999D93F51B806000000E03FD4
:10464000000050C3555555555555D53F22002B00F8
:104650003000390004F020FA049A059B03F0A2FF11
:10466000F6E6C046F0B54F464646C0B43B4A83B076
:1046700004000D000B1E93421CDC4A00520802434A
:104680005BD0002960DB0022354B03F08BFF362224
:104690000D000B003349040052428B420EDD220014
:1046A0002B002000290003F02DF803B00CBC90462D
:1046B0009946F0BD2B4900228B42F0DC2A4918159F
:1046C0008C4660448218D10F89461B034A441B0B59
:1046D0001000984604F08AFD4A46244B06009B1AB7
:1046E00042461B051A430F0020001100FFF7B8FDDA
:1046F0001F4A04000D001F4B3000390003F052FF29
:104700001D4A009001911D4B2000290003F04AFF33
:1047100002000B000098019902F0F4FF184A04000F
:104720000D00184B3000390003F03CFF02000B0075
:104730002000290002F0E6FFB7E700220023002056
:10474000114903F00BFBB0E702000B0004F0A4F9E1
:104750000022002303F002FBA7E7C046FFFF0F0083
:1047600000005043FFFFEF7F01FCFFFFFF0300004D
:10477000362BF111F3FE593D0EE526157BCBDB3FC1
:1047800000609F501344D33F000050C3F0B556461D
:104790004D4644465F46F0B41C001300670091B0DC
:1047A0007F080093019406000D0080468946A246CA
:1047B0003B4332D06E4B6C0064089C4229DC26D00F
:1047C0009F4226DC6A4B9F4200D189E000239B4632
:1047D0004B46002B00DA87E0002A2FD1644B9F4222
:1047E00000D19FE0634B9F425DD08023DB059A455B
:1047F00001D100F0C1FB604B9A451FD14B46002B05
:104800001CDB3000290000F0FDFE060007E0002858
:104810000DD05A4BE01830430BD1002655493000DB
:1048200011B03CBC90469946A246AB46F0BDA742AB
:10483000C8DD534801F0FEFD0600F0E73000290016
:10484000FEF706FF4346002B1DD0EB0F013B9846B9
:104850005B464246134379D04A4B9F4200DC9FE0BF
:10486000494B9F4201DC00F0CEFB484B9C4279DD76
:104870005346002B79DD464A464B1000190003F0E1
:1048800091FE0600CBE7002C04D03A4AAB009B080F
:104890009342DAD15346002B00DAADE34B46002BAE
:1048A0000DDB0600BBE753462900002BB7DA3200C8
:1048B0002B0000202F4903F051FA0600AFE72F4BE1
:1048C0009C465B4664441C4301D100F02BFC5B46D4
:1048D0000600012BA3D180231B069C4661449EE762
:1048E000002A00D172E794E72B4B9F422BDC274B29
:1048F0009F4200DC70E729493B158C466344142B2A
:1049000001DC00F0F2FB3421CB1A0099D9400800F9
:104910009840824200D05FE70123194001335B1ABF
:104920009B4659E7154BE018064300D175E7174B36
:104930009C4200DC51E35346002B16DB009B019C9C
:104940001E0021006BE702239B4645E732002B0047
:104950003000290004F0A0F802000B0003F0FEF97B
:1049600006005CE75346002B85DB0026002156E756
:104970000000F07F0000F03F0000E03F000010C0AA
:1049800008EE00000000E0410000F043FFFFEF3FB1
:104990009C7500883CE4377EFFFF3F4301FCFFFF2E
:1049A000E84B00229C4206DC0022E74B03F0FAFDB4
:1049B00035220C005242E54D2315AC46634499461E
:1049C0002403E34DE34B240B914425439C4209DD32
:1049D000E14B9C4200DCA9E301239C46DF4BE14410
:1049E0009C466544002300240022089309940C93FC
:1049F0000D940024D64B06920793069A079B290034
:104A00000A900B9104F048F8069A079B06000F00E5
:104A10000A980B9902F076FE02000B000020CC49A8
:104A200003F09CF90A00010013000E910F9202009E
:104A30003900300003F0B6FD0A0001008020049127
:104A40000592130000228021000384460292039302
:104A5000002289056D100D4365442B1902980399B6
:104A600014001D0003F09EFD02000B003000390011
:104A700004F012F8069A079B06000F002000290098
:104A800004F00AF802000B000A980B9904F004F8ED
:104A9000029A039B03F086FD02000B0030003900F0
:104AA00003F0FAFF0E9A0F9B03F07CFD049D059E18
:104AB000069007912A0033002800310003F072FDB0
:104AC00006000F00A64AA74B03F06CFDA64AA74BB1
:104AD00002F018FE32003B0003F064FDA44AA54B2F
:104AE00002F010FE32003B0003F05CFDA24AA34B33
:104AF00002F008FE32003B0003F054FDA04AA14B37
:104B000002F000FE32003B0003F04CFD9E4A9F4B3A
:104B100002F0F8FD320004000D003B0030003900C7
:104B200003F040FD02000B002000290003F03AFDD5
:104B3000029E039F04000D000498059932003B007B
:104B400002F0E0FD069A079B03F02CFD22002B00EB
:104B500002F0D8FD32000A900B913B003000390082
:104B60000296039703F01EFD0022894B04000D00FE
:104B700002F0C8FD0A9A0B9B02F0C4FD00260F004C
:104B800032000B000298039903F00CFD0022029002
:104B900003917F4B3000390003F07EFF22002B0091
:104BA00003F07AFF02000B000A980B9903F074FFE0
:104BB000049A059B03F0F6FC320004000D000698F1
:104BC00007993B0003F0EEFC02000B0020002900D7
:104BD00002F098FD04000D0002000B0002980399FA
:104BE00002F090FD0026E0226A4B120630000F0012
:104BF00003F0D8FC029A039B049005913000390021
:104C000003F04AFF02000B002000290003F044FFDC
:104C1000614A604B03F0C6FC604A04000D00604B23
:104C20003000390003F0BEFC02000B002000290018
:104C300002F068FD0C9A0D9B02F064FD06004846E8
:104C40000F0004F0D3FA04000D0004980599320017
:104C50003B0002F057FD089A099B02F053FD220029
:104C60002B0002F04FFD002022002B000290039148
:104C700003F012FF089A099B03F00EFF049A059BAC
:104C800003F00AFF02000B003000390003F004FFBC
:104C9000049005915B464246013B134300D197E1E6
:104CA00000232B4C069307940098019900260B00D3
:104CB00032000F0003F0F0FE029A039B03F072FC37
:104CC000009A019B04000D000498059903F06AFC0A
:104CD00002000B002000290002F014FD04000D006A
:104CE000029803993B0032000494059503F05AFCA6
:104CF000009001910B0002002900200002F002FD4B
:104D0000284B81460F1E8A469F4200DC3CE1264B21
:104D1000CB18034300D0DBE104980599234A244BC8
:104D200002F0F0FC009A019B04000D004846390097
:104D300003F0B2FE02000B002000290001F032FE59
:104D40003E0037E0FFFF0F000000404301FCFFFF83
:104D50000000F03F8E98030079B60B000000F0FFD2
:104D6000EF4E454A287ECA3F65DBC9934A86CD3F50
:104D700001411DA96074D13F4D268F515555D53F36
:104D8000FFAB6FDBB66DDB3F033333333333E33FCE
:104D90000000084009C7EE3FFD033ADCF5015B1453
:104DA000E02F3EBEFFFF8F40000070BFFE822B65EC
:104DB0004715973C002800D08AE18022E74B520338
:104DC0009C461300361566443341E549DB195E0005
:104DD0001C001B038C461B0B13431422760DE14F62
:104DE00066443741961B334198465346BC430020E6
:104DF0002100002B00DAA9E102000B0000980199C4
:104E000003F04AFE0B0000900191020004980599FE
:104E100002F078FC43461B05994600200022D24B45
:104E200006000F0003F0BEFB009A019B0290039165
:104E30003000390003F030FE02000B0004980599A1
:104E400003F02AFEC94ACA4B03F0ACFBC94A04006E
:104E50000D00C94B3000390003F0A4FB02000B0029
:104E60002000290002F04EFC04000D0002000B009F
:104E70000298039902F046FC029A039B06000F0079
:104E800003F00AFE02000B002000290003F004FEDC
:104E90003200009001913B003000390003F082FBAA
:104EA00004000D00B54AB64B03F07CFBB54AB64B87
:104EB00003F0F2FD22002B0003F074FBB34AB44B65
:104EC00002F020FC22002B0003F06CFBB14AB24B35
:104ED00003F0E2FD22002B0003F064FBAF4AB04B6D
:104EE00002F010FC22002B0003F05CFB02000B0020
:104EF0003000390003F0D0FD04000D0002000B006B
:104F00003000390003F04EFB802302900391002211
:104F1000DB052000290003F0BFFD02000B00029812
:104F2000039902F01BFF009A019B04000D00300062
:104F3000390003F037FB009A019B02F0E3FB02000B
:104F40000B002000290003F0A7FD32003B0003F016
:104F5000A3FD02000B000020924903F09DFD4B468B
:104F60005B181A15002A00DCF4E01900069A079B6A
:104F700003F018FB060052E4320030002B00290039
:104F800003F010FB06004AE4874B4E0076089E4271
:104F900000DCBFE0854BCB1803430CD1009A019B8A
:104FA00003F07AFD02000B000498059901F0F0FC73
:104FB000002800D101E7069807997D4A7D4B03F050
:104FC000F1FA7B4A7B4B03F0EDFA0600FFF727FC72
:104FD0000023794C0693079466E65346002B00DBCA
:104FE000C3E4009B019C802212061E00944623000D
:104FF00063441900FFF713FC02000B00002069490D
:1050000002F0ACFE4AE46D4B9C4200DCAAE4654B26
:105010009C4201DDFFF72CFC0022624B03F03CFDBB
:10502000C022674BD20504000D0003F0BBFA654AAD
:1050300006000F00644B2000290003F0B3FA0022A1
:1050400002900391614B2000290003F0ABFA0200AB
:105050000B005F485F4903F01FFD22002B0003F0A7
:10506000A1FA02000B0000205B4903F015FD2200AD
:10507000049005912B002000290003F093FA020010
:105080000B000498059903F08DFA544A4C4B03F039
:1050900089FA02000B000298039903F0FDFC02005C
:1050A0000B0004000D003000390002F02BFB002241
:1050B00010003B0032000290039103F0EDFC02006F
:1050C0000B002000290003F0E7FC04900591E1E5C6
:1050D000434A444B0698079903F064FA404A414B0F
:1050E00003F060FA0600FFF79AFB002A01D0FFF7F1
:1050F000A5FB1432D31A3A001A41110099408F428D
:1051000001D0FFF76FFB012313400222D31A9B4605
:10511000FFF768FB304B9E4200DD4EE600239946C8
:1051200098467AE602000B00FFF714FC80232E4C11
:10513000DB05089309942D4B2D4C00220C930D9404
:1051400080242C4BE4020692079356E443465B42CC
:10515000984651E6424601F015FA07E702FCFFFFC8
:1051600001FCFFFFFFFF0F00432EE63FEF39FAFE81
:10517000422EE63F396CA80C615C20BED0A4BE7202
:105180006937663EF16BD2C541BDBB3E2CDE25AF13
:105190006A56113F93BDBE166CC1663F3E555555CC
:1051A0005555C53F0000F03FFFCB904000346F3FA6
:1051B00059F3F8C21F6EA5010000F0BFFEFFEF3FDC
:1051C0004715F73F44DF5DF80BAE543E0000D03F7B
:1051D000555555555555D53F0000E03FFE822B658E
:1051E0009C7500883CE4377E03B8E23F06D0CF438D
:1051F000EBFD4C3E0000F83FF0B54E4657464546A5
:10520000E0B4DC4B4E0090B01700894676089E4211
:1052100000DC81E0D84B9E4220DCD84A002900DC2B
:1052200089E1D74B03F038FCD54B04000D009E42BA
:1052300000D18AE0D34AD44B03F02EFC02000B00CD
:1052400020003A607B60290003F026FCCD4ACE4B5B
:1052500003F022FCB860F960012066E0CB4B9E426F
:1052600000DC8DE0CA4B9E4265DCCA4932158A4695
:10527000924453461B05F51A2900040003F080FFF1
:1052800003F0B4FF02000B00200029000A920B93E8
:1052900003F002FC0022C04B03F084F9029003915A
:1052A00003F06EFF03F0A2FF04000D0002000B00EC
:1052B000029803990C940D9503F0EEFB0022B64B77
:1052C00003F070F9002200230E900F9101F050FBC3
:1052D000002800D14CE1002300222000290001F029
:1052E00047FB0222431E9841131AAC4A390001922F
:1052F00002220AA80092524600F094FB4B46002B73
:1053000013DA8022120694467B68404263447B6035
:10531000FB686344FB6008E002000B003A607B60BE
:10532000002200230020BA60FB6010B01CBC904635
:105330009946A246F0BD02000B0003F0ADFBB86039
:10534000F960386079600020EFE7D3228E4B520578
:1053500003F0A2FB924A934B04000D0003F09CFB68
:1053600002000B0020003A607B60290003F094FBF0
:105370008B4A8C4B03F090FBB860F9600120D4E7B6
:10538000FEF766F9884A894B04000D0003F00AF91C
:105390000022874B02F0B6F903F0F2FE804603F0DC
:1053A00025FF764A764B0690079103F0FBF8020042
:1053B0000B002000290003F06FFB734B0290039158
:1053C000069807996F4A03F0EDF8434604000D0074
:1053D000049405951F2B30DC013B764A9B009B58BB
:1053E0009E422AD002000B000298039903F054FB5E
:1053F00002000B0005000C003A607B6002980399E4
:105400002A00230003F048FB049A059B03F044FBA9
:1054100006000B003200BA60FB604B464046002B92
:1054200000DB82E780231B069C46644461443D60A8
:105430007C60BE60F960404277E7049A059B029861
:10544000039903F029FB0B0002003A607B604B00DC
:1054500036155B0D05000C00F31A102BCEDD0698F7
:105460000799D322484B520503F09CF804000D0025
:1054700002000B000298039903F00EFB02000B00E0
:10548000029803990892099303F006FB22002B006F
:1054900003F002FB04000D0006980799404A414BB7
:1054A00003F080F822002B0003F0F6FA02000B0054
:1054B000049005910898099903F0EEFA02000B0098
:1054C0003A607B604B005B0DF61A0500089A099B59
:1054D0000C0002920393312E90DD06980799B822B2
:1054E000304B920503F05EF804000D0002000B0043
:1054F0000298039903F0D0FA0A0001001300029108
:10550000039202000898099903F0C6FA22002B00C2
:1055100003F0C2FA04000D0006980799264A274BAB
:1055200003F040F822002B0003F0B6FA02000B0053
:105530000492059358E7124B02F0E4F8104B040074
:105540000D009E423CD00F4A0F4B02F0DBF80200E8
:105550000B0020003A607B60290003F09DFA094AA5
:10556000094B02F0CFF8B860F96001204042DCE658
:105570000323BAE6FB21E93F7BD9024000004054F7
:10558000FB21F93F3163621A61B4D03DFB213941FF
:10559000FFFFEF7FEAFBFFFF00007041C0E9000062
:1055A0007370032E8A19A33B83C8C96D305FE43F33
:1055B0000000E03F40E90000C14920259A837B3983
:1055C000D3220D4B520502F09DF80C4A0C4B0400FF
:1055D0000D0002F097F802000B0020003A607B609B
:1055E000290003F059FA054A054B02F08BF8B86020
:1055F000F9600120404298E661B4D03D7370032EFB
:105600008A19A33BF0B556464D4644465F46754B56
:10561000F0B40A000D00190083B006000400294010
:10562000994200D1BAE0002D00DC94E02D1500D1A4
:10563000A3E06D4B12039C468023120B5B03654471
:105640001A43EB0700D581E06B109846E30F9B18D7
:105650009B18802216210026002764009203B818A8
:10566000984202DC87181B1AB618E00F5B0001395C
:105670001B18640052080029F1D1002201929446BF
:10568000802212062020914609E09F4241D0E10F7E
:10569000C9180138CB186400520800281ED0614692
:1056A00051189F42F1DA8D18AC46CD0FED07BA467E
:1056B0004D4539D0DB1B8C42BF417F42DB1B641A56
:1056C000019901388B46934459460191E10FC9185D
:1056D0005746CB18640052080028E0D123432BD151
:1056E000019B5B08414972108C466244F10702D568
:1056F000802109060B43414609058D181E002F0025
:105700003000390003B03CBC90469946A246AB46F7
:10571000F0BDA1420ED88D18AC46CD0FED074D451A
:1057200048D09A460023CAE76546002DC2DB7D1C9F
:10573000AA46BFE73B00AAE7019B01333ED0019A8E
:1057400001239446134063445B08CBE7E30F520008
:105750009A18640078E76B005B0803432F00002B66
:10576000CED00025002A31D1E20A153D6405002A79
:10577000FAD080235B031A4223D180200023400308
:1057800000E00B005200591C0242FAD02020401ABF
:10579000ED1A2300C3408C401A434AE702002B0055
:1057A000290002F0FFFE32002B0001F0ABFF0600E3
:1057B0000F00A5E76546002DB9DAB2E701360023F0
:1057C00090E7012320205B420021E1E73B0002003B
:1057D000390003F061F902000B0002F0BFFA060085
:1057E0000F008DE70000F07F01FCFFFF0000E03FAD
:1057F000F0B54F464646C0B487B000920193754B52
:105800004F00814688467F089F4263DC03F0B8FC66
:10581000002800D1DAE04A4643464846414602F0B5
:10582000C1FE04000D006C4A6C4B02F0BBFE6C4ADA
:105830006C4B01F067FF22002B0002F0B3FE6A4AB6
:105840006A4B03F029F922002B0002F0ABFE684AF4
:10585000684B01F057FF22002B0002F0A3FE664ABE
:10586000664B03F019F922002B0002F09BFE644AFC
:10587000644B01F047FF22002B0002F093FE0290E0
:1058800003910022604B2000290002F08BFE029A57
:10589000039B06000F002000290002F083FE009AFF
:1058A000019B04000D004846414602F07BFE0200C9
:1058B0000B002000290003F0EFF802000B0030007D
:1058C000390003F0E9F802000B0000204F4903F013
:1058D000E3F870E002000B0002F064FE04000D002B
:1058E0003D4A3E4B02F05EFE3D4A3E4B01F00AFF50
:1058F00022002B0002F056FE3B4A3C4B03F0CCF852
:1059000022002B0002F04EFE394A3A4B01F0FAFE1B
:1059100022002B0002F046FE374A384B03F0BCF859
:1059200022002B0002F03EFE354A364B01F0EAFE23
:105930002B00220002F036FE354B029003919F426D
:105940009FDD344B00229F423ADC334900207B1814
:105950002E4916001F0003F09FF8049005910022C5
:10596000294B2000290002F01DFE32003B0003F00D
:1059700093F8029A039B06000F002000290002F012
:1059800011FE009A019B04000D004846414602F0BA
:1059900009FE02000B002000290003F07DF8020040
:1059A0000B003000390003F077F802000B00049878
:1059B000059903F071F807B00CBC90469946F0BD0C
:1059C000164B002604920593154FC8E700200F4997
:1059D000F1E7C046FFFF3F3ED43888BEE9FAA8BDD4
:1059E000C4B1B4BD9EEE213EAD529C804F7E923E2E
:1059F0009015CB19A001FA3E7751C1166CC1563FE4
:105A00004C5555555555A53F0000E03F0000F03F6F
:105A10003233D33F0000E93F0000E0FF0000E73FE2
:105A20000000D23FF0B556464D4644465F46F0B4BE
:105A30008E4CA544099119001400A89A0B938C4B25
:105A40009200D2580B000290013BE01E18211D006D
:105A500016000892009300F08FFEC3430200DB178C
:105A60001A401300110001330E929A009B1ADB00BA
:105A70001B1906934C1B761918D4A99BA5009C46AC
:105A8000361926AF6544013607E0286803F0AEFBFF
:105A9000013403C70435B44208D0002CF5DA0020E5
:105AA0000021013403C70435B442F6D1089B002B12
:105AB00001DA00F0F9FB76AB19008B4626AA914675
:105AC000089A0A930132D2009344029A9A46904669
:105AD000009BDB00994408339844009B002B00DABC
