:10000000C82A002015010000990100009901000094
:1000100000000000000000000000000000000000E0
:100020000000000000000000000000009901000036
:10003000000000000000000099010000990100008C
:100040009901000099010000990100009901000048
:100050002918000099010000990100009901000091
:100060009901000099010000990100009901000028
:100070009901000099010000990100009901000018
:100080009901000099010000990100009901000008
:1000900099010000990100009901000099010000F8
:1000A00099010000990100009901000099010000E8
:1000B0000000000010B5064C2378002B07D1054B3B
:1000C000002B02D0044800E000BF0123237010BDC4
:1000D0005C0800200000000068470000084B10B5D5
:1000E000002B03D00749084800E000BF0748036819
:1000F000002B00D110BD064B002BFBD09847F9E731
:100100000000000060080020684700006847000009
:100110000000000080B582B000AF164B7B60164B2C
:100120003B607A683B689A420CD007E03B681A1D36
:100130003A607A68111D796012681A603A680F4B4C
:100140009A42F3D30E4B3B6004E03B681A1D3A60C1
:1001500000221A603A680B4B9A42F6D30A4B7B6036
:100160000A4B7A68FF218A439A60094B9847094BEA
:100170009847FEE768470000000000205C08002068
:100180005C080020C80A00200000000000ED00E02C
:1001900035290000FD16000080B500AFFEE7C0461F
:1001A00080B584B000AF78600A4B1B68002B02D189
:1001B000084B094A1A60074B1B68FB60054B1A681D
:1001C0007B68D218034B1A60FB681800BD4604B068
:1001D00080BDC04678080020C82A002080B582B0C3
:1001E00000AF786001235B421800BD4602B080BDBD
:1001F00080B582B000AF786039603B6880229201A0
:100200005A6000231800BD4602B080BD80B582B0A0
:1002100000AF786001231800BD4602B080BDC04623
:1002200080B584B000AFF860B9607A600023180030
:10023000BD4604B080BDC04680B500AF674A536874
:100240001E218B4302210B435360654B644A926924
:1002500008210A439A61634B634A9A82614A938AEE
:1002600002210B439382C0465E4BDB68022213409F
:10027000FAD05E4B01221A70C0465C4B1B78DBB291
:100280001A000123134005D0584B5B78DBB25BB2F8
:10029000002BF2DB554B01229A60C046534B5B7832
:1002A000DBB25BB2002BF9DB504B514A5A60C046BF
:1002B0004E4B5B78DBB25BB2002BF9DB4B4B8222FF
:1002C000D2015A80C046494B5B78DBB25BB2002B4F
:1002D000F9DB444A938C80218B439384C046414B85
:1002E000DB6810221340FAD03E4B424ADA62C04625
:1002F0003C4BDB6810221340FAD03A4A394B9B8CB6
:100300009BB23D490B439BB29384C046354BDB689F
:1003100010221340FAD0334A324B9B8C9BB20221FD
:100320000B439BB29384C0462E4BDB688022134064
:10033000FAD02C4BDB6840221340F5D0C046294B45
:10034000DB6810221340FAD0284B00229A60C04686
:10035000264B5B78DBB25BB2002BF9DB234B274AE1
:100360005A60C046214B5B78DBB25BB2002BF9DBF5
:100370001C4A136A22490B4013621A4A136A8021ED
:100380008B431362194B03229A60184B1D4A5A6023
:10039000C046164B5B78DBB25BB2002BF9DB134B2C
:1003A000194A9A60114B194A5A60C0460F4B5B7844
:1003B000DBB25BB2002BF9DB094B00221A72084B4F
:1003C00000225A72064B00229A72054B0022DA7202
:1003D0000F4B104A1A60C046BD4680BD0040004128
:1003E00000040040000800400C060000000C004023
:1003F00001050100DC05FF7D040A00000007030081
:10040000FFFCFFFF030601000408000004060100D2
:1004100000000020006CDC0280B582B000AF02005A
:10042000FB1D1A70FB1DFA1D12780F210A401A706D
:10043000FB1D1B78502252421343DBB21800034BC2
:100440009847C046BD4602B080BDC046ED070000DB
:1004500080B582B000AF0200FB1D1A70FB1DFA1DB3
:1004600012787F210A401A70FB1D1B781B09DBB232
:1004700010221343DBB21800064B9847FB1D1B7874
:100480000F221340DBB21800024B9847C046BD460E
:1004900002B080BDED07000080B582B000AF020061
:1004A000FB1D1A70FB1DFA1D12783F210A401A70BD
:1004B000FB1D1B7840221343DBB21800024B984708
:1004C000C046BD4602B080BDED07000080B500AF5C
:1004D000AF20024B9847C046BD4680BDED070000E7
:1004E00080B582B000AF0200FB1D1A708120064B60
:1004F0009847FB1D1B781800034B9847FB1D1B7882
:100500001800BD4602B080BDED07000080B500AF09
:10051000A620024B9847C046BD4680BDED070000AF
:1005200090B583B000AF0200FB1D1A70104B9847C6
:10053000FB1D1B78002B17D00E4B0022002118004A
:100540000D4B98470D4B0E4802222B210D4CA04716
:100550000A4B0D48132235210A4CA04701232222C1
:100560001D213F20094CA047C046BD4603B090BDA9
:100570003510000004000020590C00000C00002081
:1005800060430000810F000070430000210A00005A
:1005900080B582B000AF78607B68032B07DC7B6896
:1005A000DA00054B1A60054B00221A6000E0C046D5
:1005B000BD4602B080BDC046B80A0020BC0A00207B
:1005C00090B583B000AF0200FB1D1A70FB1D1B78B5
:1005D0000A2B11D11D4B00221A601D4B1B680833DA
:1005E0001C4A134004D5013B2022524213430133DD
:1005F0001A00174B1A6025E0144B1B68D9B2144B34
:100600001B68DAB2144CFB1D18782300134CA0476A
:100610000E4B1B689A1D0D4B1A600C4B1B687F2BF1
:1006200010DD0A4B00221A60094B1B680833094A87
:10063000134004D5013B20225242134301331A00D8
:10064000034B1A60C046BD4603B090BDBC0A0020F3
:10065000B80A00201F0000800C000020190F0000C5
:1006600090B583B000AF00237B6013E000233B60B4
:100670000AE07B68D8B23B68D9B2012300220C4C57
:10068000A0473B6801333B603B687F2BF1DD7B6813
:1006900001337B607B68032BE8DD064B00221A6088
:1006A000054B00221A60C046BD4603B090BDC0464F
:1006B00025120000BC0A0020B80A002080B582B0D4
:1006C00000AF00237B6002E07B6801337B607B68C6
:1006D000034A9342F8DDC046BD4602B080BDC04625
:1006E000E703000080B500AF01221B210020094B69
:1006F000984700221B210020074B9847074B98473B
:1007000001221B210020044B9847044B9847C04608
:10071000BD4680BDED1200008D140000BD06000036
:1007200080B500AF0222112101201D4B9847032202
:10073000162101201A4B9847032217210120184B3C
:100740009847184B174A126A80210A431A62164BBF
:10075000164A5A80164A136801210B431360C0469B
:10076000134B1B68DB07DB0FDBB2002BF8D1104B00
:10077000DB69DB07DB0FDBB2002BF1D10C4B0D4A41
:100780001A600B4B0C4A5A60094B03221A73084B30
:10079000074A126802210A431A60C046BD4680BD5E
:1007A000FD14000000040040000C0040194300004C
:1007B000001C00428C0001000022020080B582B0C3
:1007C00000AF0200FB1D1A7000221E210120054B04
:1007D0009847054BFA1D12789A62C046BD4602B092
:1007E00080BDC0468D140000001C004280B582B060
:1007F00000AF0200FB1D1A70C0460A4B1B7E9B0710
:10080000DB0FDBB2002BF8D0074994228023DB05F5
:100810008B50044BFA1D12789A62C046BD4602B056
:1008200080BDC046001C00420044004180B582B03B
:1008300000AF0200FB1D1A70C0460A4B1B7E9B07CF
:10084000DB0FDBB2002BF8D0074998228023DB05B1
:100850008B50044BFA1D12789A62C046BD4602B016
:1008600080BDC046001C00420044004180B500AF7E
:1008700001221E210120234B9847234B9847234BED
:100880009847A820224B98471F20224B9847D320F7
:10089000204B984700201F4B984740201D4B9847FE
:1008A000A1201C4B9847C8201A4B9847DA20194BB7
:1008B00098470220174B98478F20174B9847A42042
:1008C000144B9847154B9847D520124B98478020DA
:1008D000104B98478D200F4B984714200D4B98478D
:1008E000DB200C4B984740200A4B9847D920094BF6
:1008F0009847F120074B9847094B9847C046BD469B
:1009000080BDC046ED120000E50600002107000092
:10091000BD070000ED070000E10400000D05000028
:10092000CD04000080B582B000AF7860034B7A68D8
:100930001A60C046BD4602B080BDC0467C0800209B
:1009400090B585B000AF78600C0010001900FB1C5A
:10095000221C1A70BB1C021C1A707B1C0A1C1A7009
:100960007B68FB600F4B1B68FA1C1278D101BA1C24
:1009700012788A189B18BB60BB685A1CBA60FA6868
:10098000511CF96012781A707B1C7A1C1278013A9B
:100990001A707B1C1B78002BEED1C046BD4605B0FB
:1009A00090BDC0467C08002090B583B000AF040025
:1009B00008001100FB1D221C1A70BB1D021C1A70BE
:1009C0007B1D0A1C1A70084B1A68FB1D1B78DB0183
:1009D0001900BB1D1B78CB18D3187A1D12781A701A
:1009E000C046BD4603B090BD7C08002080B582B0F3
:1009F00000AF0200FB1D1A70BB1D0A1C1A70074BCA
:100A00001A68FB1D1B78DB011900BB1D1B78CB1876
:100A1000D3181B781800BD4602B080BD7C080020AA
:100A2000B0B584B000AF05000C0010001900FB1D2C
:100A30002A1C1A70BB1D221C1A707B1D021C1A7006
:100A40003B1D0A1C1A70FB1D1A787B1D1B78D318DE
:100A5000802B06DD7B1DFA1D1278802149428A1AFF
:100A60001A700F23FB18BA1D1278D2081A70BB1D1A
:100A70001A780F23FB181B78DB00D31A01229A4047
:100A80000E23FB181A707B1D1B78002B00D1A4E0ED
:100A90003B1D1B78012B2FD0022B00D195E0002BA2
:100AA00061D09BE0FA1D7B1D12781B78D318DAB257
:100AB0000D23FC180F23FB181B7811001800494B5D
:100AC0009847030023700D23FB180D22B9180E223E
:100AD000BA18097812780A431A70FA1D7B1D127829
:100AE0001B78D318D9B20D23FB181A780F23FB18E3
:100AF000187800233C4CA0477B1D1B787A1D591E9B
:100B00001170002BCED169E0FA1D7B1D12781B7885
:100B1000D318DAB20D23FC180F23FB181B78110031
:100B20001800304B9847030023700E23FB181B78E6
:100B30005BB2DB435BB20D22BA18127852B213409B
:100B40005AB20D23FB181A70FA1D7B1D12781B7800
:100B5000D318D9B20D23FB181A780F23FB18187875
:100B60000023214CA0477B1D1B787A1D591E117054
:100B7000002BC9D132E0FA1D7B1D12781B78D318E7
:100B8000DAB20D23FC180F23FB181B781100180094
:100B9000144B9847030023700D23FB180D22B9183E
:100BA0000E22BA18097812784A401A70FA1D7B1D75
:100BB00012781B78D318D9B20D23FB181A780F239B
:100BC000FB1818780023084CA0477B1D1B787A1D62
:100BD000591E1170002BCED100E0C046BD4604B0B6
:100BE000B0BDC046BD12000025120000B0B582B0F5
:100BF00000AF05000C0010001900FB1D2A1C1A7024
:100C0000BB1D221C1A707B1D021C1A703B1D0A1C86
:100C10001A703B1D1B78002B18D00FE0BA1D3B1D2E
:100C200012781B78D318D9B21823FB181C787B1DB7
:100C30001A78FB1D18782300064CA0473B1D1B7833
:100C40003A1D591E1170002BE8D100E0C046BD4688
:100C500002B0B0BD210A000090B585B000AF786049
:100C600008001100FB1C021C1A70BB1C0A1C1A7025
:100C70007B685A780D23FB18D2081A700C23FB18D6
:100C8000BA1C1278D2081A707B689B78002B51D05E
:100C9000012B00D07BE00E23FB1800221A7040E0ED
:100CA0000F23FB1800221A702DE07B685A680E2370
:100CB000FB181B78796809784B4319000F23FB1840
:100CC0001B78CB18D2180B23FB1812781A700E233E
:100CD000FA180C23FB1812781B78D318D8B20F23FC
:100CE000FA18FB1C12781B78D318D9B20B23FB1807
:100CF0001A780023284CA0470F23FB181A780F23DB
:100D0000FB1801321A707B681B780F22BA18127810
:100D10009A42CAD30E23FB181A780E23FB1801320D
:100D20001A700E23FA180D23FB1812781B789A42BA
:100D3000B6D32CE00E23FB1800221A701EE07B684D
:100D40005B680E22BA181278796809784A439818B5
:100D50000C23FA180E23FB1812781B78D318D9B27B
:100D60007B681C78FB1C1A7823000C4CA0470E23D0
:100D7000FB181A780E23FB1801321A700E23FA188A
:100D80000D23FB1812781B789A42D8D3C046C04670
:100D9000BD4605B090BDC04625120000A51100005B
:100DA00090B587B000AF0400080011003B60FB1D48
:100DB000221C1A70BB1D021C1A707B1D0A1C1A70A3
:100DC0003B68002B00D1A0E01023FB18BA1D12785D
:100DD0001A700F23FB187A1D12781A703B681A7A62
:100DE0001323FB18D2081A703B681B7A07221340A2
:100DF000DBB2002B06D01323FB181A781323FB1841
:100E000001321A701323FB181B789BB23A68527A8E
:100E100092B253439AB2FB1D1B783968897A5B1AE8
:100E200099B20C23FB184A431A803B685A680C237A
:100E3000FB181B88D3187B611223FB183A68527A7F
:100E40001A700E23FB1800221A700B23FB183A6845
:100E5000127A1A701123FB1800221A7034E0112341
:100E6000FB181B7807221340DBB2002B07D10E239F
:100E7000FB187A6912781A707B6901337B610E2343
:100E8000FB181B785BB2002B09DA0F23FB181978CB
:100E90001023FB181B78012218001E4B98471023C3
:100EA000FB181022BA18127801321A700E23FA18A1
:100EB0000E23FB181B78DB1813701123FB181A780C
:100EC0001123FB1801321A701123FA180B23FB1897
:100ED00012781B789A42C2D30F23FB180F22BA183C
:100EE000127801321A701023FB18BA1D12781A708A
:100EF0001223FB181A781223FB18013A1A701223D6
:100F0000FB181B78002B9CD100E0C046BD4607B003
:100F100090BDC046B110000090B585B002AF04008E
:100F2000080011003B60FB1D221C1A70BB1D021C37
:100F30001A707B1D0A1C1A703B681A7A3B685C7A2F
:100F40007B1D1978BB1D18780023009323000A4CE1
:100F5000A0473B681B78002B00D00AE03C687B1D53
:100F60001A78BB1D1978FB1D18782300034CA04785
:100F7000C046BD4603B090BDED0B0000A10D0000C2
:100F800090B587B000AFF860080011007B600B23BC
:100F9000FB18021C1A700A23FB180A1C1A7017236C
:100FA000FB180B22BA1812781A70FB68002B39D084
:100FB0007B68002B38D0FB681B780A2B11D10B23E0
:100FC000FB181722BA1812781A707B685A7A0A230B
:100FD000FB181B78D318DAB20A23FB1801321A70F7
:100FE00018E0FB681B780D2B14D0FB6818787C6820
:100FF0000A23FB181A780B23FB18197823000C4CD2
:10100000A0477B68197A0B23FB180B22BA181278B9
:101010008A181A70FB680133FB60FB681B78002B91
:10102000C9D102E0C04600E0C046BD4607B090BD51
:10103000190F000090B583B000AF184B1800184B83
:101040009847184B98470020174B9847FB1D0022E4
:101050001A701AE0BB1D00221A700CE0BB1D197833
:10106000FB1D187801230022104CA047BB1D1A78E5
:10107000BB1D01321A70BB1D1B785BB2002BEDDA71
:10108000FB1D1A78FB1D01321A70FB1D1B78032B08
:10109000E0D9C046BD4603B090BDC04680080020E0
:1010A000250900006D0800009904000025120000C9
:1010B00090B585B000AF040008001100FB1D221C94
:1010C0001A70BB1D021C1A707B1D0A1C1A70FB1DB6
:1010D0001B785BB2002B5DDBBB1D1B781F2B59D827
:1010E0000E23FB18BA1D1278D2081A70BB1D1A788D
:1010F0000E23FB181B78DB00D31A01229A400D2324
:10110000FB181A700F23FC18FB1D1A780E23FB180E
:101110001B7811001800214B9847030023707B1D9A
:101120001B78012B04D0022B1DD0002B0BD025E007
:101130000F23FB180F22B9180D22BA18097812785C
:101140000A431A701AE00D23FB181B785BB2DB43CD
:101150005BB20F22BA18127852B213405AB20F2360
:10116000FB181A700AE00F23FB180F22B9180D2282
:10117000BA18097812784A401A70C0460F23FB1833
:101180001A78FB1D19780E23FB1818780023044CDD
:10119000A04700E0C046BD4605B090BDBD120000AE
:1011A0002512000090B583B000AF78600C001000ED
:1011B0001900FB1C221C1A70BB1C021C1A707B1C21
:1011C0000A1C1A707B1C1C78BB1C1A78FB1C197833
:1011D000786823000F4CA047FB1C1B7818000E4BAF
:1011E0009847BB1C1B7818000C4B98477B685A1C0F
:1011F0007A601B7818000A4B98477B1C7A1C12787F
:10120000013A1A707B1C1B78002BEFD1C046BD46FB
:1012100003B090BD41090000190400005104000012
:101220002D080000B0B582B000AF05000C00100022
:101230001900FB1D2A1C1A70BB1D221C1A707B1D75
:10124000021C1A703B1D0A1C1A703B1D1B78002BD8
:101250000DD1BB1D1A78FB1D1B7811001800124B15
:10126000984703001A007B1D1B78934218D07B1D02
:101270001A78BB1D1978FB1D1B7818000B4B98477B
:10128000FB1D1B7818000A4B9847BB1D1B781800E4
:10129000084B98477B1D1B781800074B984700E0C8
:1012A000C046BD4602B0B0BDED090000A90900006E
:1012B00019040000510400002D08000080B582B020
:1012C00000AF0200FB1D1A70BB1D0A1C1A70BB1D6B
:1012D0001A78FB1D1B7811001800034B9847030078
:1012E0001800BD4602B080BDED09000090B583B086
:1012F00000AF040008001100FB1D221C1A70BB1D6A
:10130000021C1A707B1D0A1C1A70FB1D1B78012B16
:1013100000D9AFE0BB1D1B781F2B00D9ACE07B1DB3
:101320001B78042B00D9A9E09A00564BD3181B68F0
:101330009F465549FB1D1B78BA1D1278012090402D
:101340000200DB01CB1804331A604F48FB1D1A78EA
:10135000BB1D1B784021D2018218D3185B180022D4
:101360001A708CE04849FB1D1B78BA1D12780120C9
:1013700090400200DB01CB1808331A604249FB1D84
:101380001B78BA1D1278012090400200DB01CB18B7
:1013900014331A603C48FB1D1A78BB1D1B78402192
:1013A000D2018218D3185B1800221A7067E0364900
:1013B000FB1D1B78BA1D1278012090400200DB0152
:1013C000CB1804331A603048FB1D1A78BB1D1B78FC
:1013D0004021D2018218D3185B1802221A704EE005
:1013E0002949FB1D1B78BA1D12780120904002008C
:1013F000DB01CB1804331A602349FB1D1B78BA1D8F
:101400001278012090400200DB01CB1818331A60DB
:101410001D48FB1D1A78BB1D1B784021D201821884
:10142000D3185B1806221A7029E01749FB1D1B7898
:10143000BA1D1278012090400200DB01CB18043362
:101440001A601149FB1D1B78BA1D127801209040CB
:101450000200DB01CB1814331A600B48FB1D1A780D
:10146000BB1D1B784021D2018218D3185B180622BD
:101470001A7004E0C04602E0C04600E0C046BD4627
:1014800003B090BD9C4600000044004180B582B08E
:1014900000AF3A60FB1D021C1A70BB1D0A1C1A70BB
:1014A000FB1D1B78012B20D8BB1D1B781F2B1ED8C2
:1014B0003B68002B0CD01049FB1D1B78BA1D12781D
:1014C000012090400200DB01CB1818331A600FE0B6
:1014D0000949FB1D1B78BA1D1278012090400200BB
:1014E000DB01CB1814331A6002E0C04600E0C046AE
:1014F000BD4602B080BDC04600440041F0B585B095
:1015000000AF040008001100FB1D221C1A70BB1D57
:10151000021C1A707B1D0A1C1A70FB1D1B78012B04
:101520005FD8BB1D1B781F2B5DD87B1D1B78072B3D
:101530005BD80B23FB18BA1D127852081A702D487D
:10154000FB1D1A780B23FB181B783021D20182185F
:10155000D3185B181B78DBB2FB60BB1D1B78012224
:1015600013400AD0FB680F221340FB607B1D1B78E1
:101570001B01FA681343FB6008E0FB68F02213408C
:10158000FB607B1D1B78FA681343FB601948FB1D49
:101590001A780B23FB181B78F968CCB23021D201E2
:1015A0008218D3185B18221C1A70124CFB1D1A7873
:1015B000BB1D1B780F4EF91D0878B91D0978402511
:1015C000C0013018411849190978C9B201200143F6
:1015D000C8B24021D201A218D3185B18021C1A709D
:1015E00004E0C04602E0C04600E0C046BD4605B08B
:1015F000F0BDC0460044004180B582B000AF7860C5
:101600007B68022B03D87A68034B1A6000E0C0465F
:10161000BD4602B080BDC0461800002080B586B02F
:1016200000AFF860B9607A6000237B61FB68012B32
:1016300002D001235B422BE0174B1B68012B11D119
:1016400000237B6109E07B69BA68D3181B78180016
:10165000124B98477B6901337B617A697B689A42B8
:10166000F1DB14E00C4B1B68022B10D100237B61D3
:1016700009E07B69BA68D3181B781800084B9847B3
:101680007B6901337B617A697B689A42F1DB7B6914
:101690001800BD4606B080BD18000020C10500003E
:1016A000A516000080B582B000AF0200FB1D1A70C5
:1016B000FB1D1B780A2B02D10D20FFF7F3FFC0465C
:1016C0000D4B1B681B7EDB07DB0FDBB2002BF7D05B
:1016D000094B1B68FA1D127892B21A85C046064B58
:1016E0001B681B7E9B07DB0FDBB2002BF7D0C046CD
:1016F000BD4602B080BDC0461C000020F0B58DB0D4
:1017000000AF6B467B602B4B98472B4B98470120D3
:101710002A4B98472A4B18002A4B98470020274B02
:101720009847294BBB62BB6A5A1E7A621A003A611B
:1017300000227A61386979690200520F0E00F600C2
:10174000FE61FE691643FE610200D200BA611A0012
:10175000BA600022FA60B868F9680200520F0E0001
:10176000F50015430200D4000733DB08DB006A46AE
:10177000D31A9D466B4600333B620023FB6207E0B1
:101780003A6AFB6AD31801221A70FB6A0133FB62C2
:10179000FA6ABB6A9A42F3DB0020084B9847084B71
:1017A0001800084B984700237A6895461800BD46F4
:1017B0000DB0F0BD091900006106000091050000A0
:1017C000B0460000F52A0000942A000080B582B0DF
:1017D00000AF0200FB1D1A70064BFA1D12781100B3
:1017E0001F220A40012191400A001A60C046BD46EE
:1017F00002B080BD00E100E080B582B000AF020021
:10180000FB1D1A70074AFB1D1B7819001F230B4094
:10181000012199400B0019008023D150C046BD46DC
:1018200002B080BD00E100E0B0B500AF0420294B5C
:101830009847294B1A6980231B02134011D0274B6C
:101840001B78002B0DD1254B01221A70244B00224E
:101850001A82214B204A1269802109020A431A6127
:1018600031E01D4B1A6980231B0213402BD01B4B08
:101870001B78002B27D0194B00221A70184B1B8A9B
:101880009BB21A00174B10009847174C174A184B79
:10189000A04703000C001A002300164C0020164934
:1018A000A04703000C0019002200144B080011008F
:1018B0009847021C124B1A60074B074A1269802195
:1018C00009020A431A6104200E4B9847C046BD46E0
:1018D000B0BDC046F917000000180040800A002083
:1018E000002C00425D270000692200008DEDB5A0AC
:1018F000F7C6E03E3D1C00000000F03FE12700007D
:10190000C00A0020CD17000080B500AF0C4B9847EF
:1019100001200C4B984701200B4B984701220C21CA
:1019200000200A4B984701220D210020074B9847C1
:1019300001220F210020054B9847C046BD4680BDBF
:1019400039020000F915000021050000ED12000029
:10195000002243088B4274D303098B425FD3030AEE
:101960008B4244D3030B8B4228D3030C8B420DD301
:10197000FF22090212BA030C8B4202D3121209028F
:1019800065D0030B8B4219D300E0090AC30B8B42CD
:1019900001D3CB03C01A5241830B8B4201D38B037B
:1019A000C01A5241430B8B4201D34B03C01A524120
:1019B000030B8B4201D30B03C01A5241C30A8B4263
:1019C00001D3CB02C01A5241830A8B4201D38B024E
:1019D000C01A5241430A8B4201D34B02C01A5241F2
:1019E000030A8B4201D30B02C01A5241CDD2C30964
:1019F0008B4201D3CB01C01A524183098B4201D3E0
:101A00008B01C01A524143098B4201D34B01C01ACA
:101A1000524103098B4201D30B01C01A5241C30842
:101A20008B4201D3CB00C01A524183088B4201D3B1
:101A30008B00C01A524143088B4201D34B00C01A9D
:101A40005241411A00D20146524110467047FFE709
:101A500001B5002000F0F0F802BDC0460029F7D023
:101A600076E7704703460B437FD4002243088B423E
:101A700074D303098B425FD3030A8B4244D3030B15
:101A80008B4228D3030C8B420DD3FF22090212BADA
:101A9000030C8B4202D31212090265D0030B8B4256
:101AA00019D300E0090AC30B8B4201D3CB03C01A40
:101AB0005241830B8B4201D38B03C01A5241430B1B
:101AC0008B4201D34B03C01A5241030B8B4201D30B
:101AD0000B03C01A5241C30A8B4201D3CB02C01A76
:101AE0005241830A8B4201D38B02C01A5241430AEE
:101AF0008B4201D34B02C01A5241030A8B4201D3DD
:101B00000B02C01A5241CDD2C3098B4201D3CB0183
:101B1000C01A524183098B4201D38B01C01A524132
:101B200043098B4201D34B01C01A524103098B4236
:101B300001D30B01C01A5241C3088B4201D3CB0021
:101B4000C01A524183088B4201D38B00C01A524104
:101B500043088B4201D34B00C01A5241411A00D2B4
:101B600001465241104670475DE0CA0F00D049421D
:101B7000031000D34042534000229C4603098B428D
:101B80002DD3030A8B4212D3FC22890112BA030A15
:101B90008B420CD3890192118B4208D38901921197
:101BA0008B4204D389013AD0921100E08909C3091C
:101BB0008B4201D3CB01C01A524183098B4201D31E
:101BC0008B01C01A524143098B4201D34B01C01A09
:101BD000524103098B4201D30B01C01A5241C30881
:101BE0008B4201D3CB00C01A524183088B4201D3F0
:101BF0008B00C01A5241D9D243088B4201D34B000B
:101C0000C01A5241411A00D20146634652415B104C
:101C1000104601D34042002B00D54942704763462D
:101C20005B1000D3404201B5002000F005F802BD72
:101C30000029F8D016E770477047C046F0B5564601
:101C40004D4644465F46F0B41D000E034C00CB0FDA
:101C500087B0070092468146360B640D98466AD0DD
:101C60006D4B9C4235D08022430F12041343F60083
:101C70001E43C3009946694B00279C4600236444D9
:101C800002932B0368001B0BED0F51469B46400D42
:101C9000009500D178E0604B98426CD05B46DA004A
:101CA0004B0F802109040B4313439B465346D90035
:101CB0005A4B9C46002360444246201A6A40924692
:101CC00001901F430F2F00D9B0E05548BF00C05905
:101CD0008746374300D088E000239946023308271F
:101CE00000260293CDE74346B34649460093029B44
:101CF000009A9246022B00D0BFE1002153460122F8
:101D0000002689461A40444B002136030C0D240559
:101D1000360B2643434C1B0526401E437600D20754
:101D2000760816434846310007B03CBC90469946B9
:101D3000A246AB46F0BD330003434FD0002E00D186
:101D4000BCE1300000F0D8FD03000B3B1C2B00DD94
:101D5000ADE11D220100D31A08393A008F408E40B0
:101D6000DA40B9461643304B00279C4600236044B6
:101D70004442029385E753465A4613432CD100232D
:101D800000219B46023397E70B4320D05B46002B94
:101D900000D19EE1584600F0AFFD03000B3B1C2B29
:101DA00000DD8FE102005946083A91408B461D2123
:101DB000CB1A5146D9400B0059460B4351469B461E
:101DC0009140194B9C4660444042002374E7002335
:101DD00000219B4601336FE703236DE700239946FB
:101DE00001330427002602934BE703230C270293B9
:101DF00047E70122D51A382D00DCB0E153461A40DE
:101E000000210023002689467EE70023802699468C
:101E100000223603004B77E7FF07000001FCFFFFBD
:101E2000B8460000FFFF0F80F30300005E4500D9B5
:101E300072E100D16DE1019B4D46013B019300230E
:101E4000340002935B461E020B0E1E430B020393EB
:101E5000330C994633041B0C494620000093FFF7CE
:101E600077FD009B37004343060049462000984613
:101E7000FFF7F4FD2C0C09040C43A04509D9E41923
:101E8000731EA74200D95CE1A04500D859E1023E8B
:101E9000E4194346E41A49462000FFF759FD0300C0
:101EA000009A80465343494620009B46FFF7D6FDE3
:101EB0002A040904120C0A4393450DD94346D2194A
:101EC000013B974200D93AE1934500D837E102231C
:101ED0005B429C46D219E0445B46D21A4346360424
:101EE00033439B460399180C0B0C1D000593090402
:101EF0005B46090C0C001B041B0C44430491594322
:101F00006B4368431B190D0CEB189C4203D98024CA
:101F10006402A44660441C0C09041B04090C20182C
:101F20005D18824200D2DEE000D1D7E0161A029B93
:101F30009C465D1BAC459B415B42F61AB74200D103
:101F400006E149463000FFF703FD009B04004343D0
:101F5000494630009846FFF781FD2E0C09040E43D8
:101F6000B04509D9F619631EB74200D9F3E0B04570
:101F700000D8F0E0023CF6194346F31A494618002F
:101F80000293FFF7E5FC009B060043434946029895
:101F90009846FFF763FD2D0409042D0C0D43A84559
:101FA00009D9ED19731EAF4200D9D6E0A84500D873
:101FB000D3E0023EED192404210043463143049E40
:101FC000059A3000ED1A0B040C0C1B0C58436643A9
:101FD000534354439A19030C9B189E4203D9802201
:101FE0005202944664441A0C00041B04000C141999
:101FF0001B18A54250D34DD001231943964A019B8B
:1020000094466344002B00DCF3E64A0709D00F2214
:102010000A40042A05D00A1D8A42894149428B445C
:1020200011005A46D20108D55A468C4B1A409346A5
:102030008022D2009446019B6344894A934200DD8A
:102040005BE65A46C908500708435602514601222A
:102050005B058146360B5B0D0A4055E680231B036A
:102060001E4211D05A461A420ED15E461E43360316
:10207000360B2A0089467B4B46E6032B00D1E1E074
:10208000012BBBD11A40BBE61E433603360B42463A
:10209000744B39E6002BB1D07D194A1EAF4252D99C
:1020A0001100A542A8D1039A9A42A5D1A6E7030040
:1020B0003E00283B9E400023994654E600F01CFC5D
:1020C000203041E603005246283B9A4000219346C7
:1020D00077E6504600F010FC20305EE6029B0026BA
:1020E000AB4200D323E7039E0299B446614488467D
:1020F000B045B6415B467642F619B218013B0291F3
:10210000974213D290424FD800D18EE0161A9B46C8
:102110000DE7894500D28EE674084B46F607350078
:102120005B081D434B46DB0702938BE69742EDD1DC
:102130000399029CA142E5D93E1A9B46F7E69846D0
:10214000CAE61E00A5E6AC423ED874D0110053E7A3
:102150000121494252E71C000EE71E002BE71F2D0C
:102160003CDC20230A0058465B1B9840EA4099401B
:102170000243481E81415E461143EE404B0709D0A1
:102180000F230B40042B05D00B00191D99429B41D6
:102190005B42F61833023CD55346012200211A4017
:1021A000002601238946AFE502235B429C46039C3F
:1021B000E344A446029B63449846A045B641764258
:1021C000F6190293B218B1E603988A1E41008142C3
:1021D000B6417642F619AD19039161E71F225242CA
:1021E000D31A5A46DA401300202D29D040225846EF
:1021F000551BA8400143481E814107200B4318404E
:102200000026002809D00F2200261A401900042AAF
:10221000BBD10B0070077602360BDB0803439946EF
:10222000012253461A4000236EE502998D42BBD825
:102230009B4600267BE603989842C5D3110032E7FF
:102240000020D7E780265B4636031E433603360B55
:10225000009A8946034B57E5FF030000FFFFFFFE8E
:10226000FE070000FF070000F0B55F4656464D46EA
:102270004446F0B40D0399464E002B0B87B007007F
:10228000924680469B46760DCC0F002E69D06D4B52
:102290009E4235D05B468022DD001204430F13437B
:1022A0002B439B46C3009846674B00279C46002360
:1022B000664401934A4615035000D20F53462D0B36
:1022C000400D914600D176E05E4A90426CD080226B
:1022D0005B0F120413435C4AED0094461D435346C2
:1022E0000022DB00604449463618701C61400290B1
:1022F00017430F2F00D9AFE05448BF00C759BF465E
:102300005B461F4300D088E000239B46984602337B
:1023100008270193CEE74946022A6AD0032A00D152
:1023200009E2012A00D0BBE1114000220023002570
:102330009046CCB200212D030A0D12052D0B15433A
:10234000434A1B0515401D436D00E4076D082543F6
:102350004046290007B03CBC90469946A246AB4691
:10236000F0BD034352D05B46002B00D18AE15846B2
:1023700000F0C2FA03000B3B1C2B00DD7BE11D22A9
:10238000D31A3A0001005D46DA4008398D40130047
:102390008F402B439B46B8462E4B00279C4600237C
:1023A00060444642019385E752462A432CD10025DA
:1023B0000023022297E752462A4321D0002D00D164
:1023C00054E1280000F098FA03000B3B1C2B00DDC1
:1023D00046E11D21CB1A51460200D9405346083A26
:1023E000954093400D431B4A94466044404200226E
:1023F00079E7012400220C40124B0025904699E712
:102400000025002301226EE703226CE700239B4690
:1024100098460133042701934CE703230C270193CB
:1024200048E700238025984600242D03054B81E7CB
:102430005D464346019A6FE75D4643462100019A97
:102440006AE7C046FF07000001FCFFFFF8460000F6
:10245000FFFF0F80F30300004246120C91461A0C56
:102460009446424617044A461B041B0C5A436046D6
:1024700090464A4642431000039262461C003F0CBD
:102480007A437C4342440192220C9246019A524480
:10249000904506D98246802040028046C24450467C
:1024A0000390100C049048462404240C12041219C2
:1024B00005922A0C2D042D0C68432C0082464846B8
:1024C0007C4350438146200C804657435744474441
:1024D000BA4503D9802040028046C144380C3F04ED
:1024E000B84648442404240C01900498A044404475
:1024F00004905846000C814658460404200C82463D
:10250000070048465F434C46434360466043644689
:10251000834650464443380C8446E4186444A3423E
:1025200003D980235B029C46E34448463F04230CC6
:102530003F0C2404E419574668436F4384464D46D4
:10254000504655434243380C814662444A445B44FA
:10255000944503D9802040028446654403983F0493
:10256000834604983F0C8446E344C345804140427F
:102570008246100484460198674484466744A34415
:10258000BC46A345A4419946D44464428742BF4116
:10259000D4458041E144A04699459B417F42404259
:1025A000C8440743120CBA18A045A4415F423B003F
:1025B00064422343D71843467D19DB0D6D021D434A
:1025C0005B465A02059B1A43531E9A415B46DB0D3C
:1025D0001A4343465B021343EA0107D501225C0814
:1025E00013402343EA07029E13436D08574AB2186B
:1025F000002A4BDD580709D00F201840042805D0C9
:10260000181D98429B415B42ED180300E80104D578
:102610004F4A15408022D200B2184E48824200DD57
:10262000E7E60124DB08680718436D02530580467E
:102630002D0B5B0D0C407DE68022594612031142A2
:1026400008D0154206D115432D0398462D0B4C4654
:10265000414B6FE65D4615432D032D0B3E4B69E65E
:1026600003005546283B9D400023BCE6504600F041
:1026700043F92030A8E60300283B9F400023BB46D7
:10268000984689E600F038F9203073E60124A61A4E
:10269000382E07DD00220C4000230025904649E635
:1026A000029EA3E71F2E20DC20222C001800921B84
:1026B000F040944093400443581E83411C43F5402E
:1026C000630709D00F232340042B05D023001C1DD2
:1026D0009C4292415242AD182B021FD50124002288
:1026E0000C4001230025904624E61F202C00404288
:1026F000821AD440202E1CD04022961BB5402B437A
:10270000581E83410720234318400025002809D084
:102710000F2200251A401C00042AD8D12300680784
:102720006D022D0B0124DB08034398460C40002367
:1027300000E60025E3E780220124120315432D0360
:1027400098462D0B0C40044BF4E5C046FF030000F7
:10275000FFFFFFFEFE070000FF07000070B5002826
:1027600030D0C317C4185C40C50F200000F0C4F877
:10277000174B184A1B1AD21A1F2A18DD164AD21AEA
:102780009440002224035B05240B5B0D0021100004
:1027900024030A0D1205240B1443104A1B05144090
:1027A0001C436400ED0764082C43210070BD210028
:1027B00091400A000B21081AC4405B052403240B36
:1027C0005B0DE3E70025002300240022DEE7C0467E
:1027D0001E0400003304000013040000FFFF0F80FC
:1027E0004B0070B55E0D0C03751C640A420F6D053D
:1027F0002243C90FC4006D0D012D2ADD3B4BF31898
:10280000FE2B1ADC002B42DD8001451EA841D200C0
:102810001043620F0243500704D00F2010400428D9
:1028200000D004328020C004104021D00133FF2B9F
:1028300003D09201520ADBB201E0FF2300225202D0
:10284000520ADB0513435B00C9075B080B43180002
:1028500070BD002E07D01443EFD08020D20080043A
:102860000243FF23D7E722430023002A03D0052297
:10287000D208FF2B03D05202520ADBB2DFE7002A54
:1028800032D08020C00302435202520AD7E7180018
:10289000173014DB8020000402431E20C01A1F28BA
:1028A0000FDC2500124BF3189D406E1EB5419A4077
:1028B0002B0013432200C2401A430023ABE700233E
:1028C000D5E702256D42EB1A1500DD40202809D01E
:1028D000084BF3189A401443621E944122000023CF
:1028E0002A4398E70022F6E70022A8E780FCFFFFD2
:1028F00082FCFFFFA2FCFFFF1C2101231B04984266
:1029000001D3000C10391B0A984201D3000A083980
:102910001B09984201D30009043902A2105C401837
:102920007047C046040302020101010100000000DB
:102930000000000070B50D4E0D4D0024AD1BAD1014
:1029400005D0A300F35801349847A542F9D101F00E
:10295000F9FE084E084D0024AD1BAD1005D0A300B4
:10296000F35801349847A542F9D170BD5047000093
:1029700050470000504700005847000070B50F2A2C
:1029800032D90C0004430B00A40731D11500040018
:10299000103D2D0901352D0149191E6826605E681C
:1029A00066609E68A660DE681033E6601034994267
:1029B000F3D10F2345191340032B1BD91C1F0023F0
:1029C000A4080134A400CE58EE5004339C42FAD13E
:1029D00003232D1909191A4005D00023CC5CEC54AF
:1029E00001339A42FAD170BD0500002AF5D1FAE709
:1029F0000500F2E71A00F8E770B583073FD0541ED0
:102A0000002A3BD0CEB20300032503E0621E002C57
:102A100034D0140001335A1E16702B42F6D1032C09
:102A200024D9FF250D402A0215432A0415430F2CF3
:102A300011D92600103E3609013636011A009B19BD
:102A4000156055609560D56010329342F8D10F2221
:102A50001440032C0AD9261FB6080136B6001A0006
:102A60009B1920C29342FCD103221440002C05D0B4
:102A7000C9B21C19197001339C42FBD170BD1400FE
:102A80000300CCE730B5050089B008000C0000F069
:102A90003BF804AB154A01930223069201220293EC
:102AA000AB6B05900130049407920390AC68002B47
:102AB00017D00C22A35E80229201134205D113434A
:102AC000A381626E0A4B1340636601AA21002800AD
:102AD00000F062FB431E98410A234042184309B0AC
:102AE00030BD280000F000FAE3E7C0464047000090
:102AF000FFDFFFFF10B5034B01001868FFF7C2FFAF
:102B000010BDC0464804002010B5830727D00378C5
:102B1000002B26D00300032102E01A78002A1CD0E3
:102B200001330B42F9D119680F4A104C8A188A43B5
:102B300022420FD1043319680B4A8A188A43224271
:102B400008D104331968084A8A188A432242F1D00E
:102B500000E001331A78002AFBD1181A10BD0300D7
:102B6000E1E70020FAE7C046FFFEFEFE808080809D
:102B7000334B70B5050018680C00002802D0836B39
:102B8000002B3DD00C23E05E83B21A070DD52169DE
:102B9000002916D0DA0722D50023A360636900203C
:102BA0005B42A361002922D070BDDA0640D55B07E5
:102BB00029D42169082203001343A3819BB2002971
:102BC000E8D1A022802092001A4080008242E1D009
:102BD0002100280000F0C4FCA3892169DAE7002263
:102BE0009B0700D46269A26000200029DCD10C227E
:102BF000A35E1A06D8D540221343A3810138D3E738
:102C000000F072F9BEE7216B00290AD0230040339F
:102C1000994204D0280000F0DDF90C23E05E002387
:102C20002363242398430023216963602160C1E763
:102C300009232B60402303430120A3814042B3E7D3
:102C400048040020034B10B5002B02D0024800F0CE
:102C500005F810BD00000000012F000010B50100B4
:102C600000230022002001F063FA10BDF0B54746B2
:102C700080B40C228B5E80469AB20C00110740D4BF
:102C80008022120113436268A381002A00DC70E0F5
:102C9000A66A002E31D042464146156800229BB2FA
:102CA0000A60DA0400D469E0226D5B0706D5636828
:102CB000D21A236B002B01D0E36BD21A0023E169F7
:102CC0004046B047431C3DD0A2893A4B13400022F6
:102CD000626022691BB2A3812260DB0447D44346B1
:102CE000216B1D60002908D023004033994202D097
:102CF000404600F06FF900232363002004BC904697
:102D0000F0BD2669002EF8D0236826609D1B0023A5
:102D1000920700D16369A360002D04DCEDE736184B
:102D20002D1A002DE9DD2B003200E1694046676A6B
:102D3000B8470028F3DC40230120A2894042134316
:102D4000A381DBE7434619681D29F4D81A4B0122F9
:102D5000CB409A43EFD1A689164B6260334022697B
:102D60001BB2A3812260DB04B9D50029B7D120654D
:102D7000B5E7E26B002A00DD8AE7BEE70022012307
:102D8000E1694046B0470200431C02D0A389A66A0D
:102D90008BE743461B68002BF8D01D2B01D0162B68
:102DA00003D1434600201D60A8E74023A1890B43BF
:102DB000A381A3E7FFF7FFFF0100402070B50400E7
:102DC0000D00002802D0836B002B09D00C22AB5ED3
:102DD0000020002B03D029002000FFF747FF70BD23
:102DE00000F082F8F2E7C04610B5024900F062FB3D
:102DF00010BDC04629420000F8B55F4656464D4614
:102E00004446344BF0B4C363B823002403229B0030
:102E1000C45004334568C2500833C218043BC25042
:102E20000600042328002C606C60AC60AB816C66EB
:102E3000EC812C616C61AC61082200215C30FFF7F1
:102E4000DBFD254B254F9A462B62254BEF629946B9
:102E50006B62244BED61AB62B5689846092328008C
:102E6000AB81083B2C606C60AC606C66EB812C61C4
:102E70006C61AC61082200215C309B46FFF7BCFD11
:102E800053462B624B466B624346EF62AB62ED6189
:102E9000F56812232800AB81103BEB812C606C603D
:102EA000AC606C662C616C61AC61082200215C3006
:102EB000FFF7A2FD53462B624B466B624346AB6263
:102EC0005B46EF62ED61B3633CBC90469946A24617
:102ED000AB46F8BDE92D00006D400000FD4000004C
:102EE00095400000D1400000836B10B5002B01D14C
:102EF000FFF782FF10BDC0467047C0467047C0460E
:102F000070B5094B094CE41AA41009D0084AA51859
:102F1000AD00ED182B68013C9847043D002CF9D119
:102F200001F01AFC70BDC04664470000684700000D
:102F3000FFFFFF3FF8B50C00060000F093FE204FA6
:102F4000BB685D6803239D431E4B2C1B9C46644459
:102F5000240B1D4B013C24039C4207DD0021300063
:102F600001F072F8BB685B19984204D0300000F0A1
:102F70007BFE0020F8BD6142300001F065F8431C83
:102F80000DD001232D1BBA681D43104B55601A68E4
:102F90003000141B1C6000F067FE0120EAE70021EE
:102FA000300001F051F8BB68C21A0F2ADEDD084973
:102FB0000968401A0549086001210A435A60D5E7AB
:102FC0004C040020EF0F0000FF0F0000900A0020CB
:102FD00058080020F0B54746050080B40C1E3ED0CE
:102FE00000F040FE01232100984608394E68424611
:102FF000330003209343CC1862688243604887689B
:10300000BC425AD04746626037420BD10827BC46C3
:103010000E688444891B9B198E68664566D0CF680C
:10302000F760BE600126A7187F68374236D0554A40
:103030001E434E60CB50934214D8DB08FF3A9C10DD
:10304000FF3AA2404468DB002243426018188368BC
:10305000C8608B608160D960280000F005FE04BC68
:103060009046F0BD5A0A042A4FD89C0926003934EC
:1030700038366400A4000419083CA268032794426F
:103080004AD05068B843834202D292689442F8D141
:10309000D468CC608A60A160D160DDE79B183A4FAC
:1030A000A268BA4240D0E4681E43D460A260354AA8
:1030B0004E60CB509342D5D8BFE79B184246324270
:1030C00006D10A68891A8C689B18CA68E260946005
:1030D00001242E4A1C4312684C6081609342BBD38A
:1030E0002B4B28001968FFF725FFB5E74646A018C7
:1030F000406830423ED1A068D318E268C260906058
:1031000042461A434A60CB50A6E7142A14D8160048
:103110005C325B365400ADE70123B610B340426821
:10312000134343602200B4E71E43D1609160CA603C
:103130008A604E60CB508FE7542A05D81C0B2600BE
:103140006F346E36640095E7AA246400A24205D865
:10315000DC0B26007834773664008BE70D4CA242F6
:1031600005D89C0C26007D347C36640082E7FE2462
:103170007E267FE742461A434A60CB506CE7C04642
:103180004C040020FF0100005404002054080020DB
:103190008C0A002054050000F0B5564644465F46B0
:1031A0004D46F0B4936885B001900C009246002B18
:1031B00025D08B891A072AD50A69002A27D05246BA
:1031C000126893469A072FD5B74B002600259846DC
:1031D000002D00D16DE02B1E434500D9B24B3200CB
:1031E000E1690198676AB847002800DC79E0534636
:1031F0009B6836182D1A181A53469860E8D100209B
:1032000005B03CBC90469946A246AB46F0BD2100B5
:103210000198FFF7ADFC002800D03BE15246A3899E
:10322000126893469A07CFD4DA0762D500230027A5
:1032300099461D000293002F30D0029B002B00D135
:10324000C3E02E1EBE4200D93E0020682269B0466F
:103250006369904207D9A26894469C4462460392EF
:10326000664500DDEFE09E4200DA92E04A46E16901
:103270000198666AB0478046002832DD4346ED1A61
:1032800000D195E04346FF1A534642469B68C1442D
:103290009B1A52469360B2D0002FCED15B461B687A
:1032A00099465B465F6808239C460023E3440293EB
:1032B000C1E75B461E685D6808239C46E34487E7D8
:1032C0007A4B301E984200D918004146FEF7CAFBDF
:1032D00043463A004343E1690198656AA8470028DC
:1032E00023DC0C23E25E402301201343A3814042F0
:1032F00086E700270026002E23D080229200A568B2
:10330000134225D0A846AE425BD39022D20013428E
:1033100068D120684246390000F058FC3000A368AC
:103320005D1B2368A5604344236053469B683F1898
:10333000361A181A5346986000D160E7A389002E08
:10334000DBD15A461768566808229446E344D2E710
:1033500020682369984203D8636998469E42AFD299
:10336000B54200D935002A00390000F02FFCA368CF
:1033700022685B1B5219A3602260002B01D0280039
:10338000D3E721000198FFF719FD0028A9D12800F3
:10339000CBE73200494600F019FCA3689B1BA360F1
:1033A00023689C46434666442660ED1A00D069E7D0
:1033B00021000198FFF702FD002892D1002302931B
:1033C00060E735002068B046A4E73A000A21484685
:1033D00000F0B4FB002859D04B460130C51A012338
:1033E00002932EE721692268521A914662695000C1
:1033F0008218D00F8218521090464A46501C8019ED
:103400004246404501D9804602005B052DD511009A
:10341000019800F0E9F8051E3FD04A462169FFF700
:10342000ADFAA289224B134080221343A381434665
:1034300028004A46484463619B1A25612060350094
:10344000A360B04666E76646494600F0BFFBB44657
:1034500023682100634423600198FFF7AFFC002834
:1034600000D03EE7039B984608E7019800F0FEFB7A
:10347000051EDCD1019D21692800FFF7ABFD8022EC
:10348000A38993431AB20C232B602CE701237D1CE4
:103490000293D6E601204042B2E60C23019A136063
:1034A0000C23E25E1FE7C04600FCFF7FFFFFFF7FAB
:1034B0007FFBFFFFF8B54F464646C0B4B8278046AD
:1034C000BF00474489460026002F14D07B68BC68A3
:1034D0005D1E0DD4A389012B07D90E22A35E0133F3
:1034E00003D021004046C84706436834013DF1D26D
:1034F0003F68002FEAD130000CBC90469946F8BDD9
:1035000070B50C001E000E23C95E90B01500002996
:1035100015DB01AA00F0CEFE002810DBF023029A92
:103520001B0213400D4A8020944663445A42534183
:1035300033608023DB002B60000110B070BD0023DE
:103540003360A3891B0603D5402300202B60F4E7DA
:103550008023DB002B600020EFE7C04600E0FFFF88
:1035600070B58B8982B005000C009B0707D523003E
:103570004333236023610123636102B070BD01AB5B
:103580006A46FFF7BDFF00990600280000F02CF8FE
:1035900000281CD08022134BEB63A38920601343C7
:1035A000009A1BB26261019AA3812061002A02D1B4
:1035B0003343A381E1E70E23E15E280000F08EFE95
:1035C00000280CD00122A3891A4313B2F0E70C2281
:1035D000A35E9A05D1D402221343A381C7E70C222C
:1035E000A35EE5E7E92D0000F0B55F464D4656467F
:1035F0004446F0B40D000B3583B00700162D00D8FB
:10360000A8E007239D4300D5CEE0A94200D9CBE036
:1036100000F028FBF823FF339D4200D884E26B0AB8
:1036200000D1C5E0042B00D96CE13823A9099C46E0
:1036300001339846884443468C445900C94E89005A
:1036400071180839CC68A14217D0032362689A43E5
:103650001300521B0F2A00DDB0E00320002A09DB13
:103660008DE0636883435A1B0F2A00DDA6E0002A21
:1036700000DB84E0E468A142F3D1434600933200CA
:1036800034690832944200D18FE103236168994381
:103690000B00481B0F2800DD76E1726132610028C3
:1036A00071DAB14A914200D934E10123C80882108D
:1036B000934072681A43C3009B1998687260E36074
:1036C000A0609C601300C460012000998A109040A3
:1036D000984200D975E003420CD1032291430A1DA0
:1036E00040000092034205D1009A4000043200924B
:1036F0000342F9D003239846009AD3009946B14477
:10370000CC4692466346DC68A44507D14FE1002AC7
:1037100000DB5FE1E468A44500D148E1424663680C
:1037200093435A1B0F2AF2DD012163190D43656093
:10373000E068A5680836E86011438560F360B3600F
:103740003800DE609E6059609A5000F08DFA2000CB
:10375000083022E0102927D8380000F083FA10251D
:10376000062302217F4E9B00F3181A005C68083A7A
:10377000944200D127E1032362689A431300E26870
:10378000A168CA6091600122E318596838000A43B1
:103790005A6000F069FA2000083003B03CBC904643
:1037A0009946A246AB46F0BD0C2300203B60F4E7EF
:1037B00040239846013B80219C463FE763460093A7
:1037C0005DE70323B46862689A439046AA4203D334
:1037D000521B0F2A00DD87E023004344634A019314
:1037E000634B93461B681268EB18013200D157E116
:1037F000604A944663441B0B1B03009300993800F6
:1038000000F022FC03008146013361D0019B83421A
:1038100000D9FDE0584B009A9A461B689C465346D7
:1038200062441A60019B11004B4500D143E15B46A5
:103830001B68013300D14FE14B46019A9B1A59187E
:103840005346196007234A46134000D117E1082167
:1038500089464A49D21A9144C91A009B38004B4400
:103860001B051B0DCB1A19009B4600F0EDFB431CFA
:1038700000D135E14B46C01A012358441843534642
:103880001B685B441900534619604B46B36058608F
:10389000B44213D043460F2B00D8E1E04346072241
:1038A00060680C3B9343063A024005201A4362606D
:1038B000E218506090600F2B00D915E1304B1A6868
:1038C000914200D919602F4B1A68914200D91960B2
:1038D0000323B46862689A431300521B9D4200D9C7
:1038E000C1E00F2A00DCBEE001232900651919435D
:1038F000134361603800B5606B6000F0B5F92000DB
:1039000008304AE7142B74D9542B00D9B0E0290BA6
:103910006E238CE64A0A042A74D9142A00D9C2E01C
:1039200010005C325B305200082149428C46920004
:10393000B2189444624692680B318846944500D18F
:10394000A0E0414650688843834202D29268944581
:10395000F7D1D3689C4673686146A260E1608C60D1
:10396000D460B1E64C040020FF010000580800209C
:103970008C0A00200F100000900A002008100000A0
:10398000880A0020840A0020012163190D430143A5
:10399000656073613361DA609A605960185038006D
:1039A00000F062F920000830F7E673688CE608231F
:1039B0009B46073BDC449B46DA444346524613424F
:1039C00000D09FE633E0DC688A1C0092A34200D15D
:1039D00055E6D0E60122E318596838000A435A60D8
:1039E000E368A268D3609A6000F03EF920000830D6
:1039F000D3E65B2294460132904698449C44434669
:103A000059001BE68A0910003932383052008BE722
:103A1000B44200D05CE7FDE6009B013B0093082325
:103A20005B429C46E1444B469B6899457AD14346AC
:103A3000009A1342F0D17368834373604000984248
:103A400000D9BEE6002800D1BBE6034270D1524641
:103A50000092009A4000043200920342F9D04BE6F3
:103A600001234A465360380000F0FEF8002094E637
:103A7000AA22520093420DD8E90B7723D7E5802183
:103A80004901EAE6012380108340726813437360A2
:103A9000624661E7284A934218D8A90C7C23C6E500
:103AA00010330093AAE6542A26D80A0B10006F326E
:103AB0006E30520038E71B0500D0B8E6009BB268B4
:103AC00043441800012303435360F7E67F239846DD
:103AD000013BFE219C46B1E55B464A461A60B1E6D1
:103AE000002301209B46CAE6210038000831FFF779
:103AF00071FA53461968E1E6AA204000824205D8CF
:103B0000CA0B10007832773052000DE70A48824223
:103B100005D88A0C10007D327C30520004E7FE226A
:103B20007E2001E7736889E7E9084B1C5B0019E612
:103B300053460093E0E5C0465405000070B5CDB291
:103B400083073CD0531E002A1FD00278AA421DD002
:103B5000032405E0002B18D00278013BAA4215D0BF
:103B600001302042F6D1032B11D8002B0DD0027862
:103B7000AA420BD0421CC01804E00132511E097841
:103B8000A9421AD013009042F7D1002070BDFF2245
:103B90000C0212022240FF24214011430C04094E62
:103BA0000C43026808496240511891433142DED10A
:103BB000043B0430032BF4D8D7E71800E6E71300E2
:103BC000D1E7C04680808080FFFEFEFE70B588424F
:103BD0000BD98B18984208D2991A531E002A03D089
:103BE000CA5CC254013BFBD270BD0F2A09D8050044
:103BF000002AF9D00023CC5CEC5401339A42FAD16C
:103C0000F2E70C0004430B00A40726D115000400C2
:103C1000103D2D0901352D0149191E6826605E6889
:103C200066609E68A660DE681033E66010349942D4
:103C3000F3D10F2445191440032C10D90023043C60
:103C4000A4080134A400CE58EE5004339C42FAD1AB
:103C500003232D1909191A40CAE70500CAE72200F3
:103C6000C6E7C0467047C0467047C046F0B55646E6
:103C70004D4644465F46F0B4804685B00E1E9146E0
:103C800000D1CBE03700083FFFF7ECFF7A684D46E4
:103C9000032314000B35BA469C43162D4AD8102333
:103CA0001025A9454AD89C427BDAD349381989683E
:103CB0000190884200D1ECE04068010002900120B0
:103CC0000390080001218843019984468B46DC4417
:103CD000614601204968014200D17CE00121114286
:103CE00031D049464046FFF77FFC8146002800D18D
:103CF0009CE1012302007968083A99437F18BA428F
:103D000000D13CE1221F242A00D929E10300132A13
:103D100000D90BE13200116819605168596092684E
:103D20009A6031004046FFF755F94046FFF79CFF87
:103D3000484649E004339D432B1EB2DA0C23424629
:103D40000020136040E03A68BA1A934659460322AD
:103D5000496891430A00A21801929A42C1DB5B466E
:103D60005A465F469268DB680837D3609A60221F24
:103D7000242A00D910E13B00132A09D95B46316897
:103D800099607168D9601B2A00D921E11033083687
:103D90003268DA461A607268019C5A60B2683E0066
:103DA0009A60631B0F2B24D85346012152465B684F
:103DB0000B4023435360220052445368194351601F
:103DC0004046FFF751FF300005B03CBC9046994695
:103DD000A246AB46F0BD032102988C4688430119E8
:103DE00099421FDB019A0C00D3689268D3609A60F5
:103DF000D7E752465046511901224068104005430A
:103E00005046456018001043CB1848605868083188
:103E100002435A604046FFF7DDF8D1E71100FFF793
:103E2000E3FBD1E70120104200D05AE760463A6830
:103E3000BA1A93465268824389180291994200DA6D
:103E400089E7019A5F46D36892680837D3609A6021
:103E50005B465A46DB689268D3609A60221F242A28
:103E600000D991E03B00132A09D95B46316899607B
:103E70007168D9601B2A00D996E010330836326881
:103E8000029C1A607268DA465A60B2683E009A6014
:103E900087E703200199844649688143280009196E
:103EA0001030019081424BDAD20700D519E7604605
:103EB0003A68BA1A9346526882430198511802919F
:103EC000884200DD47E75B465A465F469268DB68FA
:103ED0000837D3609A60221F242A00D997E03B005C
:103EE000132A09D95B46316899607168D9601B2A29
:103EF00000D991E01033083632681A6072685A604F
:103F0000B2689A605B4659193B4B40469960029BE8
:103F10005A1B01231A434A605A46526813401D43F4
:103F20005B465D60FFF7A0FE38004DE73168016039
:103F3000716841601B2A17D8320008330832EAE65C
:103F40002D4B7A199A600123491B194351607A68F5
:103F5000404613401D437D60FFF786FE300033E787
:103F60003100FFF733FEDCE6B16803008160F168E1
:103F7000C160242A22D0320010331032CBE65368BD
:103F800003229343E4180CE731003800FFF71EFECC
:103F90003E00029CDA4604E731003800FFF716FEC7
:103FA0003E00019CDA46FCE65B46B1681961F168A7
:103FB0005961242A16D01833103660E7326903009D
:103FC0000261010032007069183318324861A2E6BC
:103FD0005B46B1681961F1685961242A0ED0183323
:103FE0001036D5E65B4632699A615A4671692033CC
:103FF000D161183643E7C0464C0400205B46326965
:104000009A615A4671692033D1611836C0E6310091
:104010003800FFF7DBFD75E75B46B1681961F168B1
:104020005961242A07D01833103665E74046FFF758
:104030001BFE0020C8E65B4632699A615A467169E8
:104040002033D161183657E7002370B5064C0500C0
:1040500008002360FCF7A4F8431C00D070BD23685F
:10406000002BFBD02B60F9E7C40A002070B50C00D0
:104070000E25495F00F058F9002803DB236D1B185B
:10408000236570BDA289024B1340A381F9E7C046A6
:10409000FFEFFFFFF8B516001F000C23CA5E0500F6
:1040A0000C00D30507D50E23C95E0022022300F0C1
:1040B00027F90C23E25E054B28001340A381320050
:1040C0000E23E15E3B0000F01FF8F8BDFFEFFFFF9D
:1040D00070B50C000E25495F00F012F9431C06D0A4
:1040E0008022A38952011343A381206570BDA28958
:1040F000014B1340A381F9E7FFEFFFFF10B50E233B
:10410000C95E00F07FF810BD70B505000800110011
:104110000022064C22601A00FDF780FA431C00D0F2
:1041200070BD2368002BFBD02B60F9E7C40A002088
:10413000F8B544465F4656464D469B462F4BF0B475
:104140001C68A4235B000500E0580E009046002880
:104150004BD043681F2B0DDC5C1C002D21D102339A
:104160009B0044601E5000203CBC90469946A246ED
:10417000AB46F8BD224B002B3CD0C820400000E0ED
:1041800000BF002836D0A42200235200A15843606B
:104190000160A05040328350043283500124002D2E
:1041A000DDD09A0091468144424688214F467A509C
:1041B000C422520090468044424687399940126892
:1041C0008A460A4394464246614611608422494623
:1041D0005F4652008F50022DC1D1020055468D32EC
:1041E000FF3211680D431560B9E720004D30FF30F4
:1041F000E050AEE701204042B6E7C0463C47000031
:1042000000000000002370B5064C05000800236084
:10421000FBF7E4FF431C00D070BD2368002BFBD0EC
:104220002B60F9E7C40A002070B505000C1E08D009
:10423000002802D0836B002B31D00C22A35E002B10
:1042400001D1002070BD21002800FEF70FFDE36AB8
:104250000600002B04D0E16928009847002821DBE4
:10426000A3891B0621D4216B002908D023004033E9
:10427000994202D02800FEF7ADFE00232363616C53
:10428000002904D02800FEF7A5FE00236364FEF792
:1042900033FE0023A381FEF731FE3000D2E7FEF7A4
:1042A00023FECAE701267642DAE721692800FEF7F5
:1042B00091FED8E7002370B5074C050008001100F7
:1042C0002360FBF795FF431C00D070BD2368002BD3
:1042D000FBD02B60F9E7C046C40A0020002370B56C
:1042E000064C050008002360FBF790FF431C00D03C
:1042F00070BD2368002BFBD02B60F9E7C40A0020B7
:1043000070B50500080011000022064C22601A005A
:10431000FBF786FF431C00D070BD2368002BFBD049
:104320002B60F9E7C40A002070B5050008001100F1
:104330000022064C22601A0000F00AF8431C00D04C
:1043400070BD2368002BFBD02B60F9E7C40A002066
:1043500058220120014B40421A607047C40A0020D5
:10436000495554206465204E616E746573000000E9
:10437000446570742047454949000000F80418FC62
:104380000E0202020203660EF00000F000000000C0
:10439000008080000000000000E0E0E0000000017C
:1043A000032E3C5A50F4D6C248202411F8FEFFFEDA
:1043B000000000FFFFFF00000000F0F0FFFFFFF033
:1043C000F060000000000000FFFFFF00000000FFA1
:1043D000FFFFFF000000FFFFFF000000000000FFE4
:1043E000FFFF0000000000000000407F7F7F000012
:1043F00000000F3F7F7F70787C3F7F7F7820000038
:1044000000001F7F7F7820000000000000000020D7
:10441000202020200020505050000000005050F874
:1044200050F850502078A07028F020C0C8102040CC
:1044300098186090A040A89068602040000000009C
:10444000102040404020104020101010204000500C
:1044500020F8205000002020F8202000000000005C
:10446000602040000000F800000000000000006034
:104470006000081020408000708898A8C8887020CC
:10448000602020202070708808102040F8F810204C
:104490001008887010305090F81010F880F008085C
:1044A0008870304080F0888870F8081020404040C4
:1044B00070888870888870708888780810600060BC
:1044C00060006060000060600060204008102040D4
:1044D0002010080000F800F8000080402010204064
:1044E000807088081020002070880868A8A8707064
:1044F000888888F88888F08888F08888F0708880B4
:1045000080808870E09088888890E0F88080F080D3
:1045100080F8F88080E08080807088808098887043
:10452000888888F88888887020202020207038109B
:1045300010101090608890A0C0A09088808080802B
:104540008080F888D8A8888888888888C8A89888AB
:104550008870888888888870F08888F0808080706B
:10456000888888A89068F08888F0A09088788080F3
:10457000700808F0F820202020202088888888886B
:10458000887088888888885020888888A8A8D888D3
:104590008888502050888888885020202020F8085B
:1045A00010204080F8382020202020380080402033
:1045B000100800E02020202020E02050880000008B
:1045C00000000000000000F8402010000000000083
:1045D0000070087888788080B0C88888F000007003
:1045E000808088700808689888887800007088F84B
:1045F0008070304840E040404000007888780830C3
:104600008080B0C88888882000602020207010003A
:10461000301010906040404850605048602020208A
:104620002020700000D0A8A888880000B0C8888822
:1046300088000070888888700000F088F080800012
:104640000068987808080000B0C88080800000707A
:10465000807008F04040E040404830000088888882
:1046600098680000888888502000008888A8A85092
:10467000000088502050880000888878087000006A
:10468000F8102040F810202040202010202020206A
:104690002020204020201020204000003213000065
:1046A00064130000AE130000E01300002A140000A1
:1046B00073616C75740000002C1E0000FA1C000071
:1046C000001E0000F01C0000001E00000A1E00007A
:1046D000001E0000F01C0000FA1C0000FA1C000084
:1046E0000A1E0000F01C0000E61C0000E61C000092
:1046F000E61C00005C200000582400001823000085
:10470000182300001623000030240000302400008D
:104710002224000016230000302400002224000080
:104720003024000016230000382400003824000044
:10473000382400003826000043000000200000203C
:104740000A000000F8B5C046F8BC08BC9E46704799
:10475000452C0000DD000000F8B5C046F8BC08BCE0
:084760009E467047B500000001
:1047680040420F00232001007C43000000000000AD
:10477800084400000607207D0100000000140042E4
:10478800000000000C03002074030020DC0300205C
:104798000000000000000000000000000000000011
:1047A8000000000000000000000000000000000001
:1047B8000000000038470000000000000000000072
:1047C80000000000000000000000000000000000E1
:1047D80000000000000000000000000000000000D1
:1047E80000000000000000000000000000000000C1
:1047F80000000000000000000000000000000000B1
:1048080000000000000000000000000000000000A0
:104818000000000000000000000000000000000090
:10482800000000000000000001000000000000007F
:104838000E33CDAB34126DE6ECDE05000B00000044
:104848000000000000000000000000000000000060
:104858000000000000000000000000000000000050
:104868000000000000000000000000000000000040
:104878000000000000000000000000000000000030
:104BA80000000000000000002000002000000000BD
:104BB800000000004C0400204C0400205404002095
:104BC800540400205C0400205C04002064040020DD
:104BD800640400206C0400206C040020740400208D
:104BE800740400207C0400207C040020840400203D
:104BF800840400208C0400208C04002094040020ED
:104C0800940400209C0400209C040020A40400209C
:104C1800A4040020AC040020AC040020B40400204C
:104C2800B4040020BC040020BC040020C4040020FC
:104C3800C4040020CC040020CC040020D4040020AC
:104C4800D4040020DC040020DC040020E40400205C
:104C5800E4040020EC040020EC040020F40400200C
:104C6800F4040020FC040020FC04002004050020BB
:104C7800040500200C0500200C0500201405002068
:104C8800140500201C0500201C0500202405002018
:104C9800240500202C0500202C05002034050020C8
:104CA800340500203C0500203C0500204405002078
:104CB800440500204C0500204C0500205405002028
:104CC800540500205C0500205C05002064050020D8
:104CD800640500206C0500206C0500207405002088
:104CE800740500207C0500207C0500208405002038
:104CF800840500208C0500208C05002094050020E8
:104D0800940500209C0500209C050020A405002097
:104D1800A4050020AC050020AC050020B405002047
:104D2800B4050020BC050020BC050020C4050020F7
:104D3800C4050020CC050020CC050020D4050020A7
:104D4800D4050020DC050020DC050020E405002057
:104D5800E4050020EC050020EC050020F405002007
:104D6800F4050020FC050020FC05002004060020B6
:104D7800040600200C0600200C0600201406002063
:104D8800140600201C0600201C0600202406002013
:104D9800240600202C0600202C06002034060020C3
:104DA800340600203C0600203C0600204406002073
:104DB800440600204C0600204C0600205406002023
:104DC800540600205C0600205C06002064060020D3
:104DD800640600206C0600206C0600207406002083
:104DE800740600207C0600207C0600208406002033
:104DF800840600208C0600208C06002094060020E3
:104E0800940600209C0600209C060020A406002092
:104E1800A4060020AC060020AC060020B406002042
:104E2800B4060020BC060020BC060020C4060020F2
:104E3800C4060020CC060020CC060020D4060020A2
:104E4800D4060020DC060020DC060020E406002052
:104E5800E4060020EC060020EC060020F406002002
:104E6800F4060020FC060020FC06002004070020B1
:104E7800040700200C0700200C070020140700205E
:104E8800140700201C0700201C070020240700200E
:104E9800240700202C0700202C07002034070020BE
:104EA800340700203C0700203C070020440700206E
:104EB800440700204C0700204C070020540700201E
:104EC800540700205C0700205C07002064070020CE
:104ED800640700206C0700206C070020740700207E
:104EE800740700207C0700207C070020840700202E
:104EF800840700208C0700208C07002094070020DE
:104F0800940700209C0700209C070020A40700208D
:104F1800A4070020AC070020AC070020B40700203D
:104F2800B4070020BC070020BC070020C4070020ED
:104F3800C4070020CC070020CC070020D40700209D
:104F4800D4070020DC070020DC070020E40700204D
:104F5800E4070020EC070020EC070020F4070020FD
:104F6800F4070020FC070020FC07002004080020AC
:104F7800040800200C0800200C0800201408002059
:104F8800140800201C0800201C0800202408002009
:104F9800240800202C0800202C08002034080020B9
:104FA800340800203C0800203C0800204408002069
:0C4FB8004408002000000200FFFFFFFF83
:00000001FF
